{
  "_format": "hh-sol-artifact-1",
  "contractName": "FeesManager",
  "sourceName": "src/FeesManager.sol",
  "abi": [
    {
      "inputs": [],
      "stateMutability": "nonpayable",
      "type": "constructor"
    },
    {
      "inputs": [
        {
          "internalType": "address",
          "name": "target",
          "type": "address"
        }
      ],
      "name": "AddressEmptyCode",
      "type": "error"
    },
    {
      "inputs": [
        {
          "internalType": "address",
          "name": "account",
          "type": "address"
        }
      ],
      "name": "AddressInsufficientBalance",
      "type": "error"
    },
    {
      "inputs": [],
      "name": "AlreadyClaimed",
      "type": "error"
    },
    {
      "inputs": [],
      "name": "AlreadyInitialized",
      "type": "error"
    },
    {
      "inputs": [],
      "name": "FailedInnerCall",
      "type": "error"
    },
    {
      "inputs": [],
      "name": "InvalidEpoch",
      "type": "error"
    },
    {
      "inputs": [],
      "name": "InvalidFromAddress",
      "type": "error"
    },
    {
      "inputs": [],
      "name": "NothingToClaim",
      "type": "error"
    },
    {
      "inputs": [
        {
          "internalType": "address",
          "name": "owner",
          "type": "address"
        }
      ],
      "name": "OwnableInvalidOwner",
      "type": "error"
    },
    {
      "inputs": [
        {
          "internalType": "address",
          "name": "account",
          "type": "address"
        }
      ],
      "name": "OwnableUnauthorizedAccount",
      "type": "error"
    },
    {
      "inputs": [
        {
          "internalType": "address",
          "name": "token",
          "type": "address"
        }
      ],
      "name": "SafeERC20FailedOperation",
      "type": "error"
    },
    {
      "inputs": [],
      "name": "TooEarly",
      "type": "error"
    },
    {
      "inputs": [
        {
          "internalType": "address",
          "name": "xerc20",
          "type": "address"
        }
      ],
      "name": "UnsupportedToken",
      "type": "error"
    },
    {
      "anonymous": false,
      "inputs": [
        {
          "indexed": false,
          "internalType": "address",
          "name": "token",
          "type": "address"
        },
        {
          "indexed": false,
          "internalType": "uint256",
          "name": "minFee",
          "type": "uint256"
        },
        {
          "indexed": false,
          "internalType": "uint256",
          "name": "basisPoints",
          "type": "uint256"
        }
      ],
      "name": "FeeUpdated",
      "type": "event"
    },
    {
      "anonymous": false,
      "inputs": [
        {
          "indexed": false,
          "internalType": "uint256",
          "name": "maxTotalSupply",
          "type": "uint256"
        }
      ],
      "name": "MaxTotalSupplyChanged",
      "type": "event"
    },
    {
      "anonymous": false,
      "inputs": [
        {
          "indexed": true,
          "internalType": "address",
          "name": "previousOwner",
          "type": "address"
        },
        {
          "indexed": true,
          "internalType": "address",
          "name": "newOwner",
          "type": "address"
        }
      ],
      "name": "OwnershipTransferred",
      "type": "event"
    },
    {
      "anonymous": false,
      "inputs": [
        {
          "indexed": false,
          "internalType": "address",
          "name": "previousXERC20",
          "type": "address"
        },
        {
          "indexed": false,
          "internalType": "address",
          "name": "newXERC20",
          "type": "address"
        }
      ],
      "name": "TokenChanged",
      "type": "event"
    },
    {
      "inputs": [],
      "name": "SET_FEE_ROLE",
      "outputs": [
        {
          "internalType": "bytes32",
          "name": "",
          "type": "bytes32"
        }
      ],
      "stateMutability": "view",
      "type": "function"
    },
    {
      "inputs": [],
      "name": "UPGRADE_ROLE",
      "outputs": [
        {
          "internalType": "bytes32",
          "name": "",
          "type": "bytes32"
        }
      ],
      "stateMutability": "view",
      "type": "function"
    },
    {
      "inputs": [],
      "name": "WITHDRAW_ROLE",
      "outputs": [
        {
          "internalType": "bytes32",
          "name": "",
          "type": "bytes32"
        }
      ],
      "stateMutability": "view",
      "type": "function"
    },
    {
      "inputs": [
        {
          "internalType": "address",
          "name": "xerc20",
          "type": "address"
        },
        {
          "internalType": "uint256",
          "name": "amount",
          "type": "uint256"
        }
      ],
      "name": "calculateFee",
      "outputs": [
        {
          "internalType": "uint256",
          "name": "",
          "type": "uint256"
        }
      ],
      "stateMutability": "view",
      "type": "function"
    },
    {
      "inputs": [
        {
          "internalType": "address",
          "name": "token",
          "type": "address"
        },
        {
          "internalType": "uint16",
          "name": "epoch",
          "type": "uint16"
        }
      ],
      "name": "claimFeeByEpoch",
      "outputs": [],
      "stateMutability": "nonpayable",
      "type": "function"
    },
    {
      "inputs": [
        {
          "internalType": "uint16",
          "name": "",
          "type": "uint16"
        },
        {
          "internalType": "address",
          "name": "",
          "type": "address"
        },
        {
          "internalType": "address",
          "name": "",
          "type": "address"
        }
      ],
      "name": "claimedAmountByEpoch",
      "outputs": [
        {
          "internalType": "uint256",
          "name": "",
          "type": "uint256"
        }
      ],
      "stateMutability": "view",
      "type": "function"
    },
    {
      "inputs": [],
      "name": "currentEpoch",
      "outputs": [
        {
          "internalType": "uint16",
          "name": "",
          "type": "uint16"
        }
      ],
      "stateMutability": "view",
      "type": "function"
    },
    {
      "inputs": [
        {
          "internalType": "address",
          "name": "xerc20",
          "type": "address"
        },
        {
          "internalType": "uint256",
          "name": "amount",
          "type": "uint256"
        }
      ],
      "name": "depositFee",
      "outputs": [],
      "stateMutability": "nonpayable",
      "type": "function"
    },
    {
      "inputs": [
        {
          "internalType": "address",
          "name": "xerc20",
          "type": "address"
        },
        {
          "internalType": "uint256",
          "name": "amount",
          "type": "uint256"
        },
        {
          "internalType": "uint16",
          "name": "epoch",
          "type": "uint16"
        }
      ],
      "name": "depositFeeForEpoch",
      "outputs": [],
      "stateMutability": "nonpayable",
      "type": "function"
    },
    {
      "inputs": [
        {
          "internalType": "uint16",
          "name": "epoch",
          "type": "uint16"
        }
      ],
      "name": "depositFeeForEpoch",
      "outputs": [],
      "stateMutability": "payable",
      "type": "function"
    },
    {
      "inputs": [
        {
          "internalType": "address",
          "name": "from",
          "type": "address"
        },
        {
          "internalType": "address",
          "name": "xerc20",
          "type": "address"
        },
        {
          "internalType": "uint256",
          "name": "amount",
          "type": "uint256"
        },
        {
          "internalType": "uint16",
          "name": "epoch",
          "type": "uint16"
        }
      ],
      "name": "depositFeeForEpochFrom",
      "outputs": [],
      "stateMutability": "nonpayable",
      "type": "function"
    },
    {
      "inputs": [
        {
          "internalType": "address",
          "name": "from",
          "type": "address"
        },
        {
          "internalType": "address",
          "name": "xerc20",
          "type": "address"
        },
        {
          "internalType": "uint256",
          "name": "amount",
          "type": "uint256"
        }
      ],
      "name": "depositFeeFrom",
      "outputs": [],
      "stateMutability": "nonpayable",
      "type": "function"
    },
    {
      "inputs": [
        {
          "internalType": "uint16",
          "name": "",
          "type": "uint16"
        },
        {
          "internalType": "address",
          "name": "",
          "type": "address"
        }
      ],
      "name": "depositedAmountByEpoch",
      "outputs": [
        {
          "internalType": "uint256",
          "name": "",
          "type": "uint256"
        }
      ],
      "stateMutability": "view",
      "type": "function"
    },
    {
      "inputs": [
        {
          "internalType": "address",
          "name": "",
          "type": "address"
        }
      ],
      "name": "feeInfoByAsset",
      "outputs": [
        {
          "internalType": "uint256",
          "name": "minFee",
          "type": "uint256"
        },
        {
          "internalType": "uint16",
          "name": "basisPoints",
          "type": "uint16"
        },
        {
          "internalType": "bool",
          "name": "defined",
          "type": "bool"
        }
      ],
      "stateMutability": "view",
      "type": "function"
    },
    {
      "inputs": [],
      "name": "initialized",
      "outputs": [
        {
          "internalType": "bool",
          "name": "",
          "type": "bool"
        }
      ],
      "stateMutability": "view",
      "type": "function"
    },
    {
      "inputs": [
        {
          "internalType": "uint16",
          "name": "firstEpoch",
          "type": "uint16"
        },
        {
          "internalType": "address[]",
          "name": "nodes",
          "type": "address[]"
        },
        {
          "internalType": "uint256[]",
          "name": "amounts",
          "type": "uint256[]"
        }
      ],
      "name": "intialize",
      "outputs": [],
      "stateMutability": "nonpayable",
      "type": "function"
    },
    {
      "inputs": [],
      "name": "owner",
      "outputs": [
        {
          "internalType": "address",
          "name": "",
          "type": "address"
        }
      ],
      "stateMutability": "view",
      "type": "function"
    },
    {
      "inputs": [
        {
          "internalType": "address[]",
          "name": "nodes",
          "type": "address[]"
        },
        {
          "internalType": "uint256[]",
          "name": "amounts",
          "type": "uint256[]"
        }
      ],
      "name": "registerAndAdvanceEpoch",
      "outputs": [],
      "stateMutability": "nonpayable",
      "type": "function"
    },
    {
      "inputs": [],
      "name": "renounceOwnership",
      "outputs": [],
      "stateMutability": "nonpayable",
      "type": "function"
    },
    {
      "inputs": [
        {
          "internalType": "address",
          "name": "xerc20",
          "type": "address"
        },
        {
          "internalType": "uint256",
          "name": "minAmount",
          "type": "uint256"
        },
        {
          "internalType": "uint16",
          "name": "basisPoints",
          "type": "uint16"
        }
      ],
      "name": "setFee",
      "outputs": [],
      "stateMutability": "nonpayable",
      "type": "function"
    },
    {
      "inputs": [
        {
          "internalType": "address",
          "name": "xerc20",
          "type": "address"
        },
        {
          "internalType": "address",
          "name": "newFeesManager",
          "type": "address"
        }
      ],
      "name": "setFeesManagerForXERC20",
      "outputs": [],
      "stateMutability": "nonpayable",
      "type": "function"
    },
    {
      "inputs": [
        {
          "internalType": "uint16",
          "name": "",
          "type": "uint16"
        },
        {
          "internalType": "address",
          "name": "",
          "type": "address"
        }
      ],
      "name": "stakedAmountByEpoch",
      "outputs": [
        {
          "internalType": "uint256",
          "name": "",
          "type": "uint256"
        }
      ],
      "stateMutability": "view",
      "type": "function"
    },
    {
      "inputs": [
        {
          "internalType": "uint16",
          "name": "",
          "type": "uint16"
        }
      ],
      "name": "totalStakedAmountByEpoch",
      "outputs": [
        {
          "internalType": "uint256",
          "name": "",
          "type": "uint256"
        }
      ],
      "stateMutability": "view",
      "type": "function"
    },
    {
      "inputs": [
        {
          "internalType": "address",
          "name": "newOwner",
          "type": "address"
        }
      ],
      "name": "transferOwnership",
      "outputs": [],
      "stateMutability": "nonpayable",
      "type": "function"
    }
  ],
  "bytecode": "0x608060405234801561001057600080fd5b5033600073ffffffffffffffffffffffffffffffffffffffff168173ffffffffffffffffffffffffffffffffffffffff16036100845760006040517f1e4fbdf700000000000000000000000000000000000000000000000000000000815260040161007b919061019e565b60405180910390fd5b6100938161009960201b60201c565b506101b9565b60008060009054906101000a900473ffffffffffffffffffffffffffffffffffffffff169050816000806101000a81548173ffffffffffffffffffffffffffffffffffffffff021916908373ffffffffffffffffffffffffffffffffffffffff1602179055508173ffffffffffffffffffffffffffffffffffffffff168173ffffffffffffffffffffffffffffffffffffffff167f8be0079c531659141344cd1fd0a4f28419497f9722a3daafe3b4186f6b6457e060405160405180910390a35050565b600073ffffffffffffffffffffffffffffffffffffffff82169050919050565b60006101888261015d565b9050919050565b6101988161017d565b82525050565b60006020820190506101b3600083018461018f565b92915050565b61232a806101c86000396000f3fe60806040526004361061014b5760003560e01c80638bbfee53116100b6578063c1cf9af41161006f578063c1cf9af4146104a4578063cd1f2227146104c0578063d736ecc0146104e9578063e02023a114610512578063ef810fb81461053d578063f2fde38b146105665761014b565b80638bbfee53146103825780638da5cb5b146103ab578063a3abd65a146103d6578063b908afa814610413578063bbee598d1461043e578063be976d171461047b5761014b565b8063610ea2e611610108578063610ea2e61461025c578063715018a61461029957806376671808146102b05780637765f5c3146102db578063844d3b80146103065780638b28ab1e146103455761014b565b8063158ef93e146101505780631942a9bb1461017b5780632b1e63d9146101a45780632fce6ea8146101cd5780633302be101461020a5780633b8351d214610233575b600080fd5b34801561015c57600080fd5b5061016561058f565b6040516101729190611970565b60405180910390f35b34801561018757600080fd5b506101a2600480360381019061019d9190611a2d565b6105a2565b005b3480156101b057600080fd5b506101cb60048036038101906101c69190611aa3565b61094d565b005b3480156101d957600080fd5b506101f460048036038101906101ef9190611af6565b61096e565b6040516102019190611b32565b60405180910390f35b34801561021657600080fd5b50610231600480360381019061022c9190611b4d565b610986565b005b34801561023f57600080fd5b5061025a60048036038101906102559190611ba0565b610997565b005b34801561026857600080fd5b50610283600480360381019061027e9190611be0565b6109b6565b6040516102909190611b32565b60405180910390f35b3480156102a557600080fd5b506102ae6109e8565b005b3480156102bc57600080fd5b506102c56109fc565b6040516102d29190611c42565b60405180910390f35b3480156102e757600080fd5b506102f0610a10565b6040516102fd9190611c76565b60405180910390f35b34801561031257600080fd5b5061032d60048036038101906103289190611c91565b610a16565b60405161033c93929190611cbe565b60405180910390f35b34801561035157600080fd5b5061036c60048036038101906103679190611ba0565b610a5b565b6040516103799190611b32565b60405180910390f35b34801561038e57600080fd5b506103a960048036038101906103a49190611cf5565b610c7d565b005b3480156103b757600080fd5b506103c0610e68565b6040516103cd9190611d6b565b60405180910390f35b3480156103e257600080fd5b506103fd60048036038101906103f89190611d86565b610e91565b60405161040a9190611b32565b60405180910390f35b34801561041f57600080fd5b50610428610eb6565b6040516104359190611c76565b60405180910390f35b34801561044a57600080fd5b5061046560048036038101906104609190611d86565b610ebc565b6040516104729190611b32565b60405180910390f35b34801561048757600080fd5b506104a2600480360381019061049d9190611dc6565b610ee1565b005b6104be60048036038101906104b99190611af6565b610f58565b005b3480156104cc57600080fd5b506104e760048036038101906104e29190611b4d565b61101c565b005b3480156104f557600080fd5b50610510600480360381019061050b9190611ec1565b611115565b005b34801561051e57600080fd5b506105276112bd565b6040516105349190611c76565b60405180910390f35b34801561054957600080fd5b50610564600480360381019061055f9190611f56565b6112c3565b005b34801561057257600080fd5b5061058d60048036038101906105889190611c91565b61142d565b005b600960009054906101000a900460ff1681565b60006105ac6114b3565b9050600060149054906101000a900461ffff1661ffff168261ffff16106105ff576040517f085de62500000000000000000000000000000000000000000000000000000000815260040160405180910390fd5b6000600560008461ffff1661ffff16815260200190815260200160002060008573ffffffffffffffffffffffffffffffffffffffff1673ffffffffffffffffffffffffffffffffffffffff16815260200190815260200160002060008373ffffffffffffffffffffffffffffffffffffffff1673ffffffffffffffffffffffffffffffffffffffff1681526020019081526020016000205411156106cf576040517f646cf55800000000000000000000000000000000000000000000000000000000815260040160405180910390fd5b6000600760008461ffff1661ffff16815260200190815260200160002054600660008561ffff1661ffff16815260200190815260200160002060008473ffffffffffffffffffffffffffffffffffffffff1673ffffffffffffffffffffffffffffffffffffffff16815260200190815260200160002054600460008661ffff1661ffff16815260200190815260200160002060008773ffffffffffffffffffffffffffffffffffffffff1673ffffffffffffffffffffffffffffffffffffffff168152602001908152602001600020546107a99190612006565b6107b39190612077565b9050600081036107ef576040517f969bf72800000000000000000000000000000000000000000000000000000000815260040160405180910390fd5b80600560008561ffff1661ffff16815260200190815260200160002060008673ffffffffffffffffffffffffffffffffffffffff1673ffffffffffffffffffffffffffffffffffffffff16815260200190815260200160002060008473ffffffffffffffffffffffffffffffffffffffff1673ffffffffffffffffffffffffffffffffffffffff168152602001908152602001600020600082825461089491906120a8565b92505081905550600073ffffffffffffffffffffffffffffffffffffffff168473ffffffffffffffffffffffffffffffffffffffff160361091b578173ffffffffffffffffffffffffffffffffffffffff166108fc829081150290604051600060405180830381858888f19350505050158015610915573d6000803e3d6000fd5b50610947565b61094682828673ffffffffffffffffffffffffffffffffffffffff166114bb9092919063ffffffff16565b5b50505050565b610969838383600060149054906101000a900461ffff16610c7d565b505050565b60076020528060005260406000206000915090505481565b61099233848484610c7d565b505050565b6109b28282600060149054906101000a900461ffff16610986565b5050565b600560205282600052604060002060205281600052604060002060205280600052604060002060009250925050505481565b6109f061153a565b6109fa60006115c1565b565b600060149054906101000a900461ffff1681565b60035481565b60086020528060005260406000206000915090508060000154908060010160009054906101000a900461ffff16908060010160029054906101000a900460ff16905083565b6000808373ffffffffffffffffffffffffffffffffffffffff16630ee046296040518163ffffffff1660e01b8152600401602060405180830381865afa158015610aa9573d6000803e3d6000fd5b505050506040513d601f19601f82011682018060405250810190610acd9190612108565b90508015610c71576000600860008673ffffffffffffffffffffffffffffffffffffffff1673ffffffffffffffffffffffffffffffffffffffff168152602001908152602001600020604051806060016040529081600082015481526020016001820160009054906101000a900461ffff1661ffff1661ffff1681526020016001820160029054906101000a900460ff16151515158152505090508060400151610bae57846040517fbf16aab6000000000000000000000000000000000000000000000000000000008152600401610ba59190611d6b565b60405180910390fd5b6000620f4240826020015161ffff1686610bc89190612006565b610bd29190612077565b9050600860008773ffffffffffffffffffffffffffffffffffffffff1673ffffffffffffffffffffffffffffffffffffffff168152602001908152602001600020600001548110610c235780610c67565b600860008773ffffffffffffffffffffffffffffffffffffffff1673ffffffffffffffffffffffffffffffffffffffff168152602001908152602001600020600001545b9350505050610c77565b60009150505b92915050565b600073ffffffffffffffffffffffffffffffffffffffff168473ffffffffffffffffffffffffffffffffffffffff1603610ce3576040517f7ab628f900000000000000000000000000000000000000000000000000000000815260040160405180910390fd5b600060149054906101000a900461ffff1661ffff168161ffff161015610d35576040517fd5b25b6300000000000000000000000000000000000000000000000000000000815260040160405180910390fd5b600860008473ffffffffffffffffffffffffffffffffffffffff1673ffffffffffffffffffffffffffffffffffffffff16815260200190815260200160002060010160029054906101000a900460ff16610dc657826040517fbf16aab6000000000000000000000000000000000000000000000000000000008152600401610dbd9190611d6b565b60405180910390fd5b81600460008361ffff1661ffff16815260200190815260200160002060008573ffffffffffffffffffffffffffffffffffffffff1673ffffffffffffffffffffffffffffffffffffffff1681526020019081526020016000206000828254610e2e91906120a8565b92505081905550610e628430848673ffffffffffffffffffffffffffffffffffffffff16611685909392919063ffffffff16565b50505050565b60008060009054906101000a900473ffffffffffffffffffffffffffffffffffffffff16905090565b6004602052816000526040600020602052806000526040600020600091509150505481565b60025481565b6006602052816000526040600020602052806000526040600020600091509150505481565b610ee961153a565b8173ffffffffffffffffffffffffffffffffffffffff16631c89382a826040518263ffffffff1660e01b8152600401610f229190611d6b565b600060405180830381600087803b158015610f3c57600080fd5b505af1158015610f50573d6000803e3d6000fd5b505050505050565b600060149054906101000a900461ffff1661ffff168161ffff161015610faa576040517fd5b25b6300000000000000000000000000000000000000000000000000000000815260040160405180910390fd5b34600460008361ffff1661ffff16815260200190815260200160002060008073ffffffffffffffffffffffffffffffffffffffff1673ffffffffffffffffffffffffffffffffffffffff168152602001908152602001600020600082825461101291906120a8565b9250508190555050565b61102461153a565b60405180606001604052808381526020018261ffff16815260200160011515815250600860008573ffffffffffffffffffffffffffffffffffffffff1673ffffffffffffffffffffffffffffffffffffffff1681526020019081526020016000206000820151816000015560208201518160010160006101000a81548161ffff021916908361ffff16021790555060408201518160010160026101000a81548160ff0219169083151502179055509050507fcf5b6c438b64611d8ee0722509d7ad5149d4f779f0b29bc845152f0d89e42e1983838360405161110893929190612170565b60405180910390a1505050565b600960009054906101000a900460ff161561115c576040517f0dc149f000000000000000000000000000000000000000000000000000000000815260040160405180910390fd5b84600060146101000a81548161ffff021916908361ffff16021790555060005b8484905081101561129a5782828281811061119a576111996121a7565b5b90506020020135600660008060149054906101000a900461ffff1661ffff1661ffff16815260200190815260200160002060008787858181106111e0576111df6121a7565b5b90506020020160208101906111f59190611c91565b73ffffffffffffffffffffffffffffffffffffffff1673ffffffffffffffffffffffffffffffffffffffff16815260200190815260200160002081905550828282818110611246576112456121a7565b5b90506020020135600760008060149054906101000a900461ffff1661ffff1661ffff168152602001908152602001600020600082825461128691906120a8565b92505081905550808060010191505061117c565b506001600960006101000a81548160ff0219169083151502179055505050505050565b60015481565b6112cb61153a565b6001600060148282829054906101000a900461ffff166112eb91906121d6565b92506101000a81548161ffff021916908361ffff16021790555060005b8484905081101561142657828282818110611326576113256121a7565b5b90506020020135600660008060149054906101000a900461ffff1661ffff1661ffff168152602001908152602001600020600087878581811061136c5761136b6121a7565b5b90506020020160208101906113819190611c91565b73ffffffffffffffffffffffffffffffffffffffff1673ffffffffffffffffffffffffffffffffffffffff168152602001908152602001600020819055508282828181106113d2576113d16121a7565b5b90506020020135600760008060149054906101000a900461ffff1661ffff1661ffff168152602001908152602001600020600082825461141291906120a8565b925050819055508080600101915050611308565b5050505050565b61143561153a565b600073ffffffffffffffffffffffffffffffffffffffff168173ffffffffffffffffffffffffffffffffffffffff16036114a75760006040517f1e4fbdf700000000000000000000000000000000000000000000000000000000815260040161149e9190611d6b565b60405180910390fd5b6114b0816115c1565b50565b600033905090565b611535838473ffffffffffffffffffffffffffffffffffffffff1663a9059cbb85856040516024016114ee92919061220c565b604051602081830303815290604052915060e01b6020820180517bffffffffffffffffffffffffffffffffffffffffffffffffffffffff8381831617835250505050611707565b505050565b6115426114b3565b73ffffffffffffffffffffffffffffffffffffffff16611560610e68565b73ffffffffffffffffffffffffffffffffffffffff16146115bf576115836114b3565b6040517f118cdaa70000000000000000000000000000000000000000000000000000000081526004016115b69190611d6b565b60405180910390fd5b565b60008060009054906101000a900473ffffffffffffffffffffffffffffffffffffffff169050816000806101000a81548173ffffffffffffffffffffffffffffffffffffffff021916908373ffffffffffffffffffffffffffffffffffffffff1602179055508173ffffffffffffffffffffffffffffffffffffffff168173ffffffffffffffffffffffffffffffffffffffff167f8be0079c531659141344cd1fd0a4f28419497f9722a3daafe3b4186f6b6457e060405160405180910390a35050565b611701848573ffffffffffffffffffffffffffffffffffffffff166323b872dd8686866040516024016116ba93929190612235565b604051602081830303815290604052915060e01b6020820180517bffffffffffffffffffffffffffffffffffffffffffffffffffffffff8381831617835250505050611707565b50505050565b6000611732828473ffffffffffffffffffffffffffffffffffffffff1661179e90919063ffffffff16565b905060008151141580156117575750808060200190518101906117559190612108565b155b1561179957826040517f5274afe70000000000000000000000000000000000000000000000000000000081526004016117909190611d6b565b60405180910390fd5b505050565b60606117ac838360006117b4565b905092915050565b6060814710156117fb57306040517fcd7860590000000000000000000000000000000000000000000000000000000081526004016117f29190611d6b565b60405180910390fd5b6000808573ffffffffffffffffffffffffffffffffffffffff16848660405161182491906122dd565b60006040518083038185875af1925050503d8060008114611861576040519150601f19603f3d011682016040523d82523d6000602084013e611866565b606091505b5091509150611876868383611881565b925050509392505050565b6060826118965761189182611910565b611908565b600082511480156118be575060008473ffffffffffffffffffffffffffffffffffffffff163b145b1561190057836040517f9996b3150000000000000000000000000000000000000000000000000000000081526004016118f79190611d6b565b60405180910390fd5b819050611909565b5b9392505050565b6000815111156119235780518082602001fd5b6040517f1425ea4200000000000000000000000000000000000000000000000000000000815260040160405180910390fd5b60008115159050919050565b61196a81611955565b82525050565b60006020820190506119856000830184611961565b92915050565b600080fd5b600080fd5b600073ffffffffffffffffffffffffffffffffffffffff82169050919050565b60006119c082611995565b9050919050565b6119d0816119b5565b81146119db57600080fd5b50565b6000813590506119ed816119c7565b92915050565b600061ffff82169050919050565b611a0a816119f3565b8114611a1557600080fd5b50565b600081359050611a2781611a01565b92915050565b60008060408385031215611a4457611a4361198b565b5b6000611a52858286016119de565b9250506020611a6385828601611a18565b9150509250929050565b6000819050919050565b611a8081611a6d565b8114611a8b57600080fd5b50565b600081359050611a9d81611a77565b92915050565b600080600060608486031215611abc57611abb61198b565b5b6000611aca868287016119de565b9350506020611adb868287016119de565b9250506040611aec86828701611a8e565b9150509250925092565b600060208284031215611b0c57611b0b61198b565b5b6000611b1a84828501611a18565b91505092915050565b611b2c81611a6d565b82525050565b6000602082019050611b476000830184611b23565b92915050565b600080600060608486031215611b6657611b6561198b565b5b6000611b74868287016119de565b9350506020611b8586828701611a8e565b9250506040611b9686828701611a18565b9150509250925092565b60008060408385031215611bb757611bb661198b565b5b6000611bc5858286016119de565b9250506020611bd685828601611a8e565b9150509250929050565b600080600060608486031215611bf957611bf861198b565b5b6000611c0786828701611a18565b9350506020611c18868287016119de565b9250506040611c29868287016119de565b9150509250925092565b611c3c816119f3565b82525050565b6000602082019050611c576000830184611c33565b92915050565b6000819050919050565b611c7081611c5d565b82525050565b6000602082019050611c8b6000830184611c67565b92915050565b600060208284031215611ca757611ca661198b565b5b6000611cb5848285016119de565b91505092915050565b6000606082019050611cd36000830186611b23565b611ce06020830185611c33565b611ced6040830184611961565b949350505050565b60008060008060808587031215611d0f57611d0e61198b565b5b6000611d1d878288016119de565b9450506020611d2e878288016119de565b9350506040611d3f87828801611a8e565b9250506060611d5087828801611a18565b91505092959194509250565b611d65816119b5565b82525050565b6000602082019050611d806000830184611d5c565b92915050565b60008060408385031215611d9d57611d9c61198b565b5b6000611dab85828601611a18565b9250506020611dbc858286016119de565b9150509250929050565b60008060408385031215611ddd57611ddc61198b565b5b6000611deb858286016119de565b9250506020611dfc858286016119de565b9150509250929050565b600080fd5b600080fd5b600080fd5b60008083601f840112611e2b57611e2a611e06565b5b8235905067ffffffffffffffff811115611e4857611e47611e0b565b5b602083019150836020820283011115611e6457611e63611e10565b5b9250929050565b60008083601f840112611e8157611e80611e06565b5b8235905067ffffffffffffffff811115611e9e57611e9d611e0b565b5b602083019150836020820283011115611eba57611eb9611e10565b5b9250929050565b600080600080600060608688031215611edd57611edc61198b565b5b6000611eeb88828901611a18565b955050602086013567ffffffffffffffff811115611f0c57611f0b611990565b5b611f1888828901611e15565b9450945050604086013567ffffffffffffffff811115611f3b57611f3a611990565b5b611f4788828901611e6b565b92509250509295509295909350565b60008060008060408587031215611f7057611f6f61198b565b5b600085013567ffffffffffffffff811115611f8e57611f8d611990565b5b611f9a87828801611e15565b9450945050602085013567ffffffffffffffff811115611fbd57611fbc611990565b5b611fc987828801611e6b565b925092505092959194509250565b7f4e487b7100000000000000000000000000000000000000000000000000000000600052601160045260246000fd5b600061201182611a6d565b915061201c83611a6d565b925082820261202a81611a6d565b9150828204841483151761204157612040611fd7565b5b5092915050565b7f4e487b7100000000000000000000000000000000000000000000000000000000600052601260045260246000fd5b600061208282611a6d565b915061208d83611a6d565b92508261209d5761209c612048565b5b828204905092915050565b60006120b382611a6d565b91506120be83611a6d565b92508282019050808211156120d6576120d5611fd7565b5b92915050565b6120e581611955565b81146120f057600080fd5b50565b600081519050612102816120dc565b92915050565b60006020828403121561211e5761211d61198b565b5b600061212c848285016120f3565b91505092915050565b6000819050919050565b600061215a612155612150846119f3565b612135565b611a6d565b9050919050565b61216a8161213f565b82525050565b60006060820190506121856000830186611d5c565b6121926020830185611b23565b61219f6040830184612161565b949350505050565b7f4e487b7100000000000000000000000000000000000000000000000000000000600052603260045260246000fd5b60006121e1826119f3565b91506121ec836119f3565b9250828201905061ffff81111561220657612205611fd7565b5b92915050565b60006040820190506122216000830185611d5c565b61222e6020830184611b23565b9392505050565b600060608201905061224a6000830186611d5c565b6122576020830185611d5c565b6122646040830184611b23565b949350505050565b600081519050919050565b600081905092915050565b60005b838110156122a0578082015181840152602081019050612285565b60008484015250505050565b60006122b78261226c565b6122c18185612277565b93506122d1818560208601612282565b80840191505092915050565b60006122e982846122ac565b91508190509291505056fea26469706673582212209b084f1c6b6273dc8b547b7b96bff7e707e4b1503e8bf68b95fb06662596e7e064736f6c63430008190033",
  "linkReferences": {},
  "deployedLinkReferences": {}
}