{
  "_format": "hh-sol-artifact-1",
  "contractName": "PTokenV2",
  "sourceName": "src/ptoken-v2/PTokenV2.sol",
  "abi": [
    {
      "anonymous": false,
      "inputs": [
        {
          "indexed": false,
          "internalType": "address",
          "name": "oldOperator",
          "type": "address"
        },
        {
          "indexed": false,
          "internalType": "address",
          "name": "newOperator",
          "type": "address"
        }
      ],
      "name": "AdminOperatorChange",
      "type": "event"
    },
    {
      "anonymous": false,
      "inputs": [
        {
          "indexed": false,
          "internalType": "address",
          "name": "operator",
          "type": "address"
        }
      ],
      "name": "AdminTransferInvoked",
      "type": "event"
    },
    {
      "anonymous": false,
      "inputs": [
        {
          "indexed": true,
          "internalType": "address",
          "name": "owner",
          "type": "address"
        },
        {
          "indexed": true,
          "internalType": "address",
          "name": "spender",
          "type": "address"
        },
        {
          "indexed": false,
          "internalType": "uint256",
          "name": "value",
          "type": "uint256"
        }
      ],
      "name": "Approval",
      "type": "event"
    },
    {
      "anonymous": false,
      "inputs": [
        {
          "indexed": true,
          "internalType": "address",
          "name": "operator",
          "type": "address"
        },
        {
          "indexed": true,
          "internalType": "address",
          "name": "tokenHolder",
          "type": "address"
        }
      ],
      "name": "AuthorizedOperator",
      "type": "event"
    },
    {
      "anonymous": false,
      "inputs": [
        {
          "indexed": false,
          "internalType": "uint256",
          "name": "_mintingLimit",
          "type": "uint256"
        },
        {
          "indexed": false,
          "internalType": "uint256",
          "name": "_burningLimit",
          "type": "uint256"
        },
        {
          "indexed": true,
          "internalType": "address",
          "name": "_bridge",
          "type": "address"
        }
      ],
      "name": "BridgeLimitsSet",
      "type": "event"
    },
    {
      "anonymous": false,
      "inputs": [
        {
          "indexed": true,
          "internalType": "address",
          "name": "operator",
          "type": "address"
        },
        {
          "indexed": true,
          "internalType": "address",
          "name": "from",
          "type": "address"
        },
        {
          "indexed": false,
          "internalType": "uint256",
          "name": "amount",
          "type": "uint256"
        },
        {
          "indexed": false,
          "internalType": "bytes",
          "name": "data",
          "type": "bytes"
        },
        {
          "indexed": false,
          "internalType": "bytes",
          "name": "operatorData",
          "type": "bytes"
        }
      ],
      "name": "Burned",
      "type": "event"
    },
    {
      "anonymous": false,
      "inputs": [
        {
          "indexed": false,
          "internalType": "address",
          "name": "newAddress",
          "type": "address"
        }
      ],
      "name": "FeesManagerChanged",
      "type": "event"
    },
    {
      "anonymous": false,
      "inputs": [
        {
          "indexed": false,
          "internalType": "address",
          "name": "_lockbox",
          "type": "address"
        }
      ],
      "name": "LockboxSet",
      "type": "event"
    },
    {
      "anonymous": false,
      "inputs": [
        {
          "indexed": true,
          "internalType": "address",
          "name": "operator",
          "type": "address"
        },
        {
          "indexed": true,
          "internalType": "address",
          "name": "to",
          "type": "address"
        },
        {
          "indexed": false,
          "internalType": "uint256",
          "name": "amount",
          "type": "uint256"
        },
        {
          "indexed": false,
          "internalType": "bytes",
          "name": "data",
          "type": "bytes"
        },
        {
          "indexed": false,
          "internalType": "bytes",
          "name": "operatorData",
          "type": "bytes"
        }
      ],
      "name": "Minted",
      "type": "event"
    },
    {
      "anonymous": false,
      "inputs": [
        {
          "indexed": true,
          "internalType": "address",
          "name": "previousOwner",
          "type": "address"
        },
        {
          "indexed": true,
          "internalType": "address",
          "name": "newOwner",
          "type": "address"
        }
      ],
      "name": "OwnershipTransferred",
      "type": "event"
    },
    {
      "anonymous": false,
      "inputs": [
        {
          "indexed": true,
          "internalType": "address",
          "name": "oldRelayHub",
          "type": "address"
        },
        {
          "indexed": true,
          "internalType": "address",
          "name": "newRelayHub",
          "type": "address"
        }
      ],
      "name": "RelayHubChanged",
      "type": "event"
    },
    {
      "anonymous": false,
      "inputs": [
        {
          "indexed": true,
          "internalType": "address",
          "name": "operator",
          "type": "address"
        },
        {
          "indexed": true,
          "internalType": "address",
          "name": "tokenHolder",
          "type": "address"
        }
      ],
      "name": "RevokedOperator",
      "type": "event"
    },
    {
      "anonymous": false,
      "inputs": [
        {
          "indexed": true,
          "internalType": "bytes32",
          "name": "role",
          "type": "bytes32"
        },
        {
          "indexed": true,
          "internalType": "bytes32",
          "name": "previousAdminRole",
          "type": "bytes32"
        },
        {
          "indexed": true,
          "internalType": "bytes32",
          "name": "newAdminRole",
          "type": "bytes32"
        }
      ],
      "name": "RoleAdminChanged",
      "type": "event"
    },
    {
      "anonymous": false,
      "inputs": [
        {
          "indexed": true,
          "internalType": "bytes32",
          "name": "role",
          "type": "bytes32"
        },
        {
          "indexed": true,
          "internalType": "address",
          "name": "account",
          "type": "address"
        },
        {
          "indexed": true,
          "internalType": "address",
          "name": "sender",
          "type": "address"
        }
      ],
      "name": "RoleGranted",
      "type": "event"
    },
    {
      "anonymous": false,
      "inputs": [
        {
          "indexed": true,
          "internalType": "bytes32",
          "name": "role",
          "type": "bytes32"
        },
        {
          "indexed": true,
          "internalType": "address",
          "name": "account",
          "type": "address"
        },
        {
          "indexed": true,
          "internalType": "address",
          "name": "sender",
          "type": "address"
        }
      ],
      "name": "RoleRevoked",
      "type": "event"
    },
    {
      "anonymous": false,
      "inputs": [
        {
          "indexed": true,
          "internalType": "address",
          "name": "operator",
          "type": "address"
        },
        {
          "indexed": true,
          "internalType": "address",
          "name": "from",
          "type": "address"
        },
        {
          "indexed": true,
          "internalType": "address",
          "name": "to",
          "type": "address"
        },
        {
          "indexed": false,
          "internalType": "uint256",
          "name": "amount",
          "type": "uint256"
        },
        {
          "indexed": false,
          "internalType": "bytes",
          "name": "data",
          "type": "bytes"
        },
        {
          "indexed": false,
          "internalType": "bytes",
          "name": "operatorData",
          "type": "bytes"
        }
      ],
      "name": "Sent",
      "type": "event"
    },
    {
      "anonymous": false,
      "inputs": [
        {
          "indexed": true,
          "internalType": "address",
          "name": "from",
          "type": "address"
        },
        {
          "indexed": true,
          "internalType": "address",
          "name": "to",
          "type": "address"
        },
        {
          "indexed": false,
          "internalType": "uint256",
          "name": "value",
          "type": "uint256"
        }
      ],
      "name": "Transfer",
      "type": "event"
    },
    {
      "inputs": [],
      "name": "DEFAULT_ADMIN_ROLE",
      "outputs": [
        {
          "internalType": "bytes32",
          "name": "",
          "type": "bytes32"
        }
      ],
      "stateMutability": "view",
      "type": "function"
    },
    {
      "inputs": [],
      "name": "MINTER_ROLE",
      "outputs": [
        {
          "internalType": "bytes32",
          "name": "",
          "type": "bytes32"
        }
      ],
      "stateMutability": "view",
      "type": "function"
    },
    {
      "inputs": [],
      "name": "ORIGIN_CHAIN_ID",
      "outputs": [
        {
          "internalType": "bytes4",
          "name": "",
          "type": "bytes4"
        }
      ],
      "stateMutability": "view",
      "type": "function"
    },
    {
      "inputs": [
        {
          "internalType": "address",
          "name": "_gsnTrustedSigner",
          "type": "address"
        },
        {
          "internalType": "address",
          "name": "_gsnFeeTarget",
          "type": "address"
        }
      ],
      "name": "__ERC777GSNUpgradeable_init",
      "outputs": [],
      "stateMutability": "nonpayable",
      "type": "function"
    },
    {
      "inputs": [
        {
          "internalType": "address",
          "name": "_adminOperator",
          "type": "address"
        }
      ],
      "name": "__ERC777WithAdminOperatorUpgradeable_init",
      "outputs": [],
      "stateMutability": "nonpayable",
      "type": "function"
    },
    {
      "inputs": [
        {
          "internalType": "address",
          "name": "relay",
          "type": "address"
        },
        {
          "internalType": "address",
          "name": "from",
          "type": "address"
        },
        {
          "internalType": "bytes",
          "name": "encodedFunction",
          "type": "bytes"
        },
        {
          "internalType": "uint256",
          "name": "transactionFee",
          "type": "uint256"
        },
        {
          "internalType": "uint256",
          "name": "gasPrice",
          "type": "uint256"
        },
        {
          "internalType": "uint256",
          "name": "gasLimit",
          "type": "uint256"
        },
        {
          "internalType": "uint256",
          "name": "nonce",
          "type": "uint256"
        },
        {
          "internalType": "bytes",
          "name": "approvalData",
          "type": "bytes"
        },
        {
          "internalType": "uint256",
          "name": "",
          "type": "uint256"
        }
      ],
      "name": "acceptRelayedCall",
      "outputs": [
        {
          "internalType": "uint256",
          "name": "",
          "type": "uint256"
        },
        {
          "internalType": "bytes",
          "name": "",
          "type": "bytes"
        }
      ],
      "stateMutability": "view",
      "type": "function"
    },
    {
      "inputs": [
        {
          "internalType": "address",
          "name": "",
          "type": "address"
        }
      ],
      "name": "adapterToPAM",
      "outputs": [
        {
          "internalType": "address",
          "name": "",
          "type": "address"
        }
      ],
      "stateMutability": "view",
      "type": "function"
    },
    {
      "inputs": [],
      "name": "adminOperator",
      "outputs": [
        {
          "internalType": "address",
          "name": "",
          "type": "address"
        }
      ],
      "stateMutability": "view",
      "type": "function"
    },
    {
      "inputs": [
        {
          "internalType": "address",
          "name": "sender",
          "type": "address"
        },
        {
          "internalType": "address",
          "name": "recipient",
          "type": "address"
        },
        {
          "internalType": "uint256",
          "name": "amount",
          "type": "uint256"
        },
        {
          "internalType": "bytes",
          "name": "data",
          "type": "bytes"
        },
        {
          "internalType": "bytes",
          "name": "operatorData",
          "type": "bytes"
        }
      ],
      "name": "adminTransfer",
      "outputs": [],
      "stateMutability": "nonpayable",
      "type": "function"
    },
    {
      "inputs": [
        {
          "internalType": "address",
          "name": "holder",
          "type": "address"
        },
        {
          "internalType": "address",
          "name": "spender",
          "type": "address"
        }
      ],
      "name": "allowance",
      "outputs": [
        {
          "internalType": "uint256",
          "name": "",
          "type": "uint256"
        }
      ],
      "stateMutability": "view",
      "type": "function"
    },
    {
      "inputs": [
        {
          "internalType": "address",
          "name": "spender",
          "type": "address"
        },
        {
          "internalType": "uint256",
          "name": "value",
          "type": "uint256"
        }
      ],
      "name": "approve",
      "outputs": [
        {
          "internalType": "bool",
          "name": "",
          "type": "bool"
        }
      ],
      "stateMutability": "nonpayable",
      "type": "function"
    },
    {
      "inputs": [
        {
          "internalType": "address",
          "name": "operator",
          "type": "address"
        }
      ],
      "name": "authorizeOperator",
      "outputs": [],
      "stateMutability": "nonpayable",
      "type": "function"
    },
    {
      "inputs": [
        {
          "internalType": "address",
          "name": "tokenHolder",
          "type": "address"
        }
      ],
      "name": "balanceOf",
      "outputs": [
        {
          "internalType": "uint256",
          "name": "",
          "type": "uint256"
        }
      ],
      "stateMutability": "view",
      "type": "function"
    },
    {
      "inputs": [
        {
          "internalType": "address",
          "name": "_user",
          "type": "address"
        },
        {
          "internalType": "uint256",
          "name": "_amount",
          "type": "uint256"
        }
      ],
      "name": "burn",
      "outputs": [],
      "stateMutability": "nonpayable",
      "type": "function"
    },
    {
      "inputs": [
        {
          "internalType": "uint256",
          "name": "amount",
          "type": "uint256"
        },
        {
          "internalType": "bytes",
          "name": "data",
          "type": "bytes"
        }
      ],
      "name": "burn",
      "outputs": [],
      "stateMutability": "nonpayable",
      "type": "function"
    },
    {
      "inputs": [
        {
          "internalType": "address",
          "name": "_bridge",
          "type": "address"
        }
      ],
      "name": "burningCurrentLimitOf",
      "outputs": [
        {
          "internalType": "uint256",
          "name": "_limit",
          "type": "uint256"
        }
      ],
      "stateMutability": "view",
      "type": "function"
    },
    {
      "inputs": [
        {
          "internalType": "address",
          "name": "_bridge",
          "type": "address"
        }
      ],
      "name": "burningMaxLimitOf",
      "outputs": [
        {
          "internalType": "uint256",
          "name": "_limit",
          "type": "uint256"
        }
      ],
      "stateMutability": "view",
      "type": "function"
    },
    {
      "inputs": [
        {
          "internalType": "bytes4",
          "name": "_newOriginChainId",
          "type": "bytes4"
        }
      ],
      "name": "changeOriginChainId",
      "outputs": [
        {
          "internalType": "bool",
          "name": "success",
          "type": "bool"
        }
      ],
      "stateMutability": "nonpayable",
      "type": "function"
    },
    {
      "inputs": [],
      "name": "decimals",
      "outputs": [
        {
          "internalType": "uint8",
          "name": "",
          "type": "uint8"
        }
      ],
      "stateMutability": "pure",
      "type": "function"
    },
    {
      "inputs": [],
      "name": "defaultOperators",
      "outputs": [
        {
          "internalType": "address[]",
          "name": "",
          "type": "address[]"
        }
      ],
      "stateMutability": "view",
      "type": "function"
    },
    {
      "inputs": [],
      "name": "feesManager",
      "outputs": [
        {
          "internalType": "address",
          "name": "",
          "type": "address"
        }
      ],
      "stateMutability": "view",
      "type": "function"
    },
    {
      "inputs": [],
      "name": "getFeesManager",
      "outputs": [
        {
          "internalType": "address",
          "name": "",
          "type": "address"
        }
      ],
      "stateMutability": "view",
      "type": "function"
    },
    {
      "inputs": [],
      "name": "getHubAddr",
      "outputs": [
        {
          "internalType": "address",
          "name": "",
          "type": "address"
        }
      ],
      "stateMutability": "view",
      "type": "function"
    },
    {
      "inputs": [],
      "name": "getLockbox",
      "outputs": [
        {
          "internalType": "address",
          "name": "",
          "type": "address"
        }
      ],
      "stateMutability": "view",
      "type": "function"
    },
    {
      "inputs": [
        {
          "internalType": "address",
          "name": "adapter",
          "type": "address"
        }
      ],
      "name": "getPAM",
      "outputs": [
        {
          "internalType": "address",
          "name": "",
          "type": "address"
        }
      ],
      "stateMutability": "nonpayable",
      "type": "function"
    },
    {
      "inputs": [
        {
          "internalType": "bytes32",
          "name": "role",
          "type": "bytes32"
        }
      ],
      "name": "getRoleAdmin",
      "outputs": [
        {
          "internalType": "bytes32",
          "name": "",
          "type": "bytes32"
        }
      ],
      "stateMutability": "view",
      "type": "function"
    },
    {
      "inputs": [
        {
          "internalType": "bytes32",
          "name": "role",
          "type": "bytes32"
        },
        {
          "internalType": "uint256",
          "name": "index",
          "type": "uint256"
        }
      ],
      "name": "getRoleMember",
      "outputs": [
        {
          "internalType": "address",
          "name": "",
          "type": "address"
        }
      ],
      "stateMutability": "view",
      "type": "function"
    },
    {
      "inputs": [
        {
          "internalType": "bytes32",
          "name": "role",
          "type": "bytes32"
        }
      ],
      "name": "getRoleMemberCount",
      "outputs": [
        {
          "internalType": "uint256",
          "name": "",
          "type": "uint256"
        }
      ],
      "stateMutability": "view",
      "type": "function"
    },
    {
      "inputs": [
        {
          "internalType": "address",
          "name": "_account",
          "type": "address"
        }
      ],
      "name": "grantMinterRole",
      "outputs": [],
      "stateMutability": "nonpayable",
      "type": "function"
    },
    {
      "inputs": [
        {
          "internalType": "bytes32",
          "name": "role",
          "type": "bytes32"
        },
        {
          "internalType": "address",
          "name": "account",
          "type": "address"
        }
      ],
      "name": "grantRole",
      "outputs": [],
      "stateMutability": "nonpayable",
      "type": "function"
    },
    {
      "inputs": [],
      "name": "granularity",
      "outputs": [
        {
          "internalType": "uint256",
          "name": "",
          "type": "uint256"
        }
      ],
      "stateMutability": "view",
      "type": "function"
    },
    {
      "inputs": [],
      "name": "gsnExtraGas",
      "outputs": [
        {
          "internalType": "uint256",
          "name": "",
          "type": "uint256"
        }
      ],
      "stateMutability": "view",
      "type": "function"
    },
    {
      "inputs": [],
      "name": "gsnFeeTarget",
      "outputs": [
        {
          "internalType": "address",
          "name": "",
          "type": "address"
        }
      ],
      "stateMutability": "view",
      "type": "function"
    },
    {
      "inputs": [],
      "name": "gsnTrustedSigner",
      "outputs": [
        {
          "internalType": "address",
          "name": "",
          "type": "address"
        }
      ],
      "stateMutability": "view",
      "type": "function"
    },
    {
      "inputs": [
        {
          "internalType": "address",
          "name": "_account",
          "type": "address"
        }
      ],
      "name": "hasMinterRole",
      "outputs": [
        {
          "internalType": "bool",
          "name": "",
          "type": "bool"
        }
      ],
      "stateMutability": "view",
      "type": "function"
    },
    {
      "inputs": [
        {
          "internalType": "bytes32",
          "name": "role",
          "type": "bytes32"
        },
        {
          "internalType": "address",
          "name": "account",
          "type": "address"
        }
      ],
      "name": "hasRole",
      "outputs": [
        {
          "internalType": "bool",
          "name": "",
          "type": "bool"
        }
      ],
      "stateMutability": "view",
      "type": "function"
    },
    {
      "inputs": [
        {
          "internalType": "string",
          "name": "tokenName",
          "type": "string"
        },
        {
          "internalType": "string",
          "name": "tokenSymbol",
          "type": "string"
        },
        {
          "internalType": "address",
          "name": "defaultAdmin",
          "type": "address"
        },
        {
          "internalType": "bytes4",
          "name": "originChainId",
          "type": "bytes4"
        }
      ],
      "name": "initialize",
      "outputs": [],
      "stateMutability": "nonpayable",
      "type": "function"
    },
    {
      "inputs": [],
      "name": "isLocal",
      "outputs": [
        {
          "internalType": "bool",
          "name": "",
          "type": "bool"
        }
      ],
      "stateMutability": "view",
      "type": "function"
    },
    {
      "inputs": [
        {
          "internalType": "address",
          "name": "operator",
          "type": "address"
        },
        {
          "internalType": "address",
          "name": "tokenHolder",
          "type": "address"
        }
      ],
      "name": "isOperatorFor",
      "outputs": [
        {
          "internalType": "bool",
          "name": "",
          "type": "bool"
        }
      ],
      "stateMutability": "view",
      "type": "function"
    },
    {
      "inputs": [],
      "name": "lockbox",
      "outputs": [
        {
          "internalType": "address",
          "name": "",
          "type": "address"
        }
      ],
      "stateMutability": "view",
      "type": "function"
    },
    {
      "inputs": [
        {
          "internalType": "address",
          "name": "_user",
          "type": "address"
        },
        {
          "internalType": "uint256",
          "name": "_amount",
          "type": "uint256"
        }
      ],
      "name": "mint",
      "outputs": [],
      "stateMutability": "nonpayable",
      "type": "function"
    },
    {
      "inputs": [
        {
          "internalType": "address",
          "name": "_bridge",
          "type": "address"
        }
      ],
      "name": "mintingCurrentLimitOf",
      "outputs": [
        {
          "internalType": "uint256",
          "name": "_limit",
          "type": "uint256"
        }
      ],
      "stateMutability": "view",
      "type": "function"
    },
    {
      "inputs": [
        {
          "internalType": "address",
          "name": "_bridge",
          "type": "address"
        }
      ],
      "name": "mintingMaxLimitOf",
      "outputs": [
        {
          "internalType": "uint256",
          "name": "_limit",
          "type": "uint256"
        }
      ],
      "stateMutability": "view",
      "type": "function"
    },
    {
      "inputs": [],
      "name": "name",
      "outputs": [
        {
          "internalType": "string",
          "name": "",
          "type": "string"
        }
      ],
      "stateMutability": "view",
      "type": "function"
    },
    {
      "inputs": [
        {
          "internalType": "address",
          "name": "account",
          "type": "address"
        },
        {
          "internalType": "uint256",
          "name": "amount",
          "type": "uint256"
        },
        {
          "internalType": "bytes",
          "name": "data",
          "type": "bytes"
        },
        {
          "internalType": "bytes",
          "name": "operatorData",
          "type": "bytes"
        }
      ],
      "name": "operatorBurn",
      "outputs": [],
      "stateMutability": "nonpayable",
      "type": "function"
    },
    {
      "inputs": [
        {
          "internalType": "address",
          "name": "sender",
          "type": "address"
        },
        {
          "internalType": "address",
          "name": "recipient",
          "type": "address"
        },
        {
          "internalType": "uint256",
          "name": "amount",
          "type": "uint256"
        },
        {
          "internalType": "bytes",
          "name": "data",
          "type": "bytes"
        },
        {
          "internalType": "bytes",
          "name": "operatorData",
          "type": "bytes"
        }
      ],
      "name": "operatorSend",
      "outputs": [],
      "stateMutability": "nonpayable",
      "type": "function"
    },
    {
      "inputs": [],
      "name": "owner",
      "outputs": [
        {
          "internalType": "address",
          "name": "",
          "type": "address"
        }
      ],
      "stateMutability": "view",
      "type": "function"
    },
    {
      "inputs": [
        {
          "internalType": "bytes",
          "name": "context",
          "type": "bytes"
        },
        {
          "internalType": "bool",
          "name": "success",
          "type": "bool"
        },
        {
          "internalType": "uint256",
          "name": "actualCharge",
          "type": "uint256"
        },
        {
          "internalType": "bytes32",
          "name": "preRetVal",
          "type": "bytes32"
        }
      ],
      "name": "postRelayedCall",
      "outputs": [],
      "stateMutability": "nonpayable",
      "type": "function"
    },
    {
      "inputs": [
        {
          "internalType": "bytes",
          "name": "context",
          "type": "bytes"
        }
      ],
      "name": "preRelayedCall",
      "outputs": [
        {
          "internalType": "bytes32",
          "name": "",
          "type": "bytes32"
        }
      ],
      "stateMutability": "nonpayable",
      "type": "function"
    },
    {
      "inputs": [],
      "name": "relayHubVersion",
      "outputs": [
        {
          "internalType": "string",
          "name": "",
          "type": "string"
        }
      ],
      "stateMutability": "view",
      "type": "function"
    },
    {
      "inputs": [],
      "name": "renounceOwnership",
      "outputs": [],
      "stateMutability": "nonpayable",
      "type": "function"
    },
    {
      "inputs": [
        {
          "internalType": "bytes32",
          "name": "role",
          "type": "bytes32"
        },
        {
          "internalType": "address",
          "name": "account",
          "type": "address"
        }
      ],
      "name": "renounceRole",
      "outputs": [],
      "stateMutability": "nonpayable",
      "type": "function"
    },
    {
      "inputs": [
        {
          "internalType": "address",
          "name": "_account",
          "type": "address"
        }
      ],
      "name": "revokeMinterRole",
      "outputs": [],
      "stateMutability": "nonpayable",
      "type": "function"
    },
    {
      "inputs": [
        {
          "internalType": "address",
          "name": "operator",
          "type": "address"
        }
      ],
      "name": "revokeOperator",
      "outputs": [],
      "stateMutability": "nonpayable",
      "type": "function"
    },
    {
      "inputs": [
        {
          "internalType": "bytes32",
          "name": "role",
          "type": "bytes32"
        },
        {
          "internalType": "address",
          "name": "account",
          "type": "address"
        }
      ],
      "name": "revokeRole",
      "outputs": [],
      "stateMutability": "nonpayable",
      "type": "function"
    },
    {
      "inputs": [
        {
          "internalType": "address",
          "name": "recipient",
          "type": "address"
        },
        {
          "internalType": "uint256",
          "name": "amount",
          "type": "uint256"
        },
        {
          "internalType": "bytes",
          "name": "data",
          "type": "bytes"
        }
      ],
      "name": "send",
      "outputs": [],
      "stateMutability": "nonpayable",
      "type": "function"
    },
    {
      "inputs": [
        {
          "internalType": "address",
          "name": "adminOperator_",
          "type": "address"
        }
      ],
      "name": "setAdminOperator",
      "outputs": [],
      "stateMutability": "nonpayable",
      "type": "function"
    },
    {
      "inputs": [
        {
          "internalType": "address",
          "name": "_gsnFeeTarget",
          "type": "address"
        }
      ],
      "name": "setFeeTarget",
      "outputs": [],
      "stateMutability": "nonpayable",
      "type": "function"
    },
    {
      "inputs": [
        {
          "internalType": "address",
          "name": "newAddress",
          "type": "address"
        }
      ],
      "name": "setFeesManager",
      "outputs": [],
      "stateMutability": "nonpayable",
      "type": "function"
    },
    {
      "inputs": [
        {
          "internalType": "uint256",
          "name": "_gsnExtraGas",
          "type": "uint256"
        }
      ],
      "name": "setGSNExtraGas",
      "outputs": [],
      "stateMutability": "nonpayable",
      "type": "function"
    },
    {
      "inputs": [
        {
          "internalType": "address",
          "name": "_bridge",
          "type": "address"
        },
        {
          "internalType": "uint256",
          "name": "_mintingLimit",
          "type": "uint256"
        },
        {
          "internalType": "uint256",
          "name": "_burningLimit",
          "type": "uint256"
        }
      ],
      "name": "setLimits",
      "outputs": [],
      "stateMutability": "nonpayable",
      "type": "function"
    },
    {
      "inputs": [
        {
          "internalType": "address",
          "name": "_lockbox",
          "type": "address"
        }
      ],
      "name": "setLockbox",
      "outputs": [],
      "stateMutability": "nonpayable",
      "type": "function"
    },
    {
      "inputs": [
        {
          "internalType": "address",
          "name": "adapterAddress",
          "type": "address"
        },
        {
          "internalType": "address",
          "name": "pamAddress",
          "type": "address"
        }
      ],
      "name": "setPAM",
      "outputs": [],
      "stateMutability": "nonpayable",
      "type": "function"
    },
    {
      "inputs": [
        {
          "internalType": "address",
          "name": "_gsnTrustedSigner",
          "type": "address"
        }
      ],
      "name": "setTrustedSigner",
      "outputs": [],
      "stateMutability": "nonpayable",
      "type": "function"
    },
    {
      "inputs": [],
      "name": "symbol",
      "outputs": [
        {
          "internalType": "string",
          "name": "",
          "type": "string"
        }
      ],
      "stateMutability": "view",
      "type": "function"
    },
    {
      "inputs": [],
      "name": "totalSupply",
      "outputs": [
        {
          "internalType": "uint256",
          "name": "",
          "type": "uint256"
        }
      ],
      "stateMutability": "view",
      "type": "function"
    },
    {
      "inputs": [
        {
          "internalType": "address",
          "name": "recipient",
          "type": "address"
        },
        {
          "internalType": "uint256",
          "name": "amount",
          "type": "uint256"
        }
      ],
      "name": "transfer",
      "outputs": [
        {
          "internalType": "bool",
          "name": "",
          "type": "bool"
        }
      ],
      "stateMutability": "nonpayable",
      "type": "function"
    },
    {
      "inputs": [
        {
          "internalType": "address",
          "name": "holder",
          "type": "address"
        },
        {
          "internalType": "address",
          "name": "recipient",
          "type": "address"
        },
        {
          "internalType": "uint256",
          "name": "amount",
          "type": "uint256"
        }
      ],
      "name": "transferFrom",
      "outputs": [
        {
          "internalType": "bool",
          "name": "",
          "type": "bool"
        }
      ],
      "stateMutability": "nonpayable",
      "type": "function"
    },
    {
      "inputs": [
        {
          "internalType": "address",
          "name": "newOwner",
          "type": "address"
        }
      ],
      "name": "transferOwnership",
      "outputs": [],
      "stateMutability": "nonpayable",
      "type": "function"
    }
  ],
  "bytecode": "0x60806040523480156200001157600080fd5b506188c680620000226000396000f3fe608060405234801561001057600080fd5b50600436106104075760003560e01c806383947ea011610220578063c762819b11610130578063dd62ed3e116100b8578063f2fde38b11610087578063f2fde38b14611f8e578063fad8b32a14611fd2578063fc673c4f14612016578063fc87675414612192578063fe9d9303146121dc57610407565b8063dd62ed3e14611d8d578063e06e0e2214611e05578063e4bf2da614611ee0578063e900a49114611f4457610407565b8063d547741f116100ff578063d547741f14611a9a578063d95b637114611ae8578063dab0252714611b64578063dc3ca1bf14611bae578063dc855e0e14611bf257610407565b8063c762819b146119d2578063ca15c87314611a1c578063cbe1f06c14611a5e578063d539139314611a7c57610407565b80639bf8d82f116101b3578063a9059cbb11610182578063a9059cbb14611671578063ad61ccd5146116d7578063aedef0ae1461175a578063bcc33e9d146117de578063c1eb71371461197a57610407565b80639bf8d82f1461157f5780639dc29fac146115ad578063a08d5654146115fb578063a217fddf1461165357610407565b8063959b8c3f116101ef578063959b8c3f1461137b57806395d89b41146113bf578063998955d3146114425780639bd9bbc61461149a57610407565b806383947ea01461100e5780638da5cb5b146112535780639010d07c1461129d57806391d148541461131557610407565b806336568abe1161031b57806362ad1b83116102ae5780636a3e60fa1161027d5780636a3e60fa14610e4f57806370a0823114610e93578063715018a614610eeb57806374e861d614610ef557806380274db714610f3f57610407565b806362ad1b8314610bcd578063651fd26814610d6957806366cc570214610dc157806369e2f0fb14610e0b57610407565b806340c10f19116102ea57806340c10f1914610ad9578063435350b714610b27578063556f0dc714610b6b57806356a1c70114610b8957610407565b806336568abe1461099f578063367a56ea146109ed578063394f023114610a515780633dd1eb6114610a9557610407565b806318160ddd1161039e578063248a9ca31161036d578063248a9ca3146108025780632c1cad15146108445780632f2ff15d146108a9578063313ce567146108f757806333cb8d591461091b57610407565b806318160ddd146106d05780631c89382a146106ee5780631e35c99a1461073257806323b872dd1461077c57610407565b8063099db017116103da578063099db0171461059e5780630c05f82c146105fa5780630dd85b00146106525780630ee04629146106ae57610407565b806305a9e0731461040c57806306e485381461045657806306fdde03146104b5578063095ea7b314610538575b600080fd5b6104146122a1565b604051808273ffffffffffffffffffffffffffffffffffffffff1673ffffffffffffffffffffffffffffffffffffffff16815260200191505060405180910390f35b61045e6122c8565b6040518080602001828103825283818151815260200191508051906020019060200280838360005b838110156104a1578082015181840152602081019050610486565b505050509050019250505060405180910390f35b6104bd612356565b6040518080602001828103825283818151815260200191508051906020019080838360005b838110156104fd5780820151818401526020810190506104e2565b50505050905090810190601f16801561052a5780820380516001836020036101000a031916815260200191505b509250505060405180910390f35b6105846004803603604081101561054e57600080fd5b81019080803573ffffffffffffffffffffffffffffffffffffffff169060200190929190803590602001909291905050506123f8565b604051808215151515815260200191505060405180910390f35b6105e0600480360360208110156105b457600080fd5b81019080803573ffffffffffffffffffffffffffffffffffffffff16906020019092919050505061241b565b604051808215151515815260200191505060405180910390f35b61063c6004803603602081101561061057600080fd5b81019080803573ffffffffffffffffffffffffffffffffffffffff169060200190929190505050612463565b6040518082815260200191505060405180910390f35b61065a6124b3565b60405180827bffffffffffffffffffffffffffffffffffffffffffffffffffffffff19167bffffffffffffffffffffffffffffffffffffffffffffffffffffffff1916815260200191505060405180910390f35b6106b66124c6565b604051808215151515815260200191505060405180910390f35b6106d861251f565b6040518082815260200191505060405180910390f35b6107306004803603602081101561070457600080fd5b81019080803573ffffffffffffffffffffffffffffffffffffffff169060200190929190505050612529565b005b61073a612735565b604051808273ffffffffffffffffffffffffffffffffffffffff1673ffffffffffffffffffffffffffffffffffffffff16815260200191505060405180910390f35b6107e86004803603606081101561079257600080fd5b81019080803573ffffffffffffffffffffffffffffffffffffffff169060200190929190803573ffffffffffffffffffffffffffffffffffffffff1690602001909291908035906020019092919050505061275f565b604051808215151515815260200191505060405180910390f35b61082e6004803603602081101561081857600080fd5b8101908080359060200190929190505050612963565b6040518082815260200191505060405180910390f35b61088f6004803603602081101561085a57600080fd5b8101908080357bffffffffffffffffffffffffffffffffffffffffffffffffffffffff19169060200190929190505050612983565b604051808215151515815260200191505060405180910390f35b6108f5600480360360408110156108bf57600080fd5b8101908080359060200190929190803573ffffffffffffffffffffffffffffffffffffffff169060200190929190505050612a32565b005b6108ff612abc565b604051808260ff1660ff16815260200191505060405180910390f35b61095d6004803603602081101561093157600080fd5b81019080803573ffffffffffffffffffffffffffffffffffffffff169060200190929190505050612ac5565b604051808273ffffffffffffffffffffffffffffffffffffffff1673ffffffffffffffffffffffffffffffffffffffff16815260200191505060405180910390f35b6109eb600480360360408110156109b557600080fd5b8101908080359060200190929190803573ffffffffffffffffffffffffffffffffffffffff169060200190929190505050612b2f565b005b610a4f60048036036040811015610a0357600080fd5b81019080803573ffffffffffffffffffffffffffffffffffffffff169060200190929190803573ffffffffffffffffffffffffffffffffffffffff169060200190929190505050612bc8565b005b610a9360048036036020811015610a6757600080fd5b81019080803573ffffffffffffffffffffffffffffffffffffffff169060200190929190505050612cfa565b005b610ad760048036036020811015610aab57600080fd5b81019080803573ffffffffffffffffffffffffffffffffffffffff169060200190929190505050612ea4565b005b610b2560048036036040811015610aef57600080fd5b81019080803573ffffffffffffffffffffffffffffffffffffffff16906020019092919080359060200190929190505050612ee6565b005b610b6960048036036020811015610b3d57600080fd5b81019080803573ffffffffffffffffffffffffffffffffffffffff169060200190929190505050612ef5565b005b610b7361304b565b6040518082815260200191505060405180910390f35b610bcb60048036036020811015610b9f57600080fd5b81019080803573ffffffffffffffffffffffffffffffffffffffff169060200190929190505050613054565b005b610d67600480360360a0811015610be357600080fd5b81019080803573ffffffffffffffffffffffffffffffffffffffff169060200190929190803573ffffffffffffffffffffffffffffffffffffffff1690602001909291908035906020019092919080359060200190640100000000811115610c4a57600080fd5b820183602082011115610c5c57600080fd5b80359060200191846001830284011164010000000083111715610c7e57600080fd5b91908080601f016020809104026020016040519081016040528093929190818152602001838380828437600081840152601f19601f82011690508083019250505050505050919291929080359060200190640100000000811115610ce157600080fd5b820183602082011115610cf357600080fd5b80359060200191846001830284011164010000000083111715610d1557600080fd5b91908080601f016020809104026020016040519081016040528093929190818152602001838380828437600081840152601f19601f8201169050808301925050505050505091929192905050506131cd565b005b610dab60048036036020811015610d7f57600080fd5b81019080803573ffffffffffffffffffffffffffffffffffffffff169060200190929190505050613249565b6040518082815260200191505060405180910390f35b610dc9613376565b604051808273ffffffffffffffffffffffffffffffffffffffff1673ffffffffffffffffffffffffffffffffffffffff16815260200191505060405180910390f35b610e4d60048036036020811015610e2157600080fd5b81019080803573ffffffffffffffffffffffffffffffffffffffff16906020019092919050505061339c565b005b610e9160048036036020811015610e6557600080fd5b81019080803573ffffffffffffffffffffffffffffffffffffffff1690602001909291905050506133de565b005b610ed560048036036020811015610ea957600080fd5b81019080803573ffffffffffffffffffffffffffffffffffffffff16906020019092919050505061351f565b6040518082815260200191505060405180910390f35b610ef3613568565b005b610efd6136d8565b604051808273ffffffffffffffffffffffffffffffffffffffff1673ffffffffffffffffffffffffffffffffffffffff16815260200191505060405180910390f35b610ff860048036036020811015610f5557600080fd5b8101908080359060200190640100000000811115610f7257600080fd5b820183602082011115610f8457600080fd5b80359060200191846001830284011164010000000083111715610fa657600080fd5b91908080601f016020809104026020016040519081016040528093929190818152602001838380828437600081840152601f19601f820116905080830192505050505050509192919290505050613702565b6040518082815260200191505060405180910390f35b6111d1600480360361012081101561102557600080fd5b81019080803573ffffffffffffffffffffffffffffffffffffffff169060200190929190803573ffffffffffffffffffffffffffffffffffffffff1690602001909291908035906020019064010000000081111561108257600080fd5b82018360208201111561109457600080fd5b803590602001918460018302840111640100000000831117156110b657600080fd5b91908080601f016020809104026020016040519081016040528093929190818152602001838380828437600081840152601f19601f820116905080830192505050505050509192919290803590602001909291908035906020019092919080359060200190929190803590602001909291908035906020019064010000000081111561114157600080fd5b82018360208201111561115357600080fd5b8035906020019184600183028401116401000000008311171561117557600080fd5b91908080601f016020809104026020016040519081016040528093929190818152602001838380828437600081840152601f19601f8201169050808301925050505050505091929192908035906020019092919050505061379f565b6040518083815260200180602001828103825283818151815260200191508051906020019080838360005b838110156112175780820151818401526020810190506111fc565b50505050905090810190601f1680156112445780820380516001836020036101000a031916815260200191505b50935050505060405180910390f35b61125b613b19565b604051808273ffffffffffffffffffffffffffffffffffffffff1673ffffffffffffffffffffffffffffffffffffffff16815260200191505060405180910390f35b6112d3600480360360408110156112b357600080fd5b810190808035906020019092919080359060200190929190505050613b43565b604051808273ffffffffffffffffffffffffffffffffffffffff1673ffffffffffffffffffffffffffffffffffffffff16815260200191505060405180910390f35b6113616004803603604081101561132b57600080fd5b8101908080359060200190929190803573ffffffffffffffffffffffffffffffffffffffff169060200190929190505050613b75565b604051808215151515815260200191505060405180910390f35b6113bd6004803603602081101561139157600080fd5b81019080803573ffffffffffffffffffffffffffffffffffffffff169060200190929190505050613ba7565b005b6113c7613e1e565b6040518080602001828103825283818151815260200191508051906020019080838360005b838110156114075780820151818401526020810190506113ec565b50505050905090810190601f1680156114345780820380516001836020036101000a031916815260200191505b509250505060405180910390f35b6114846004803603602081101561145857600080fd5b81019080803573ffffffffffffffffffffffffffffffffffffffff169060200190929190505050613ec0565b6040518082815260200191505060405180910390f35b61157d600480360360608110156114b057600080fd5b81019080803573ffffffffffffffffffffffffffffffffffffffff16906020019092919080359060200190929190803590602001906401000000008111156114f757600080fd5b82018360208201111561150957600080fd5b8035906020019184600183028401116401000000008311171561152b57600080fd5b91908080601f016020809104026020016040519081016040528093929190818152602001838380828437600081840152601f19601f820116905080830192505050505050509192919290505050613fed565b005b6115ab6004803603602081101561159557600080fd5b8101908080359060200190929190505050614017565b005b6115f9600480360360408110156115c357600080fd5b81019080803573ffffffffffffffffffffffffffffffffffffffff169060200190929190803590602001909291905050506140d0565b005b6116516004803603606081101561161157600080fd5b81019080803573ffffffffffffffffffffffffffffffffffffffff169060200190929190803590602001909291908035906020019092919050505061411e565b005b61165b61423c565b6040518082815260200191505060405180910390f35b6116bd6004803603604081101561168757600080fd5b81019080803573ffffffffffffffffffffffffffffffffffffffff16906020019092919080359060200190929190505050614243565b604051808215151515815260200191505060405180910390f35b6116df61430d565b6040518080602001828103825283818151815260200191508051906020019080838360005b8381101561171f578082015181840152602081019050611704565b50505050905090810190601f16801561174c5780820380516001836020036101000a031916815260200191505b509250505060405180910390f35b61179c6004803603602081101561177057600080fd5b81019080803573ffffffffffffffffffffffffffffffffffffffff16906020019092919050505061434a565b604051808273ffffffffffffffffffffffffffffffffffffffff1673ffffffffffffffffffffffffffffffffffffffff16815260200191505060405180910390f35b611978600480360360a08110156117f457600080fd5b81019080803573ffffffffffffffffffffffffffffffffffffffff169060200190929190803573ffffffffffffffffffffffffffffffffffffffff169060200190929190803590602001909291908035906020019064010000000081111561185b57600080fd5b82018360208201111561186d57600080fd5b8035906020019184600183028401116401000000008311171561188f57600080fd5b91908080601f016020809104026020016040519081016040528093929190818152602001838380828437600081840152601f19601f820116905080830192505050505050509192919290803590602001906401000000008111156118f257600080fd5b82018360208201111561190457600080fd5b8035906020019184600183028401116401000000008311171561192657600080fd5b91908080601f016020809104026020016040519081016040528093929190818152602001838380828437600081840152601f19601f82011690508083019250505050505050919291929050505061437e565b005b6119bc6004803603602081101561199057600080fd5b81019080803573ffffffffffffffffffffffffffffffffffffffff1690602001909291905050506144e3565b6040518082815260200191505060405180910390f35b6119da614533565b604051808273ffffffffffffffffffffffffffffffffffffffff1673ffffffffffffffffffffffffffffffffffffffff16815260200191505060405180910390f35b611a4860048036036020811015611a3257600080fd5b810190808035906020019092919050505061455e565b6040518082815260200191505060405180910390f35b611a66614585565b6040518082815260200191505060405180910390f35b611a8461458b565b6040518082815260200191505060405180910390f35b611ae660048036036040811015611ab057600080fd5b8101908080359060200190929190803573ffffffffffffffffffffffffffffffffffffffff1690602001909291905050506145c4565b005b611b4a60048036036040811015611afe57600080fd5b81019080803573ffffffffffffffffffffffffffffffffffffffff169060200190929190803573ffffffffffffffffffffffffffffffffffffffff16906020019092919050505061464e565b604051808215151515815260200191505060405180910390f35b611b6c6147ff565b604051808273ffffffffffffffffffffffffffffffffffffffff1673ffffffffffffffffffffffffffffffffffffffff16815260200191505060405180910390f35b611bf060048036036020811015611bc457600080fd5b81019080803573ffffffffffffffffffffffffffffffffffffffff169060200190929190505050614825565b005b611d8b60048036036080811015611c0857600080fd5b8101908080359060200190640100000000811115611c2557600080fd5b820183602082011115611c3757600080fd5b80359060200191846001830284011164010000000083111715611c5957600080fd5b91908080601f016020809104026020016040519081016040528093929190818152602001838380828437600081840152601f19601f82011690508083019250505050505050919291929080359060200190640100000000811115611cbc57600080fd5b820183602082011115611cce57600080fd5b80359060200191846001830284011164010000000083111715611cf057600080fd5b91908080601f016020809104026020016040519081016040528093929190818152602001838380828437600081840152601f19601f820116905080830192505050505050509192919290803573ffffffffffffffffffffffffffffffffffffffff16906020019092919080357bffffffffffffffffffffffffffffffffffffffffffffffffffffffff191690602001909291905050506149bb565b005b611def60048036036040811015611da357600080fd5b81019080803573ffffffffffffffffffffffffffffffffffffffff169060200190929190803573ffffffffffffffffffffffffffffffffffffffff169060200190929190505050614b1a565b6040518082815260200191505060405180910390f35b611ede60048036036080811015611e1b57600080fd5b8101908080359060200190640100000000811115611e3857600080fd5b820183602082011115611e4a57600080fd5b80359060200191846001830284011164010000000083111715611e6c57600080fd5b91908080601f016020809104026020016040519081016040528093929190818152602001838380828437600081840152601f19601f8201169050808301925050505050505091929192908035151590602001909291908035906020019092919080359060200190929190505050614ba1565b005b611f4260048036036040811015611ef657600080fd5b81019080803573ffffffffffffffffffffffffffffffffffffffff169060200190929190803573ffffffffffffffffffffffffffffffffffffffff169060200190929190505050614c3e565b005b611f4c614f03565b604051808273ffffffffffffffffffffffffffffffffffffffff1673ffffffffffffffffffffffffffffffffffffffff16815260200191505060405180910390f35b611fd060048036036020811015611fa457600080fd5b81019080803573ffffffffffffffffffffffffffffffffffffffff169060200190929190505050614f29565b005b61201460048036036020811015611fe857600080fd5b81019080803573ffffffffffffffffffffffffffffffffffffffff16906020019092919050505061511e565b005b6121906004803603608081101561202c57600080fd5b81019080803573ffffffffffffffffffffffffffffffffffffffff169060200190929190803590602001909291908035906020019064010000000081111561207357600080fd5b82018360208201111561208557600080fd5b803590602001918460018302840111640100000000831117156120a757600080fd5b91908080601f016020809104026020016040519081016040528093929190818152602001838380828437600081840152601f19601f8201169050808301925050505050505091929192908035906020019064010000000081111561210a57600080fd5b82018360208201111561211c57600080fd5b8035906020019184600183028401116401000000008311171561213e57600080fd5b91908080601f016020809104026020016040519081016040528093929190818152602001838380828437600081840152601f19601f820116905080830192505050505050509192919290505050615395565b005b61219a61540d565b604051808273ffffffffffffffffffffffffffffffffffffffff1673ffffffffffffffffffffffffffffffffffffffff16815260200191505060405180910390f35b61229f600480360360408110156121f257600080fd5b81019080803590602001909291908035906020019064010000000081111561221957600080fd5b82018360208201111561222b57600080fd5b8035906020019184600183028401116401000000008311171561224d57600080fd5b91908080601f016020809104026020016040519081016040528093929190818152602001838380828437600081840152601f19601f820116905080830192505050505050509192919290505050615433565b005b61010160009054906101000a900473ffffffffffffffffffffffffffffffffffffffff1681565b606060cd80548060200260200160405190810160405280929190818152602001828054801561234c57602002820191906000526020600020905b8160009054906101000a900473ffffffffffffffffffffffffffffffffffffffff1673ffffffffffffffffffffffffffffffffffffffff1681526020019060010190808311612302575b5050505050905090565b606060cb8054600181600116156101000203166002900480601f0160208091040260200160405190810160405280929190818152602001828054600181600116156101000203166002900480156123ee5780601f106123c3576101008083540402835291602001916123ee565b820191906000526020600020905b8154815290600101906020018083116123d157829003601f168201915b5050505050905090565b600080612403615459565b9050612410818585615468565b600191505092915050565b600061245c60405180807f4d494e5445525f524f4c45000000000000000000000000000000000000000000815250600b019050604051809103902083613b75565b9050919050565b600061010060008373ffffffffffffffffffffffffffffffffffffffff1673ffffffffffffffffffffffffffffffffffffffff168152602001908152602001600020600001600201549050919050565b60fe60149054906101000a900460e01b81565b60008073ffffffffffffffffffffffffffffffffffffffff1660ff60009054906101000a900473ffffffffffffffffffffffffffffffffffffffff1673ffffffffffffffffffffffffffffffffffffffff161415905090565b600060ca54905090565b600073ffffffffffffffffffffffffffffffffffffffff1661010160009054906101000a900473ffffffffffffffffffffffffffffffffffffffff1673ffffffffffffffffffffffffffffffffffffffff1614156125c8578061010160006101000a81548173ffffffffffffffffffffffffffffffffffffffff021916908373ffffffffffffffffffffffffffffffffffffffff16021790555061268d565b61010160009054906101000a900473ffffffffffffffffffffffffffffffffffffffff1673ffffffffffffffffffffffffffffffffffffffff163373ffffffffffffffffffffffffffffffffffffffff161461268c576040517f08c379a000000000000000000000000000000000000000000000000000000000815260040180806020018281038252600f8152602001807f4f6e6c79466565734d616e61676572000000000000000000000000000000000081525060200191505060405180910390fd5b5b8061010160006101000a81548173ffffffffffffffffffffffffffffffffffffffff021916908373ffffffffffffffffffffffffffffffffffffffff1602179055507f0a0717c606b1b26e8027bffda59d8c449bcc328be19822c4bfc053ce6d4f293381604051808273ffffffffffffffffffffffffffffffffffffffff1673ffffffffffffffffffffffffffffffffffffffff16815260200191505060405180910390a150565b600060ff60009054906101000a900473ffffffffffffffffffffffffffffffffffffffff16905090565b60008073ffffffffffffffffffffffffffffffffffffffff168373ffffffffffffffffffffffffffffffffffffffff1614156127e6576040517f08c379a00000000000000000000000000000000000000000000000000000000081526004018080602001828103825260248152602001806187596024913960400191505060405180910390fd5b600073ffffffffffffffffffffffffffffffffffffffff168473ffffffffffffffffffffffffffffffffffffffff16141561286c576040517f08c379a00000000000000000000000000000000000000000000000000000000081526004018080602001828103825260268152602001806187f66026913960400191505060405180910390fd5b6000612876615459565b90506128a481868686604051806020016040528060008152506040518060200160405280600081525061565f565b6129578582612952866040518060600160405280602981526020016187cd6029913960d160008c73ffffffffffffffffffffffffffffffffffffffff1673ffffffffffffffffffffffffffffffffffffffff16815260200190815260200160002060008873ffffffffffffffffffffffffffffffffffffffff1673ffffffffffffffffffffffffffffffffffffffff168152602001908152602001600020546159669092919063ffffffff16565b615468565b60019150509392505050565b600060336000838152602001908152602001600020600201549050919050565b60006129996000801b612994615459565b613b75565b612a0b576040517f08c379a00000000000000000000000000000000000000000000000000000000081526004018080602001828103825260168152602001807f43616c6c6572206973206e6f7420616e2061646d696e0000000000000000000081525060200191505060405180910390fd5b8160fe60146101000a81548163ffffffff021916908360e01c021790555060019050919050565b612a596033600084815260200190815260200160002060020154612a54615459565b613b75565b612aae576040517f08c379a000000000000000000000000000000000000000000000000000000000815260040180806020018281038252602f815260200180618515602f913960400191505060405180910390fd5b612ab88282615a20565b5050565b60006012905090565b600061010260008373ffffffffffffffffffffffffffffffffffffffff1673ffffffffffffffffffffffffffffffffffffffff16815260200190815260200160002060009054906101000a900473ffffffffffffffffffffffffffffffffffffffff169050919050565b612b37615459565b73ffffffffffffffffffffffffffffffffffffffff168173ffffffffffffffffffffffffffffffffffffffff1614612bba576040517f08c379a000000000000000000000000000000000000000000000000000000000815260040180806020018281038252602f815260200180618862602f913960400191505060405180910390fd5b612bc48282615ab4565b5050565b612bd0615459565b73ffffffffffffffffffffffffffffffffffffffff16612bee613b19565b73ffffffffffffffffffffffffffffffffffffffff1614612c77576040517f08c379a00000000000000000000000000000000000000000000000000000000081526004018080602001828103825260208152602001807f4f776e61626c653a2063616c6c6572206973206e6f7420746865206f776e657281525060200191505060405180910390fd5b8061010260008473ffffffffffffffffffffffffffffffffffffffff1673ffffffffffffffffffffffffffffffffffffffff16815260200190815260200160002060006101000a81548173ffffffffffffffffffffffffffffffffffffffff021916908373ffffffffffffffffffffffffffffffffffffffff1602179055505050565b60fe60009054906101000a900473ffffffffffffffffffffffffffffffffffffffff1673ffffffffffffffffffffffffffffffffffffffff16612d3b615459565b73ffffffffffffffffffffffffffffffffffffffff1614612da7576040517f08c379a00000000000000000000000000000000000000000000000000000000081526004018080602001828103825260358152602001806187246035913960400191505060405180910390fd5b7fe8fdc5340d9288e129a7c6af86dc4002f708091280d69f89583f7e6349c0a8d660fe60009054906101000a900473ffffffffffffffffffffffffffffffffffffffff1682604051808373ffffffffffffffffffffffffffffffffffffffff1673ffffffffffffffffffffffffffffffffffffffff1681526020018273ffffffffffffffffffffffffffffffffffffffff1673ffffffffffffffffffffffffffffffffffffffff1681526020019250505060405180910390a18060fe60006101000a81548173ffffffffffffffffffffffffffffffffffffffff021916908373ffffffffffffffffffffffffffffffffffffffff16021790555050565b612ee360405180807f4d494e5445525f524f4c45000000000000000000000000000000000000000000815250600b019050604051809103902082612a32565b50565b612ef1338383615b48565b5050565b612efd615459565b73ffffffffffffffffffffffffffffffffffffffff16612f1b613b19565b73ffffffffffffffffffffffffffffffffffffffff1614612fa4576040517f08c379a00000000000000000000000000000000000000000000000000000000081526004018080602001828103825260208152602001807f4f776e61626c653a2063616c6c6572206973206e6f7420746865206f776e657281525060200191505060405180910390fd5b8060ff60006101000a81548173ffffffffffffffffffffffffffffffffffffffff021916908373ffffffffffffffffffffffffffffffffffffffff1602179055507ffa2e15ea41196e438f0593ecdd6036acd83bdfcd39d627b77c17eab43f376a3981604051808273ffffffffffffffffffffffffffffffffffffffff1673ffffffffffffffffffffffffffffffffffffffff16815260200191505060405180910390a150565b60006001905090565b61305c615459565b73ffffffffffffffffffffffffffffffffffffffff1661307a613b19565b73ffffffffffffffffffffffffffffffffffffffff1614613103576040517f08c379a00000000000000000000000000000000000000000000000000000000081526004018080602001828103825260208152602001807f4f776e61626c653a2063616c6c6572206973206e6f7420746865206f776e657281525060200191505060405180910390fd5b600073ffffffffffffffffffffffffffffffffffffffff168173ffffffffffffffffffffffffffffffffffffffff161415613189576040517f08c379a00000000000000000000000000000000000000000000000000000000081526004018080602001828103825260228152602001806185d86022913960400191505060405180910390fd5b8060fb60006101000a81548173ffffffffffffffffffffffffffffffffffffffff021916908373ffffffffffffffffffffffffffffffffffffffff16021790555050565b6131de6131d8615459565b8661464e565b613233576040517f08c379a000000000000000000000000000000000000000000000000000000000815260040180806020018281038252602c8152602001806187a1602c913960400191505060405180910390fd5b61324285858585856001615c5b565b5050505050565b600061336f61010060008473ffffffffffffffffffffffffffffffffffffffff1673ffffffffffffffffffffffffffffffffffffffff1681526020019081526020016000206000016003015461010060008573ffffffffffffffffffffffffffffffffffffffff1673ffffffffffffffffffffffffffffffffffffffff1681526020019081526020016000206000016002015461010060008673ffffffffffffffffffffffffffffffffffffffff1673ffffffffffffffffffffffffffffffffffffffff1681526020019081526020016000206000016000015461010060008773ffffffffffffffffffffffffffffffffffffffff1673ffffffffffffffffffffffffffffffffffffffff16815260200190815260200160002060000160010154615da7565b9050919050565b60ff60009054906101000a900473ffffffffffffffffffffffffffffffffffffffff1681565b6133db60405180807f4d494e5445525f524f4c45000000000000000000000000000000000000000000815250600b0190506040518091039020826145c4565b50565b600060019054906101000a900460ff16806133fd57506133fc615e0b565b5b8061341457506000809054906101000a900460ff16155b613469576040517f08c379a000000000000000000000000000000000000000000000000000000000815260040180806020018281038252602e8152602001806186b3602e913960400191505060405180910390fd5b60008060019054906101000a900460ff1615905080156134b9576001600060016101000a81548160ff02191690831515021790555060016000806101000a81548160ff0219169083151502179055505b8160fe60006101000a81548173ffffffffffffffffffffffffffffffffffffffff021916908373ffffffffffffffffffffffffffffffffffffffff160217905550801561351b5760008060016101000a81548160ff0219169083151502179055505b5050565b600060c960008373ffffffffffffffffffffffffffffffffffffffff1673ffffffffffffffffffffffffffffffffffffffff168152602001908152602001600020549050919050565b613570615459565b73ffffffffffffffffffffffffffffffffffffffff1661358e613b19565b73ffffffffffffffffffffffffffffffffffffffff1614613617576040517f08c379a00000000000000000000000000000000000000000000000000000000081526004018080602001828103825260208152602001807f4f776e61626c653a2063616c6c6572206973206e6f7420746865206f776e657281525060200191505060405180910390fd5b600073ffffffffffffffffffffffffffffffffffffffff16606560009054906101000a900473ffffffffffffffffffffffffffffffffffffffff1673ffffffffffffffffffffffffffffffffffffffff167f8be0079c531659141344cd1fd0a4f28419497f9722a3daafe3b4186f6b6457e060405160405180910390a36000606560006101000a81548173ffffffffffffffffffffffffffffffffffffffff021916908373ffffffffffffffffffffffffffffffffffffffff160217905550565b6000609760009054906101000a900473ffffffffffffffffffffffffffffffffffffffff16905090565b600061370c6136d8565b73ffffffffffffffffffffffffffffffffffffffff163373ffffffffffffffffffffffffffffffffffffffff161461378f576040517f08c379a000000000000000000000000000000000000000000000000000000000815260040180806020018281038252602481526020018061877d6024913960400191505060405180910390fd5b61379882615e1c565b9050919050565b60006060600060608580602001905160408110156137bc57600080fd5b8101908080519060200190929190805160405193929190846401000000008211156137e657600080fd5b838201915060208201858111156137fc57600080fd5b825186600182028301116401000000008211171561381957600080fd5b8083526020830192505050908051906020019080838360005b8381101561384d578082015181840152602081019050613832565b50505050905090810190601f16801561387a5780820380516001836020036101000a031916815260200191505b50604052505050915091506060828e8e8e8e8e8e8e6138976136d8565b30604051602001808b81526020018a73ffffffffffffffffffffffffffffffffffffffff1673ffffffffffffffffffffffffffffffffffffffff1660601b81526014018973ffffffffffffffffffffffffffffffffffffffff1673ffffffffffffffffffffffffffffffffffffffff1660601b815260140188805190602001908083835b6020831061393e578051825260208201915060208101905060208303925061391b565b6001836020036101000a0380198251168184511680821785525050505050509050018781526020018681526020018581526020018481526020018373ffffffffffffffffffffffffffffffffffffffff1673ffffffffffffffffffffffffffffffffffffffff1660601b81526014018273ffffffffffffffffffffffffffffffffffffffff1673ffffffffffffffffffffffffffffffffffffffff1660601b81526014019a5050505050505050505050604051602081830303815290604052905060fb60009054906101000a900473ffffffffffffffffffffffffffffffffffffffff1673ffffffffffffffffffffffffffffffffffffffff16613a5a83613a4c8480519060200120615e23565b615e7b90919063ffffffff16565b73ffffffffffffffffffffffffffffffffffffffff161415613aee57613ae2838e8d8d604051602001808581526020018473ffffffffffffffffffffffffffffffffffffffff1673ffffffffffffffffffffffffffffffffffffffff168152602001838152602001828152602001945050505050604051602081830303815290604052615f28565b94509450505050613b0b565b613b0360006001811115613afe57fe5b615f38565b945094505050505b995099975050505050505050565b6000606560009054906101000a900473ffffffffffffffffffffffffffffffffffffffff16905090565b6000613b6d8260336000868152602001908152602001600020600001615f5990919063ffffffff16565b905092915050565b6000613b9f8260336000868152602001908152602001600020600001615f7390919063ffffffff16565b905092915050565b8073ffffffffffffffffffffffffffffffffffffffff16613bc6615459565b73ffffffffffffffffffffffffffffffffffffffff161415613c33576040517f08c379a000000000000000000000000000000000000000000000000000000000815260040180806020018281038252602481526020018061861c6024913960400191505060405180910390fd5b60ce60008273ffffffffffffffffffffffffffffffffffffffff1673ffffffffffffffffffffffffffffffffffffffff16815260200190815260200160002060009054906101000a900460ff1615613d1d5760d06000613c91615459565b73ffffffffffffffffffffffffffffffffffffffff1673ffffffffffffffffffffffffffffffffffffffff16815260200190815260200160002060008273ffffffffffffffffffffffffffffffffffffffff1673ffffffffffffffffffffffffffffffffffffffff16815260200190815260200160002060006101000a81549060ff0219169055613dba565b600160cf6000613d2b615459565b73ffffffffffffffffffffffffffffffffffffffff1673ffffffffffffffffffffffffffffffffffffffff16815260200190815260200160002060008373ffffffffffffffffffffffffffffffffffffffff1673ffffffffffffffffffffffffffffffffffffffff16815260200190815260200160002060006101000a81548160ff0219169083151502179055505b613dc2615459565b73ffffffffffffffffffffffffffffffffffffffff168173ffffffffffffffffffffffffffffffffffffffff167ff4caeb2d6ca8932a215a353d0703c326ec2d81fc68170f320eb2ab49e9df61f960405160405180910390a350565b606060cc8054600181600116156101000203166002900480601f016020809104026020016040519081016040528092919081815260200182805460018160011615610100020316600290048015613eb65780601f10613e8b57610100808354040283529160200191613eb6565b820191906000526020600020905b815481529060010190602001808311613e9957829003601f168201915b5050505050905090565b6000613fe661010060008473ffffffffffffffffffffffffffffffffffffffff1673ffffffffffffffffffffffffffffffffffffffff1681526020019081526020016000206004016003015461010060008573ffffffffffffffffffffffffffffffffffffffff1673ffffffffffffffffffffffffffffffffffffffff1681526020019081526020016000206004016002015461010060008673ffffffffffffffffffffffffffffffffffffffff1673ffffffffffffffffffffffffffffffffffffffff1681526020019081526020016000206004016000015461010060008773ffffffffffffffffffffffffffffffffffffffff1673ffffffffffffffffffffffffffffffffffffffff16815260200190815260200160002060040160010154615da7565b9050919050565b614012613ff8615459565b848484604051806020016040528060008152506001615c5b565b505050565b61401f615459565b73ffffffffffffffffffffffffffffffffffffffff1661403d613b19565b73ffffffffffffffffffffffffffffffffffffffff16146140c6576040517f08c379a00000000000000000000000000000000000000000000000000000000081526004018080602001828103825260208152602001807f4f776e61626c653a2063616c6c6572206973206e6f7420746865206f776e657281525060200191505060405180910390fd5b8060fd8190555050565b8173ffffffffffffffffffffffffffffffffffffffff163373ffffffffffffffffffffffffffffffffffffffff161461410f5761410e823383615fa3565b5b61411a33838361603a565b5050565b614126615459565b73ffffffffffffffffffffffffffffffffffffffff16614144613b19565b73ffffffffffffffffffffffffffffffffffffffff16146141cd576040517f08c379a00000000000000000000000000000000000000000000000000000000081526004018080602001828103825260208152602001807f4f776e61626c653a2063616c6c6572206973206e6f7420746865206f776e657281525060200191505060405180910390fd5b6141d783836163a9565b6141e18382616549565b8273ffffffffffffffffffffffffffffffffffffffff167f93f3bbfe8cfb354ec059175107653f49f6eb479a8622a7d83866ea015435c9448383604051808381526020018281526020019250505060405180910390a2505050565b6000801b81565b60008073ffffffffffffffffffffffffffffffffffffffff168373ffffffffffffffffffffffffffffffffffffffff1614156142ca576040517f08c379a00000000000000000000000000000000000000000000000000000000081526004018080602001828103825260248152602001806187596024913960400191505060405180910390fd5b60006142d4615459565b905061430281828686604051806020016040528060008152506040518060200160405280600081525061565f565b600191505092915050565b60606040518060400160405280600581526020017f312e302e30000000000000000000000000000000000000000000000000000000815250905090565b6101026020528060005260406000206000915054906101000a900473ffffffffffffffffffffffffffffffffffffffff1681565b60fe60009054906101000a900473ffffffffffffffffffffffffffffffffffffffff1673ffffffffffffffffffffffffffffffffffffffff166143bf615459565b73ffffffffffffffffffffffffffffffffffffffff1614614448576040517f08c379a00000000000000000000000000000000000000000000000000000000081526004018080602001828103825260208152602001807f63616c6c6572206973206e6f74207468652061646d696e206f70657261746f7281525060200191505060405180910390fd5b61445785858585856000615c5b565b7fb22a57ba0314fafe219dc14abcf1f22e86e6e82d599c0c31177a2d7c2e1b17e160fe60009054906101000a900473ffffffffffffffffffffffffffffffffffffffff16604051808273ffffffffffffffffffffffffffffffffffffffff1673ffffffffffffffffffffffffffffffffffffffff16815260200191505060405180910390a15050505050565b600061010060008373ffffffffffffffffffffffffffffffffffffffff1673ffffffffffffffffffffffffffffffffffffffff168152602001908152602001600020600401600201549050919050565b600061010160009054906101000a900473ffffffffffffffffffffffffffffffffffffffff16905090565b600061457e603360008481526020019081526020016000206000016166e9565b9050919050565b60fd5481565b60405180807f4d494e5445525f524f4c45000000000000000000000000000000000000000000815250600b019050604051809103902081565b6145eb60336000848152602001908152602001600020600201546145e6615459565b613b75565b614640576040517f08c379a00000000000000000000000000000000000000000000000000000000081526004018080602001828103825260308152602001806186626030913960400191505060405180910390fd5b61464a8282615ab4565b5050565b60008173ffffffffffffffffffffffffffffffffffffffff168373ffffffffffffffffffffffffffffffffffffffff161480614766575060ce60008473ffffffffffffffffffffffffffffffffffffffff1673ffffffffffffffffffffffffffffffffffffffff16815260200190815260200160002060009054906101000a900460ff168015614765575060d060008373ffffffffffffffffffffffffffffffffffffffff1673ffffffffffffffffffffffffffffffffffffffff16815260200190815260200160002060008473ffffffffffffffffffffffffffffffffffffffff1673ffffffffffffffffffffffffffffffffffffffff16815260200190815260200160002060009054906101000a900460ff16155b5b806147f7575060cf60008373ffffffffffffffffffffffffffffffffffffffff1673ffffffffffffffffffffffffffffffffffffffff16815260200190815260200160002060008473ffffffffffffffffffffffffffffffffffffffff1673ffffffffffffffffffffffffffffffffffffffff16815260200190815260200160002060009054906101000a900460ff165b905092915050565b60fc60009054906101000a900473ffffffffffffffffffffffffffffffffffffffff1681565b61482d615459565b73ffffffffffffffffffffffffffffffffffffffff1661484b613b19565b73ffffffffffffffffffffffffffffffffffffffff16146148d4576040517f08c379a00000000000000000000000000000000000000000000000000000000081526004018080602001828103825260208152602001807f4f776e61626c653a2063616c6c6572206973206e6f7420746865206f776e657281525060200191505060405180910390fd5b600073ffffffffffffffffffffffffffffffffffffffff168173ffffffffffffffffffffffffffffffffffffffff161415614977576040517f08c379a000000000000000000000000000000000000000000000000000000000815260040180806020018281038252601e8152602001807f6665652074617267657420697320746865207a65726f2061646472657373000081525060200191505060405180910390fd5b8060fc60006101000a81548173ffffffffffffffffffffffffffffffffffffffff021916908373ffffffffffffffffffffffffffffffffffffffff16021790555050565b600060019054906101000a900460ff16806149da57506149d9615e0b565b5b806149f157506000809054906101000a900460ff16155b614a46576040517f08c379a000000000000000000000000000000000000000000000000000000000815260040180806020018281038252602e8152602001806186b3602e913960400191505060405180910390fd5b60008060019054906101000a900460ff161590508015614a96576001600060016101000a81548160ff02191690831515021790555060016000806101000a81548160ff0219169083151502179055505b6060614aa06166fe565b614aa861680d565b614ab386868361691c565b614abd8485614c3e565b614ac6846133de565b614ad36000801b85616a31565b8260fe60146101000a81548163ffffffff021916908360e01c0217905550508015614b135760008060016101000a81548160ff0219169083151502179055505b5050505050565b600060d160008473ffffffffffffffffffffffffffffffffffffffff1673ffffffffffffffffffffffffffffffffffffffff16815260200190815260200160002060008373ffffffffffffffffffffffffffffffffffffffff1673ffffffffffffffffffffffffffffffffffffffff16815260200190815260200160002054905092915050565b614ba96136d8565b73ffffffffffffffffffffffffffffffffffffffff163373ffffffffffffffffffffffffffffffffffffffff1614614c2c576040517f08c379a000000000000000000000000000000000000000000000000000000000815260040180806020018281038252602481526020018061877d6024913960400191505060405180910390fd5b614c3884848484616a3f565b50505050565b600060019054906101000a900460ff1680614c5d5750614c5c615e0b565b5b80614c7457506000809054906101000a900460ff16155b614cc9576040517f08c379a000000000000000000000000000000000000000000000000000000000815260040180806020018281038252602e8152602001806186b3602e913960400191505060405180910390fd5b60008060019054906101000a900460ff161590508015614d19576001600060016101000a81548160ff02191690831515021790555060016000806101000a81548160ff0219169083151502179055505b614d21616b5f565b614d296166fe565b600073ffffffffffffffffffffffffffffffffffffffff168373ffffffffffffffffffffffffffffffffffffffff161415614daf576040517f08c379a00000000000000000000000000000000000000000000000000000000081526004018080602001828103825260228152602001806185d86022913960400191505060405180910390fd5b8260fb60006101000a81548173ffffffffffffffffffffffffffffffffffffffff021916908373ffffffffffffffffffffffffffffffffffffffff160217905550600073ffffffffffffffffffffffffffffffffffffffff168273ffffffffffffffffffffffffffffffffffffffff161415614e93576040517f08c379a000000000000000000000000000000000000000000000000000000000815260040180806020018281038252601e8152602001807f6665652074617267657420697320746865207a65726f2061646472657373000081525060200191505060405180910390fd5b8160fc60006101000a81548173ffffffffffffffffffffffffffffffffffffffff021916908373ffffffffffffffffffffffffffffffffffffffff160217905550619c4060fd819055508015614efe5760008060016101000a81548160ff0219169083151502179055505b505050565b60fe60009054906101000a900473ffffffffffffffffffffffffffffffffffffffff1681565b614f31615459565b73ffffffffffffffffffffffffffffffffffffffff16614f4f613b19565b73ffffffffffffffffffffffffffffffffffffffff1614614fd8576040517f08c379a00000000000000000000000000000000000000000000000000000000081526004018080602001828103825260208152602001807f4f776e61626c653a2063616c6c6572206973206e6f7420746865206f776e657281525060200191505060405180910390fd5b600073ffffffffffffffffffffffffffffffffffffffff168173ffffffffffffffffffffffffffffffffffffffff16141561505e576040517f08c379a00000000000000000000000000000000000000000000000000000000081526004018080602001828103825260268152602001806185b26026913960400191505060405180910390fd5b8073ffffffffffffffffffffffffffffffffffffffff16606560009054906101000a900473ffffffffffffffffffffffffffffffffffffffff1673ffffffffffffffffffffffffffffffffffffffff167f8be0079c531659141344cd1fd0a4f28419497f9722a3daafe3b4186f6b6457e060405160405180910390a380606560006101000a81548173ffffffffffffffffffffffffffffffffffffffff021916908373ffffffffffffffffffffffffffffffffffffffff16021790555050565b615126615459565b73ffffffffffffffffffffffffffffffffffffffff168173ffffffffffffffffffffffffffffffffffffffff1614156151aa576040517f08c379a00000000000000000000000000000000000000000000000000000000081526004018080602001828103825260218152602001806186926021913960400191505060405180910390fd5b60ce60008273ffffffffffffffffffffffffffffffffffffffff1673ffffffffffffffffffffffffffffffffffffffff16815260200190815260200160002060009054906101000a900460ff161561529d57600160d0600061520a615459565b73ffffffffffffffffffffffffffffffffffffffff1673ffffffffffffffffffffffffffffffffffffffff16815260200190815260200160002060008373ffffffffffffffffffffffffffffffffffffffff1673ffffffffffffffffffffffffffffffffffffffff16815260200190815260200160002060006101000a81548160ff021916908315150217905550615331565b60cf60006152a9615459565b73ffffffffffffffffffffffffffffffffffffffff1673ffffffffffffffffffffffffffffffffffffffff16815260200190815260200160002060008273ffffffffffffffffffffffffffffffffffffffff1673ffffffffffffffffffffffffffffffffffffffff16815260200190815260200160002060006101000a81549060ff02191690555b615339615459565b73ffffffffffffffffffffffffffffffffffffffff168173ffffffffffffffffffffffffffffffffffffffff167f50546e66e5f44d728365dc3908c63bc5cfeeab470722c1677e3073a6ac294aa160405160405180910390a350565b6153a66153a0615459565b8561464e565b6153fb576040517f08c379a000000000000000000000000000000000000000000000000000000000815260040180806020018281038252602c8152602001806187a1602c913960400191505060405180910390fd5b61540784848484616c6e565b50505050565b60fb60009054906101000a900473ffffffffffffffffffffffffffffffffffffffff1681565b61545561543e615459565b838360405180602001604052806000815250616c6e565b5050565b6000615463616f76565b905090565b600073ffffffffffffffffffffffffffffffffffffffff168373ffffffffffffffffffffffffffffffffffffffff1614156154ee576040517f08c379a00000000000000000000000000000000000000000000000000000000081526004018080602001828103825260258152602001806185446025913960400191505060405180910390fd5b600073ffffffffffffffffffffffffffffffffffffffff168273ffffffffffffffffffffffffffffffffffffffff161415615574576040517f08c379a000000000000000000000000000000000000000000000000000000000815260040180806020018281038252602381526020018061883f6023913960400191505060405180910390fd5b8060d160008573ffffffffffffffffffffffffffffffffffffffff1673ffffffffffffffffffffffffffffffffffffffff16815260200190815260200160002060008473ffffffffffffffffffffffffffffffffffffffff1673ffffffffffffffffffffffffffffffffffffffff168152602001908152602001600020819055508173ffffffffffffffffffffffffffffffffffffffff168373ffffffffffffffffffffffffffffffffffffffff167f8c5be1e5ebec7d5bd14f71427d1e84f3dd0314c0f7b2291e5b200ac8c7c3b925836040518082815260200191505060405180910390a3505050565b6156cb8360405180606001604052806027815260200161858b6027913960c960008973ffffffffffffffffffffffffffffffffffffffff1673ffffffffffffffffffffffffffffffffffffffff168152602001908152602001600020546159669092919063ffffffff16565b60c960008773ffffffffffffffffffffffffffffffffffffffff1673ffffffffffffffffffffffffffffffffffffffff168152602001908152602001600020819055506157608360c960008773ffffffffffffffffffffffffffffffffffffffff1673ffffffffffffffffffffffffffffffffffffffff16815260200190815260200160002054616fc890919063ffffffff16565b60c960008673ffffffffffffffffffffffffffffffffffffffff1673ffffffffffffffffffffffffffffffffffffffff168152602001908152602001600020819055508373ffffffffffffffffffffffffffffffffffffffff168573ffffffffffffffffffffffffffffffffffffffff168773ffffffffffffffffffffffffffffffffffffffff167f06b541ddaa720db2b10a4d0cdac39b8d360425fc073085fac19bc82614677987868686604051808481526020018060200180602001838103835285818151815260200191508051906020019080838360005b8381101561585657808201518184015260208101905061583b565b50505050905090810190601f1680156158835780820380516001836020036101000a031916815260200191505b50838103825284818151815260200191508051906020019080838360005b838110156158bc5780820151818401526020810190506158a1565b50505050905090810190601f1680156158e95780820380516001836020036101000a031916815260200191505b509550505050505060405180910390a48373ffffffffffffffffffffffffffffffffffffffff168573ffffffffffffffffffffffffffffffffffffffff167fddf252ad1be2c89b69c2b068fc378daa952ba7f163c4a11628f55a4df523b3ef856040518082815260200191505060405180910390a3505050505050565b6000838311158290615a13576040517f08c379a00000000000000000000000000000000000000000000000000000000081526004018080602001828103825283818151815260200191508051906020019080838360005b838110156159d85780820151818401526020810190506159bd565b50505050905090810190601f168015615a055780820380516001836020036101000a031916815260200191505b509250505060405180910390fd5b5082840390509392505050565b615a48816033600085815260200190815260200160002060000161705090919063ffffffff16565b15615ab057615a55615459565b73ffffffffffffffffffffffffffffffffffffffff168173ffffffffffffffffffffffffffffffffffffffff16837f2f8788117e7eff1d82e926ec794901d17c78024a50270940304540a733656f0d60405160405180910390a45b5050565b615adc816033600085815260200190815260200160002060000161708090919063ffffffff16565b15615b4457615ae9615459565b73ffffffffffffffffffffffffffffffffffffffff168173ffffffffffffffffffffffffffffffffffffffff16837ff6391f5c32d9c69d2a47ea670b442974b53935d1edc7fd64eb21e047a839171b60405160405180910390a45b5050565b60ff60009054906101000a900473ffffffffffffffffffffffffffffffffffffffff1673ffffffffffffffffffffffffffffffffffffffff168373ffffffffffffffffffffffffffffffffffffffff1614615c2c576000615ba884613249565b905081811015615c20576040517f08c379a000000000000000000000000000000000000000000000000000000000815260040180806020018281038252601b8152602001807f495845524332305f4e6f7448696768456e6f7567684c696d697473000000000081525060200191505060405180910390fd5b615c2a84836170b0565b505b615c568282604051806020016040528060008152506040518060200160405280600081525061715a565b505050565b600073ffffffffffffffffffffffffffffffffffffffff168673ffffffffffffffffffffffffffffffffffffffff161415615ce1576040517f08c379a00000000000000000000000000000000000000000000000000000000081526004018080602001828103825260228152602001806185696022913960400191505060405180910390fd5b600073ffffffffffffffffffffffffffffffffffffffff168573ffffffffffffffffffffffffffffffffffffffff161415615d84576040517f08c379a00000000000000000000000000000000000000000000000000000000081526004018080602001828103825260208152602001807f4552433737373a2073656e6420746f20746865207a65726f206164647265737381525060200191505060405180910390fd5b6000615d8e615459565b9050615d9e81888888888861565f565b50505050505050565b600084905083811415615dbc57809050615e03565b4262015180840111615dd057839050615e02565b426201518084011115615e015760008342039050600083820283019050858111615dfa5780615dfc565b855b925050505b5b5b949350505050565b6000615e1630617326565b15905090565b6000919050565b60008160405160200180807f19457468657265756d205369676e6564204d6573736167653a0a333200000000815250601c01828152602001915050604051602081830303815290604052805190602001209050919050565b60006041825114615ef4576040517f08c379a000000000000000000000000000000000000000000000000000000000815260040180806020018281038252601f8152602001807f45434453413a20696e76616c6964207369676e6174757265206c656e6774680081525060200191505060405180910390fd5b60008060006020850151925060408501519150606085015160001a9050615f1d86828585617339565b935050505092915050565b6000606060008391509150915091565b6000606082600b016040518060200160405280600081525091509150915091565b6000615f68836000018361753b565b60001c905092915050565b6000615f9b836000018373ffffffffffffffffffffffffffffffffffffffff1660001b6175be565b905092915050565b6000615faf8484614b1a565b905081811015616027576040517f08c379a000000000000000000000000000000000000000000000000000000000815260040180806020018281038252601e8152602001807f4552433737373a20696e73756666696369656e7420616c6c6f77616e6365000081525060200191505060405180910390fd5b6160348484848403615468565b50505050565b600061010160009054906101000a900473ffffffffffffffffffffffffffffffffffffffff1673ffffffffffffffffffffffffffffffffffffffff16638b28ab1e30846040518363ffffffff1660e01b8152600401808373ffffffffffffffffffffffffffffffffffffffff1673ffffffffffffffffffffffffffffffffffffffff1681526020018281526020019250505060206040518083038186803b1580156160e457600080fd5b505afa1580156160f8573d6000803e3d6000fd5b505050506040513d602081101561610e57600080fd5b8101908080519060200190929190505050905081811115616197576040517f08c379a00000000000000000000000000000000000000000000000000000000081526004018080602001828103825260128152602001807f556e73756666696369656e74416d6f756e74000000000000000000000000000081525060200191505060405180910390fd5b6000818303905060ff60009054906101000a900473ffffffffffffffffffffffffffffffffffffffff1673ffffffffffffffffffffffffffffffffffffffff168573ffffffffffffffffffffffffffffffffffffffff16146162825760006161fe86613ec0565b905081811015616276576040517f08c379a000000000000000000000000000000000000000000000000000000000815260040180806020018281038252601b8152602001807f495845524332305f4e6f7448696768456e6f7567684c696d697473000000000081525060200191505060405180910390fd5b61628086836175e1565b505b61010160009054906101000a900473ffffffffffffffffffffffffffffffffffffffff1673ffffffffffffffffffffffffffffffffffffffff16632b1e63d93330856040518463ffffffff1660e01b8152600401808473ffffffffffffffffffffffffffffffffffffffff1673ffffffffffffffffffffffffffffffffffffffff1681526020018373ffffffffffffffffffffffffffffffffffffffff1673ffffffffffffffffffffffffffffffffffffffff1681526020018281526020019350505050600060405180830381600087803b15801561636057600080fd5b505af1158015616374573d6000803e3d6000fd5b505050506163a284826040518060200160405280600081525060405180602001604052806000815250616c6e565b5050505050565b600061010060008473ffffffffffffffffffffffffffffffffffffffff1673ffffffffffffffffffffffffffffffffffffffff16815260200190815260200160002060000160020154905060006163ff84613249565b90508261010060008673ffffffffffffffffffffffffffffffffffffffff1673ffffffffffffffffffffffffffffffffffffffff1681526020019081526020016000206000016002018190555061645783838361768b565b61010060008673ffffffffffffffffffffffffffffffffffffffff1673ffffffffffffffffffffffffffffffffffffffff168152602001908152602001600020600001600301819055506201518083816164ad57fe5b0461010060008673ffffffffffffffffffffffffffffffffffffffff1673ffffffffffffffffffffffffffffffffffffffff168152602001908152602001600020600001600101819055504261010060008673ffffffffffffffffffffffffffffffffffffffff1673ffffffffffffffffffffffffffffffffffffffff1681526020019081526020016000206000016000018190555050505050565b600061010060008473ffffffffffffffffffffffffffffffffffffffff1673ffffffffffffffffffffffffffffffffffffffff168152602001908152602001600020600401600201549050600061659f84613ec0565b90508261010060008673ffffffffffffffffffffffffffffffffffffffff1673ffffffffffffffffffffffffffffffffffffffff168152602001908152602001600020600401600201819055506165f783838361768b565b61010060008673ffffffffffffffffffffffffffffffffffffffff1673ffffffffffffffffffffffffffffffffffffffff1681526020019081526020016000206004016003018190555062015180838161664d57fe5b0461010060008673ffffffffffffffffffffffffffffffffffffffff1673ffffffffffffffffffffffffffffffffffffffff168152602001908152602001600020600401600101819055504261010060008673ffffffffffffffffffffffffffffffffffffffff1673ffffffffffffffffffffffffffffffffffffffff1681526020019081526020016000206004016000018190555050505050565b60006166f7826000016176c7565b9050919050565b600060019054906101000a900460ff168061671d575061671c615e0b565b5b8061673457506000809054906101000a900460ff16155b616789576040517f08c379a000000000000000000000000000000000000000000000000000000000815260040180806020018281038252602e8152602001806186b3602e913960400191505060405180910390fd5b60008060019054906101000a900460ff1615905080156167d9576001600060016101000a81548160ff02191690831515021790555060016000806101000a81548160ff0219169083151502179055505b6167e16176d8565b6167e96177d7565b801561680a5760008060016101000a81548160ff0219169083151502179055505b50565b600060019054906101000a900460ff168061682c575061682b615e0b565b5b8061684357506000809054906101000a900460ff16155b616898576040517f08c379a000000000000000000000000000000000000000000000000000000000815260040180806020018281038252602e8152602001806186b3602e913960400191505060405180910390fd5b60008060019054906101000a900460ff1615905080156168e8576001600060016101000a81548160ff02191690831515021790555060016000806101000a81548160ff0219169083151502179055505b6168f06176d8565b6168f861797f565b80156169195760008060016101000a81548160ff0219169083151502179055505b50565b600060019054906101000a900460ff168061693b575061693a615e0b565b5b8061695257506000809054906101000a900460ff16155b6169a7576040517f08c379a000000000000000000000000000000000000000000000000000000000815260040180806020018281038252602e8152602001806186b3602e913960400191505060405180910390fd5b60008060019054906101000a900460ff1615905080156169f7576001600060016101000a81548160ff02191690831515021790555060016000806101000a81548160ff0219169083151502179055505b6169ff6176d8565b616a0a848484617a7e565b8015616a2b5760008060016101000a81548160ff0219169083151502179055505b50505050565b616a3b8282615a20565b5050565b600080600080878060200190516080811015616a5a57600080fd5b810190808051906020019092919080519060200190929190805190602001909291908051906020019092919050505093509350935093506000616ab5616aae60fd54620186a0617ead90919063ffffffff16565b8385617f30565b90506000616af8670de0b6b3a7640000616aea88616adc868d617ead90919063ffffffff16565b617f4d90919063ffffffff16565b617fd390919063ffffffff16565b90506000811115616b5357616b528560fc60009054906101000a900473ffffffffffffffffffffffffffffffffffffffff168360405180602001604052806000815250604051806020016040528060008152506000615c5b565b5b50505050505050505050565b600060019054906101000a900460ff1680616b7e5750616b7d615e0b565b5b80616b9557506000809054906101000a900460ff16155b616bea576040517f08c379a000000000000000000000000000000000000000000000000000000000815260040180806020018281038252602e8152602001806186b3602e913960400191505060405180910390fd5b60008060019054906101000a900460ff161590508015616c3a576001600060016101000a81548160ff02191690831515021790555060016000806101000a81548160ff0219169083151502179055505b616c426176d8565b616c4a61805c565b8015616c6b5760008060016101000a81548160ff0219169083151502179055505b50565b600073ffffffffffffffffffffffffffffffffffffffff168473ffffffffffffffffffffffffffffffffffffffff161415616cf4576040517f08c379a00000000000000000000000000000000000000000000000000000000081526004018080602001828103825260228152602001806185fa6022913960400191505060405180910390fd5b6000616cfe615459565b9050616d6c8460405180606001604052806023815260200161881c6023913960c960008973ffffffffffffffffffffffffffffffffffffffff1673ffffffffffffffffffffffffffffffffffffffff168152602001908152602001600020546159669092919063ffffffff16565b60c960008773ffffffffffffffffffffffffffffffffffffffff1673ffffffffffffffffffffffffffffffffffffffff16815260200190815260200160002081905550616dc48460ca54617ead90919063ffffffff16565b60ca819055508473ffffffffffffffffffffffffffffffffffffffff168173ffffffffffffffffffffffffffffffffffffffff167fa78a9be3a7b862d26933ad85fb11d80ef66b8f972d7cbba06621d583943a4098868686604051808481526020018060200180602001838103835285818151815260200191508051906020019080838360005b83811015616e66578082015181840152602081019050616e4b565b50505050905090810190601f168015616e935780820380516001836020036101000a031916815260200191505b50838103825284818151815260200191508051906020019080838360005b83811015616ecc578082015181840152602081019050616eb1565b50505050905090810190601f168015616ef95780820380516001836020036101000a031916815260200191505b509550505050505060405180910390a3600073ffffffffffffffffffffffffffffffffffffffff168573ffffffffffffffffffffffffffffffffffffffff167fddf252ad1be2c89b69c2b068fc378daa952ba7f163c4a11628f55a4df523b3ef866040518082815260200191505060405180910390a35050505050565b6000616f806136d8565b73ffffffffffffffffffffffffffffffffffffffff163373ffffffffffffffffffffffffffffffffffffffff1614616fba57339050616fc5565b616fc26181b0565b90505b90565b600080828401905083811015617046576040517f08c379a000000000000000000000000000000000000000000000000000000000815260040180806020018281038252601b8152602001807f536166654d6174683a206164646974696f6e206f766572666c6f77000000000081525060200191505060405180910390fd5b8091505092915050565b6000617078836000018373ffffffffffffffffffffffffffffffffffffffff1660001b618228565b905092915050565b60006170a8836000018373ffffffffffffffffffffffffffffffffffffffff1660001b618298565b905092915050565b60006170bb83613249565b90504261010060008573ffffffffffffffffffffffffffffffffffffffff1673ffffffffffffffffffffffffffffffffffffffff1681526020019081526020016000206000016000018190555081810361010060008573ffffffffffffffffffffffffffffffffffffffff1673ffffffffffffffffffffffffffffffffffffffff16815260200190815260200160002060000160030181905550505050565b600073ffffffffffffffffffffffffffffffffffffffff168473ffffffffffffffffffffffffffffffffffffffff1614156171fd576040517f08c379a00000000000000000000000000000000000000000000000000000000081526004018080602001828103825260208152602001807f4552433737373a206d696e7420746f20746865207a65726f206164647265737381525060200191505060405180910390fd5b6000617207615459565b905061721e8460ca54616fc890919063ffffffff16565b60ca819055506172768460c960008873ffffffffffffffffffffffffffffffffffffffff1673ffffffffffffffffffffffffffffffffffffffff16815260200190815260200160002054616fc890919063ffffffff16565b60c960008773ffffffffffffffffffffffffffffffffffffffff1673ffffffffffffffffffffffffffffffffffffffff168152602001908152602001600020819055508473ffffffffffffffffffffffffffffffffffffffff16600073ffffffffffffffffffffffffffffffffffffffff167fddf252ad1be2c89b69c2b068fc378daa952ba7f163c4a11628f55a4df523b3ef866040518082815260200191505060405180910390a35050505050565b600080823b905060008111915050919050565b60007f7fffffffffffffffffffffffffffffff5d576e7357a4501ddfe92f46681b20a08260001c11156173b7576040517f08c379a00000000000000000000000000000000000000000000000000000000081526004018080602001828103825260228152602001806186406022913960400191505060405180910390fd5b601b8460ff1614806173cc5750601c8460ff16145b617421576040517f08c379a00000000000000000000000000000000000000000000000000000000081526004018080602001828103825260228152602001806186e16022913960400191505060405180910390fd5b600060018686868660405160008152602001604052604051808581526020018460ff1660ff1681526020018381526020018281526020019450505050506020604051602081039080840390855afa158015617480573d6000803e3d6000fd5b505050602060405103519050600073ffffffffffffffffffffffffffffffffffffffff168173ffffffffffffffffffffffffffffffffffffffff16141561752f576040517f08c379a00000000000000000000000000000000000000000000000000000000081526004018080602001828103825260188152602001807f45434453413a20696e76616c6964207369676e6174757265000000000000000081525060200191505060405180910390fd5b80915050949350505050565b60008183600001805490501161759c576040517f08c379a00000000000000000000000000000000000000000000000000000000081526004018080602001828103825260228152602001806184f36022913960400191505060405180910390fd5b8260000182815481106175ab57fe5b9060005260206000200154905092915050565b600080836001016000848152602001908152602001600020541415905092915050565b60006175ec83613ec0565b90504261010060008573ffffffffffffffffffffffffffffffffffffffff1673ffffffffffffffffffffffffffffffffffffffff1681526020019081526020016000206004016000018190555081810361010060008573ffffffffffffffffffffffffffffffffffffffff1673ffffffffffffffffffffffffffffffffffffffff16815260200190815260200160002060040160030181905550505050565b600080848411156176b45784840390508083116176a95760006176ad565b8083035b91506176bf565b838503905080830191505b509392505050565b600081600001805490509050919050565b600060019054906101000a900460ff16806176f757506176f6615e0b565b5b8061770e57506000809054906101000a900460ff16155b617763576040517f08c379a000000000000000000000000000000000000000000000000000000000815260040180806020018281038252602e8152602001806186b3602e913960400191505060405180910390fd5b60008060019054906101000a900460ff1615905080156177b3576001600060016101000a81548160ff02191690831515021790555060016000806101000a81548160ff0219169083151502179055505b80156177d45760008060016101000a81548160ff0219169083151502179055505b50565b600060019054906101000a900460ff16806177f657506177f5615e0b565b5b8061780d57506000809054906101000a900460ff16155b617862576040517f08c379a000000000000000000000000000000000000000000000000000000000815260040180806020018281038252602e8152602001806186b3602e913960400191505060405180910390fd5b60008060019054906101000a900460ff1615905080156178b2576001600060016101000a81548160ff02191690831515021790555060016000806101000a81548160ff0219169083151502179055505b60006178bc615459565b905080606560006101000a81548173ffffffffffffffffffffffffffffffffffffffff021916908373ffffffffffffffffffffffffffffffffffffffff1602179055508073ffffffffffffffffffffffffffffffffffffffff16600073ffffffffffffffffffffffffffffffffffffffff167f8be0079c531659141344cd1fd0a4f28419497f9722a3daafe3b4186f6b6457e060405160405180910390a350801561797c5760008060016101000a81548160ff0219169083151502179055505b50565b600060019054906101000a900460ff168061799e575061799d615e0b565b5b806179b557506000809054906101000a900460ff16155b617a0a576040517f08c379a000000000000000000000000000000000000000000000000000000000815260040180806020018281038252602e8152602001806186b3602e913960400191505060405180910390fd5b60008060019054906101000a900460ff161590508015617a5a576001600060016101000a81548160ff02191690831515021790555060016000806101000a81548160ff0219169083151502179055505b8015617a7b5760008060016101000a81548160ff0219169083151502179055505b50565b600060019054906101000a900460ff1680617a9d5750617a9c615e0b565b5b80617ab457506000809054906101000a900460ff16155b617b09576040517f08c379a000000000000000000000000000000000000000000000000000000000815260040180806020018281038252602e8152602001806186b3602e913960400191505060405180910390fd5b60008060019054906101000a900460ff161590508015617b59576001600060016101000a81548160ff02191690831515021790555060016000806101000a81548160ff0219169083151502179055505b8360cb9080519060200190617b6f929190618380565b508260cc9080519060200190617b86929190618380565b508160cd9080519060200190617b9d929190618400565b5060008090505b60cd80549050811015617c4d57600160ce600060cd8481548110617bc457fe5b9060005260206000200160009054906101000a900473ffffffffffffffffffffffffffffffffffffffff1673ffffffffffffffffffffffffffffffffffffffff1673ffffffffffffffffffffffffffffffffffffffff16815260200190815260200160002060006101000a81548160ff0219169083151502179055508080600101915050617ba4565b50731820a4b7618bde71dce8cdc73aab6c95905fad2473ffffffffffffffffffffffffffffffffffffffff166329965a1d3060405180807f455243373737546f6b656e000000000000000000000000000000000000000000815250600b0190506040518091039020306040518463ffffffff1660e01b8152600401808473ffffffffffffffffffffffffffffffffffffffff1673ffffffffffffffffffffffffffffffffffffffff1681526020018381526020018273ffffffffffffffffffffffffffffffffffffffff1673ffffffffffffffffffffffffffffffffffffffff1681526020019350505050600060405180830381600087803b158015617d5257600080fd5b505af1158015617d66573d6000803e3d6000fd5b50505050731820a4b7618bde71dce8cdc73aab6c95905fad2473ffffffffffffffffffffffffffffffffffffffff166329965a1d3060405180807f4552433230546f6b656e00000000000000000000000000000000000000000000815250600a0190506040518091039020306040518463ffffffff1660e01b8152600401808473ffffffffffffffffffffffffffffffffffffffff1673ffffffffffffffffffffffffffffffffffffffff1681526020018381526020018273ffffffffffffffffffffffffffffffffffffffff1673ffffffffffffffffffffffffffffffffffffffff1681526020019350505050600060405180830381600087803b158015617e6e57600080fd5b505af1158015617e82573d6000803e3d6000fd5b505050508015617ea75760008060016101000a81548160ff0219169083151502179055505b50505050565b600082821115617f25576040517f08c379a000000000000000000000000000000000000000000000000000000000815260040180806020018281038252601e8152602001807f536166654d6174683a207375627472616374696f6e206f766572666c6f77000081525060200191505060405180910390fd5b818303905092915050565b60006064826064018486020281617f4357fe5b0490509392505050565b600080831415617f605760009050617fcd565b6000828402905082848281617f7157fe5b0414617fc8576040517f08c379a00000000000000000000000000000000000000000000000000000000081526004018080602001828103825260218152602001806187036021913960400191505060405180910390fd5b809150505b92915050565b600080821161804a576040517f08c379a000000000000000000000000000000000000000000000000000000000815260040180806020018281038252601a8152602001807f536166654d6174683a206469766973696f6e206279207a65726f00000000000081525060200191505060405180910390fd5b81838161805357fe5b04905092915050565b600060019054906101000a900460ff168061807b575061807a615e0b565b5b8061809257506000809054906101000a900460ff16155b6180e7576040517f08c379a000000000000000000000000000000000000000000000000000000000815260040180806020018281038252602e8152602001806186b3602e913960400191505060405180910390fd5b60008060019054906101000a900460ff161590508015618137576001600060016101000a81548160ff02191690831515021790555060016000806101000a81548160ff0219169083151502179055505b73d216153c06e857cd7f72665e0af1d7d82172f494609760006101000a81548173ffffffffffffffffffffffffffffffffffffffff021916908373ffffffffffffffffffffffffffffffffffffffff16021790555080156181ad5760008060016101000a81548160ff0219169083151502179055505b50565b600060606000368080601f016020809104026020016040519081016040528093929190818152602001838380828437600081840152601f19601f820116905080830192505050505050509050600080369050905073ffffffffffffffffffffffffffffffffffffffff81830151169250829250505090565b600061823483836175be565b61828d578260000182908060018154018082558091505060019003906000526020600020016000909190919091505582600001805490508360010160008481526020019081526020016000208190555060019050618292565b600090505b92915050565b6000808360010160008481526020019081526020016000205490506000811461837457600060018203905060006001866000018054905003905060008660000182815481106182e357fe5b906000526020600020015490508087600001848154811061830057fe5b906000526020600020018190555060018301876001016000838152602001908152602001600020819055508660000180548061833857fe5b6001900381819060005260206000200160009055905586600101600087815260200190815260200160002060009055600194505050505061837a565b60009150505b92915050565b828054600181600116156101000203166002900490600052602060002090601f016020900481019282601f106183c157805160ff19168380011785556183ef565b828001600101855582156183ef579182015b828111156183ee5782518255916020019190600101906183d3565b5b5090506183fc919061848a565b5090565b828054828255906000526020600020908101928215618479579160200282015b828111156184785782518260006101000a81548173ffffffffffffffffffffffffffffffffffffffff021916908373ffffffffffffffffffffffffffffffffffffffff16021790555091602001919060010190618420565b5b50905061848691906184af565b5090565b6184ac91905b808211156184a8576000816000905550600101618490565b5090565b90565b6184ef91905b808211156184eb57600081816101000a81549073ffffffffffffffffffffffffffffffffffffffff0219169055506001016184b5565b5090565b9056fe456e756d657261626c655365743a20696e646578206f7574206f6620626f756e6473416363657373436f6e74726f6c3a2073656e646572206d75737420626520616e2061646d696e20746f206772616e744552433737373a20617070726f76652066726f6d20746865207a65726f20616464726573734552433737373a2073656e642066726f6d20746865207a65726f20616464726573734552433737373a207472616e7366657220616d6f756e7420657863656564732062616c616e63654f776e61626c653a206e6577206f776e657220697320746865207a65726f206164647265737374727573746564207369676e657220697320746865207a65726f20616464726573734552433737373a206275726e2066726f6d20746865207a65726f20616464726573734552433737373a20617574686f72697a696e672073656c66206173206f70657261746f7245434453413a20696e76616c6964207369676e6174757265202773272076616c7565416363657373436f6e74726f6c3a2073656e646572206d75737420626520616e2061646d696e20746f207265766f6b654552433737373a207265766f6b696e672073656c66206173206f70657261746f72496e697469616c697a61626c653a20636f6e747261637420697320616c726561647920696e697469616c697a656445434453413a20696e76616c6964207369676e6174757265202776272076616c7565536166654d6174683a206d756c7469706c69636174696f6e206f766572666c6f774f6e6c79207468652061637475616c2061646d696e206f70657261746f722063616e206368616e67652074686520616464726573734552433737373a207472616e7366657220746f20746865207a65726f206164647265737347534e526563697069656e743a2063616c6c6572206973206e6f742052656c61794875624552433737373a2063616c6c6572206973206e6f7420616e206f70657261746f7220666f7220686f6c6465724552433737373a207472616e7366657220616d6f756e74206578636565647320616c6c6f77616e63654552433737373a207472616e736665722066726f6d20746865207a65726f20616464726573734552433737373a206275726e20616d6f756e7420657863656564732062616c616e63654552433737373a20617070726f766520746f20746865207a65726f2061646472657373416363657373436f6e74726f6c3a2063616e206f6e6c792072656e6f756e636520726f6c657320666f722073656c66a2646970667358221220096196cbe2c7ecb4f11810a1ee933120d4c247ba6cfef2c2c8be0158a519da0864736f6c63430006020033",
  "linkReferences": {},
  "deployedLinkReferences": {}
}