{
  "_format": "hh-sol-artifact-1",
  "contractName": "PAM",
  "sourceName": "src/PAM.sol",
  "abi": [
    {
      "inputs": [],
      "stateMutability": "nonpayable",
      "type": "constructor"
    },
    {
      "inputs": [
        {
          "internalType": "bytes32",
          "name": "eventId",
          "type": "bytes32"
        }
      ],
      "name": "AlreadyProcessed",
      "type": "error"
    },
    {
      "inputs": [],
      "name": "ECDSAInvalidSignature",
      "type": "error"
    },
    {
      "inputs": [
        {
          "internalType": "uint256",
          "name": "length",
          "type": "uint256"
        }
      ],
      "name": "ECDSAInvalidSignatureLength",
      "type": "error"
    },
    {
      "inputs": [
        {
          "internalType": "bytes32",
          "name": "s",
          "type": "bytes32"
        }
      ],
      "name": "ECDSAInvalidSignatureS",
      "type": "error"
    },
    {
      "inputs": [],
      "name": "GracePeriodNotElapsed",
      "type": "error"
    },
    {
      "inputs": [
        {
          "internalType": "uint256",
          "name": "chainId",
          "type": "uint256"
        }
      ],
      "name": "InvalidDestinationChainId",
      "type": "error"
    },
    {
      "inputs": [
        {
          "internalType": "uint256",
          "name": "length",
          "type": "uint256"
        }
      ],
      "name": "InvalidEventContentLength",
      "type": "error"
    },
    {
      "inputs": [
        {
          "internalType": "bytes32",
          "name": "actual",
          "type": "bytes32"
        },
        {
          "internalType": "bytes32",
          "name": "expected",
          "type": "bytes32"
        }
      ],
      "name": "InvalidEventId",
      "type": "error"
    },
    {
      "inputs": [],
      "name": "InvalidEventRLP",
      "type": "error"
    },
    {
      "inputs": [],
      "name": "InvalidNewTeeSigner",
      "type": "error"
    },
    {
      "inputs": [],
      "name": "InvalidSender",
      "type": "error"
    },
    {
      "inputs": [],
      "name": "InvalidSignature",
      "type": "error"
    },
    {
      "inputs": [],
      "name": "InvalidTeeSigner",
      "type": "error"
    },
    {
      "inputs": [
        {
          "internalType": "address",
          "name": "owner",
          "type": "address"
        }
      ],
      "name": "OwnableInvalidOwner",
      "type": "error"
    },
    {
      "inputs": [
        {
          "internalType": "address",
          "name": "account",
          "type": "address"
        }
      ],
      "name": "OwnableUnauthorizedAccount",
      "type": "error"
    },
    {
      "inputs": [
        {
          "internalType": "bytes32",
          "name": "topic",
          "type": "bytes32"
        }
      ],
      "name": "UnexpectedEventTopic",
      "type": "error"
    },
    {
      "inputs": [
        {
          "internalType": "bytes32",
          "name": "chainId",
          "type": "bytes32"
        }
      ],
      "name": "UnsupportedChainId",
      "type": "error"
    },
    {
      "inputs": [
        {
          "internalType": "bytes1",
          "name": "protocolId",
          "type": "bytes1"
        }
      ],
      "name": "UnsupportedProtocolId",
      "type": "error"
    },
    {
      "anonymous": false,
      "inputs": [
        {
          "indexed": false,
          "internalType": "bytes32",
          "name": "chainid",
          "type": "bytes32"
        },
        {
          "indexed": false,
          "internalType": "bytes32",
          "name": "emitter",
          "type": "bytes32"
        }
      ],
      "name": "EmitterSet",
      "type": "event"
    },
    {
      "anonymous": false,
      "inputs": [
        {
          "indexed": false,
          "internalType": "bytes32",
          "name": "chainId",
          "type": "bytes32"
        }
      ],
      "name": "EmitterUnset",
      "type": "event"
    },
    {
      "anonymous": false,
      "inputs": [
        {
          "indexed": true,
          "internalType": "address",
          "name": "previousOwner",
          "type": "address"
        },
        {
          "indexed": true,
          "internalType": "address",
          "name": "newOwner",
          "type": "address"
        }
      ],
      "name": "OwnershipTransferred",
      "type": "event"
    },
    {
      "anonymous": false,
      "inputs": [
        {
          "indexed": false,
          "internalType": "address",
          "name": "newAddress",
          "type": "address"
        }
      ],
      "name": "TeeSignerChanged",
      "type": "event"
    },
    {
      "anonymous": false,
      "inputs": [
        {
          "indexed": false,
          "internalType": "address",
          "name": "newAddress",
          "type": "address"
        },
        {
          "indexed": false,
          "internalType": "bytes",
          "name": "attestation",
          "type": "bytes"
        },
        {
          "indexed": false,
          "internalType": "uint256",
          "name": "gracePeriod",
          "type": "uint256"
        }
      ],
      "name": "TeeSignerPendingChange",
      "type": "event"
    },
    {
      "inputs": [],
      "name": "TEE_ADDRESS_CHANGE_GRACE_PERIOD",
      "outputs": [
        {
          "internalType": "uint256",
          "name": "",
          "type": "uint256"
        }
      ],
      "stateMutability": "view",
      "type": "function"
    },
    {
      "inputs": [],
      "name": "applyNewTeeSigner",
      "outputs": [],
      "stateMutability": "nonpayable",
      "type": "function"
    },
    {
      "inputs": [
        {
          "components": [
            {
              "internalType": "bytes32",
              "name": "blockId",
              "type": "bytes32"
            },
            {
              "internalType": "bytes32",
              "name": "txId",
              "type": "bytes32"
            },
            {
              "internalType": "uint256",
              "name": "nonce",
              "type": "uint256"
            },
            {
              "internalType": "bytes32",
              "name": "erc20",
              "type": "bytes32"
            },
            {
              "internalType": "bytes32",
              "name": "originChainId",
              "type": "bytes32"
            },
            {
              "internalType": "bytes32",
              "name": "destinationChainId",
              "type": "bytes32"
            },
            {
              "internalType": "uint256",
              "name": "amount",
              "type": "uint256"
            },
            {
              "internalType": "bytes32",
              "name": "sender",
              "type": "bytes32"
            },
            {
              "internalType": "address",
              "name": "recipient",
              "type": "address"
            },
            {
              "internalType": "bytes",
              "name": "data",
              "type": "bytes"
            }
          ],
          "internalType": "struct IAdapter.Operation",
          "name": "operation",
          "type": "tuple"
        },
        {
          "components": [
            {
              "internalType": "bytes",
              "name": "preimage",
              "type": "bytes"
            },
            {
              "internalType": "bytes",
              "name": "signature",
              "type": "bytes"
            }
          ],
          "internalType": "struct IPAM.Metadata",
          "name": "metadata",
          "type": "tuple"
        }
      ],
      "name": "isAuthorized",
      "outputs": [
        {
          "internalType": "bool",
          "name": "",
          "type": "bool"
        }
      ],
      "stateMutability": "nonpayable",
      "type": "function"
    },
    {
      "inputs": [],
      "name": "owner",
      "outputs": [
        {
          "internalType": "address",
          "name": "",
          "type": "address"
        }
      ],
      "stateMutability": "view",
      "type": "function"
    },
    {
      "inputs": [],
      "name": "renounceOwnership",
      "outputs": [],
      "stateMutability": "nonpayable",
      "type": "function"
    },
    {
      "inputs": [
        {
          "internalType": "bytes32",
          "name": "chainid",
          "type": "bytes32"
        },
        {
          "internalType": "bytes32",
          "name": "emitter",
          "type": "bytes32"
        }
      ],
      "name": "setEmitter",
      "outputs": [],
      "stateMutability": "nonpayable",
      "type": "function"
    },
    {
      "inputs": [
        {
          "internalType": "bytes",
          "name": "pubKey",
          "type": "bytes"
        },
        {
          "internalType": "bytes",
          "name": "attestation",
          "type": "bytes"
        }
      ],
      "name": "setTeeSigner",
      "outputs": [],
      "stateMutability": "nonpayable",
      "type": "function"
    },
    {
      "inputs": [],
      "name": "teeAddress",
      "outputs": [
        {
          "internalType": "address",
          "name": "",
          "type": "address"
        }
      ],
      "stateMutability": "view",
      "type": "function"
    },
    {
      "inputs": [],
      "name": "teeAddressChangeGraceThreshold",
      "outputs": [
        {
          "internalType": "uint256",
          "name": "",
          "type": "uint256"
        }
      ],
      "stateMutability": "view",
      "type": "function"
    },
    {
      "inputs": [],
      "name": "teeAddressNew",
      "outputs": [
        {
          "internalType": "address",
          "name": "",
          "type": "address"
        }
      ],
      "stateMutability": "view",
      "type": "function"
    },
    {
      "inputs": [
        {
          "internalType": "address",
          "name": "newOwner",
          "type": "address"
        }
      ],
      "name": "transferOwnership",
      "outputs": [],
      "stateMutability": "nonpayable",
      "type": "function"
    },
    {
      "inputs": [
        {
          "internalType": "bytes32",
          "name": "chainid",
          "type": "bytes32"
        }
      ],
      "name": "unsetEmitter",
      "outputs": [],
      "stateMutability": "nonpayable",
      "type": "function"
    }
  ],
  "bytecode": "0x608060405234801561001057600080fd5b5033600073ffffffffffffffffffffffffffffffffffffffff168173ffffffffffffffffffffffffffffffffffffffff16036100845760006040517f1e4fbdf700000000000000000000000000000000000000000000000000000000815260040161007b919061019e565b60405180910390fd5b6100938161009960201b60201c565b506101b9565b60008060009054906101000a900473ffffffffffffffffffffffffffffffffffffffff169050816000806101000a81548173ffffffffffffffffffffffffffffffffffffffff021916908373ffffffffffffffffffffffffffffffffffffffff1602179055508173ffffffffffffffffffffffffffffffffffffffff168173ffffffffffffffffffffffffffffffffffffffff167f8be0079c531659141344cd1fd0a4f28419497f9722a3daafe3b4186f6b6457e060405160405180910390a35050565b600073ffffffffffffffffffffffffffffffffffffffff82169050919050565b60006101888261015d565b9050919050565b6101988161017d565b82525050565b60006020820190506101b3600083018461018f565b92915050565b61226c806101c86000396000f3fe608060405234801561001057600080fd5b50600436106100b45760003560e01c806378b9e6201161007157806378b9e620146101415780638da5cb5b1461015f578063ae47881e1461017d578063be050f4614610199578063db88c0ea146101b7578063f2fde38b146101e7576100b4565b80630def30ad146100b957806312bba184146100d5578063316bce05146100f357806353b39226146100fd57806360beafa214610119578063715018a614610137575b600080fd5b6100d360048036038101906100ce919061151c565b610203565b005b6100dd61025c565b6040516100ea919061158a565b60405180910390f35b6100fb610282565b005b6101176004803603810190610112919061174b565b610446565b005b61012161066d565b60405161012e91906117e0565b60405180910390f35b61013f610674565b005b610149610688565b604051610156919061158a565b60405180910390f35b6101676106ae565b604051610174919061158a565b60405180910390f35b610197600480360381019061019291906117fb565b6106d7565b005b6101a1610734565b6040516101ae91906117e0565b60405180910390f35b6101d160048036038101906101cc91906119d3565b61073a565b6040516101de9190611a66565b60405180910390f35b61020160048036038101906101fc9190611a81565b610bce565b005b61020b610c54565b60046000828152602001908152602001600020600090557f6b5c0a8de26565b4cc058af9a17544638fc704a7430b51d8e0749af0071d69fa816040516102519190611abd565b60405180910390a150565b600260009054906101000a900473ffffffffffffffffffffffffffffffffffffffff1681565b6003544210156102be576040517f7ce0bd8c00000000000000000000000000000000000000000000000000000000815260040160405180910390fd5b600073ffffffffffffffffffffffffffffffffffffffff16600260009054906101000a900473ffffffffffffffffffffffffffffffffffffffff1673ffffffffffffffffffffffffffffffffffffffff1603610346576040517f8f77c79100000000000000000000000000000000000000000000000000000000815260040160405180910390fd5b600260009054906101000a900473ffffffffffffffffffffffffffffffffffffffff16600160006101000a81548173ffffffffffffffffffffffffffffffffffffffff021916908373ffffffffffffffffffffffffffffffffffffffff1602179055506000600260006101000a81548173ffffffffffffffffffffffffffffffffffffffff021916908373ffffffffffffffffffffffffffffffffffffffff1602179055507f33e4cfa691af5df9178c8e0b15bc18d50abfedd43f3da4edd2c03bf30808cc09600160009054906101000a900473ffffffffffffffffffffffffffffffffffffffff1660405161043c919061158a565b60405180910390a1565b61044e610c54565b600073ffffffffffffffffffffffffffffffffffffffff16600160009054906101000a900473ffffffffffffffffffffffffffffffffffffffff1673ffffffffffffffffffffffffffffffffffffffff16036105a9576104ae8383610cdb565b600160006101000a81548173ffffffffffffffffffffffffffffffffffffffff021916908373ffffffffffffffffffffffffffffffffffffffff1602179055507f71300c1727a187a12e55e562921f12d3fba1545373458a11f58c0f29a411ba2c600160009054906101000a900473ffffffffffffffffffffffffffffffffffffffff16824260405161054393929190611b57565b60405180910390a17f33e4cfa691af5df9178c8e0b15bc18d50abfedd43f3da4edd2c03bf30808cc09600160009054906101000a900473ffffffffffffffffffffffffffffffffffffffff1660405161059c919061158a565b60405180910390a1610668565b6105b38383610cdb565b600260006101000a81548173ffffffffffffffffffffffffffffffffffffffff021916908373ffffffffffffffffffffffffffffffffffffffff1602179055506202a300426106029190611bc4565b6003819055507f71300c1727a187a12e55e562921f12d3fba1545373458a11f58c0f29a411ba2c600260009054906101000a900473ffffffffffffffffffffffffffffffffffffffff168260035460405161065f93929190611b57565b60405180910390a15b505050565b6202a30081565b61067c610c54565b6106866000610d11565b565b600160009054906101000a900473ffffffffffffffffffffffffffffffffffffffff1681565b60008060009054906101000a900473ffffffffffffffffffffffffffffffffffffffff16905090565b6106df610c54565b8060046000848152602001908152602001600020819055507fbb5273a386d2a76760b82eef50b47d49cb08752a631e5831514e12bf6456bbcc8282604051610728929190611bf8565b60405180910390a15050565b60035481565b60008073ffffffffffffffffffffffffffffffffffffffff16600160009054906101000a900473ffffffffffffffffffffffffffffffffffffffff1673ffffffffffffffffffffffffffffffffffffffff160361079a5760009050610bc8565b60006002905060008380600001906107b29190611c30565b8361ffff16906020856107c59190611ca1565b94508461ffff16926107d993929190611ce1565b906107e49190611d34565b9050846080015181146107fc57600092505050610bc8565b6000600460008381526020019081526020016000205490506000801b810361082a5760009350505050610bc8565b600085806000019061083c9190611c30565b6000908661ffff169261085193929190611ce1565b8080601f016020809104026020016040519081016040528093929190818152602001838380828437600081840152601f19601f82011690508083019250505050505050905060008680600001906108a89190611c30565b8661ffff16906020886108bb9190611ca1565b97508761ffff16926108cf93929190611ce1565b906108da9190611d34565b905060008780600001906108ee9190611c30565b8761ffff16906020896109019190611ca1565b98508861ffff169261091593929190611ce1565b906109209190611d34565b90508860000151821415801561093a575088602001518114155b1561094e5760009650505050505050610bc8565b3660008980600001906109619190611c30565b8961ffff1690809261097593929190611ce1565b91509150600060028686868686604051602001610996959493929190611e15565b6040516020818303038152906040526040516109b29190611e5d565b602060405180830381855afa1580156109cf573d6000803e3d6000fd5b5050506040513d601f19601f820116820180604052508101906109f29190611e89565b9050600160009054906101000a900473ffffffffffffffffffffffffffffffffffffffff1673ffffffffffffffffffffffffffffffffffffffff16610a89828d8060200190610a419190611c30565b8080601f016020809104026020016040519081016040528093929190818152602001838380828437600081840152601f19601f82011690508083019250505050505050610dd5565b73ffffffffffffffffffffffffffffffffffffffff1614610ab65760009950505050505050505050610bc8565b60209850600083836000908c61ffff1692610ad393929190611ce1565b90610ade9190611d34565b9050878114610afa5760009a5050505050505050505050610bc8565b60208a610b079190611ca1565b9950600084848c61ffff16908092610b2193929190611ce1565b810190610b2e9190612043565b9050610b3a818f610e01565b610b525760009b505050505050505050505050610bc8565b6005600084815260200190815260200160002060009054906101000a900460ff1615610b8c5760009b505050505050505050505050610bc8565b60016005600085815260200190815260200160002060006101000a81548160ff02191690831515021790555060019b5050505050505050505050505b92915050565b610bd6610c54565b600073ffffffffffffffffffffffffffffffffffffffff168173ffffffffffffffffffffffffffffffffffffffff1603610c485760006040517f1e4fbdf7000000000000000000000000000000000000000000000000000000008152600401610c3f919061158a565b60405180910390fd5b610c5181610d11565b50565b610c5c610f48565b73ffffffffffffffffffffffffffffffffffffffff16610c7a6106ae565b73ffffffffffffffffffffffffffffffffffffffff1614610cd957610c9d610f48565b6040517f118cdaa7000000000000000000000000000000000000000000000000000000008152600401610cd0919061158a565b60405180910390fd5b565b600082826001908092610cf093929190611ce1565b604051610cfe92919061208c565b604051809103902060001c905092915050565b60008060009054906101000a900473ffffffffffffffffffffffffffffffffffffffff169050816000806101000a81548173ffffffffffffffffffffffffffffffffffffffff021916908373ffffffffffffffffffffffffffffffffffffffff1602179055508173ffffffffffffffffffffffffffffffffffffffff168173ffffffffffffffffffffffffffffffffffffffff167f8be0079c531659141344cd1fd0a4f28419497f9722a3daafe3b4186f6b6457e060405160405180910390a35050565b600080600080610de58686610f50565b925092509250610df58282610fac565b82935050505092915050565b600081606001518360200151148015610e2157508160a001518360400151145b8015610e3457508160c001518360600151145b8015610e4757508160e001518360800151145b8015610e8f575081610100015173ffffffffffffffffffffffffffffffffffffffff16610e778460a00151611110565b73ffffffffffffffffffffffffffffffffffffffff16145b8015610f40575060028360c00151604051610eaa9190611e5d565b602060405180830381855afa158015610ec7573d6000803e3d6000fd5b5050506040513d601f19601f82011682018060405250810190610eea9190611e89565b60028460c00151604051610efe9190611e5d565b602060405180830381855afa158015610f1b573d6000803e3d6000fd5b5050506040513d601f19601f82011682018060405250810190610f3e9190611e89565b145b905092915050565b600033905090565b60008060006041845103610f955760008060006020870151925060408701519150606087015160001a9050610f87888285856113de565b955095509550505050610fa5565b60006002855160001b9250925092505b9250925092565b60006003811115610fc057610fbf6120a5565b5b826003811115610fd357610fd26120a5565b5b031561110c5760016003811115610fed57610fec6120a5565b5b82600381111561100057610fff6120a5565b5b03611037576040517ff645eedf00000000000000000000000000000000000000000000000000000000815260040160405180910390fd5b6002600381111561104b5761104a6120a5565b5b82600381111561105e5761105d6120a5565b5b036110a3578060001c6040517ffce698f700000000000000000000000000000000000000000000000000000000815260040161109a91906117e0565b60405180910390fd5b6003808111156110b6576110b56120a5565b5b8260038111156110c9576110c86120a5565b5b0361110b57806040517fd78bce0c0000000000000000000000000000000000000000000000000000000081526004016111029190611abd565b60405180910390fd5b5b5050565b600080829050600080806000600290505b602a8110156113d1576101008461113891906120d4565b935084818151811061114d5761114c612116565b5b602001015160f81c60f81b60f81c60ff1692508460018261116e9190611bc4565b8151811061117f5761117e612116565b5b602001015160f81c60f81b60f81c60ff16915060618373ffffffffffffffffffffffffffffffffffffffff16101580156111d0575060668373ffffffffffffffffffffffffffffffffffffffff1611155b156111e9576057836111e29190612145565b9250611295565b60418373ffffffffffffffffffffffffffffffffffffffff1610158015611227575060468373ffffffffffffffffffffffffffffffffffffffff1611155b15611240576037836112399190612145565b9250611294565b60308373ffffffffffffffffffffffffffffffffffffffff161015801561127e575060398373ffffffffffffffffffffffffffffffffffffffff1611155b15611293576030836112909190612145565b92505b5b5b60618273ffffffffffffffffffffffffffffffffffffffff16101580156112d3575060668273ffffffffffffffffffffffffffffffffffffffff1611155b156112ec576057826112e59190612145565b9150611398565b60418273ffffffffffffffffffffffffffffffffffffffff161015801561132a575060468273ffffffffffffffffffffffffffffffffffffffff1611155b156113435760378261133c9190612145565b9150611397565b60308273ffffffffffffffffffffffffffffffffffffffff1610158015611381575060398273ffffffffffffffffffffffffffffffffffffffff1611155b15611396576030826113939190612145565b91505b5b5b816010846113a691906120d4565b6113b0919061218d565b846113bb919061218d565b93506002816113ca9190611bc4565b9050611121565b5082945050505050919050565b60008060007f7fffffffffffffffffffffffffffffff5d576e7357a4501ddfe92f46681b20a08460001c111561141e5760006003859250925092506114c8565b60006001888888886040516000815260200160405260405161144394939291906121f1565b6020604051602081039080840390855afa158015611465573d6000803e3d6000fd5b505050602060405103519050600073ffffffffffffffffffffffffffffffffffffffff168173ffffffffffffffffffffffffffffffffffffffff16036114b957600060016000801b935093509350506114c8565b8060008060001b935093509350505b9450945094915050565b6000604051905090565b600080fd5b600080fd5b6000819050919050565b6114f9816114e6565b811461150457600080fd5b50565b600081359050611516816114f0565b92915050565b600060208284031215611532576115316114dc565b5b600061154084828501611507565b91505092915050565b600073ffffffffffffffffffffffffffffffffffffffff82169050919050565b600061157482611549565b9050919050565b61158481611569565b82525050565b600060208201905061159f600083018461157b565b92915050565b600080fd5b600080fd5b600080fd5b60008083601f8401126115ca576115c96115a5565b5b8235905067ffffffffffffffff8111156115e7576115e66115aa565b5b602083019150836001820283011115611603576116026115af565b5b9250929050565b600080fd5b6000601f19601f8301169050919050565b7f4e487b7100000000000000000000000000000000000000000000000000000000600052604160045260246000fd5b6116588261160f565b810181811067ffffffffffffffff8211171561167757611676611620565b5b80604052505050565b600061168a6114d2565b9050611696828261164f565b919050565b600067ffffffffffffffff8211156116b6576116b5611620565b5b6116bf8261160f565b9050602081019050919050565b82818337600083830152505050565b60006116ee6116e98461169b565b611680565b90508281526020810184848401111561170a5761170961160a565b5b6117158482856116cc565b509392505050565b600082601f830112611732576117316115a5565b5b81356117428482602086016116db565b91505092915050565b600080600060408486031215611764576117636114dc565b5b600084013567ffffffffffffffff811115611782576117816114e1565b5b61178e868287016115b4565b9350935050602084013567ffffffffffffffff8111156117b1576117b06114e1565b5b6117bd8682870161171d565b9150509250925092565b6000819050919050565b6117da816117c7565b82525050565b60006020820190506117f560008301846117d1565b92915050565b60008060408385031215611812576118116114dc565b5b600061182085828601611507565b925050602061183185828601611507565b9150509250929050565b600080fd5b600080fd5b61184e816117c7565b811461185957600080fd5b50565b60008135905061186b81611845565b92915050565b61187a81611569565b811461188557600080fd5b50565b60008135905061189781611871565b92915050565b600061014082840312156118b4576118b361183b565b5b6118bf610140611680565b905060006118cf84828501611507565b60008301525060206118e384828501611507565b60208301525060406118f78482850161185c565b604083015250606061190b84828501611507565b606083015250608061191f84828501611507565b60808301525060a061193384828501611507565b60a08301525060c06119478482850161185c565b60c08301525060e061195b84828501611507565b60e08301525061010061197084828501611888565b6101008301525061012082013567ffffffffffffffff81111561199657611995611840565b5b6119a28482850161171d565b6101208301525092915050565b600080fd5b6000604082840312156119ca576119c96119af565b5b81905092915050565b600080604083850312156119ea576119e96114dc565b5b600083013567ffffffffffffffff811115611a0857611a076114e1565b5b611a148582860161189d565b925050602083013567ffffffffffffffff811115611a3557611a346114e1565b5b611a41858286016119b4565b9150509250929050565b60008115159050919050565b611a6081611a4b565b82525050565b6000602082019050611a7b6000830184611a57565b92915050565b600060208284031215611a9757611a966114dc565b5b6000611aa584828501611888565b91505092915050565b611ab7816114e6565b82525050565b6000602082019050611ad26000830184611aae565b92915050565b600081519050919050565b600082825260208201905092915050565b60005b83811015611b12578082015181840152602081019050611af7565b60008484015250505050565b6000611b2982611ad8565b611b338185611ae3565b9350611b43818560208601611af4565b611b4c8161160f565b840191505092915050565b6000606082019050611b6c600083018661157b565b8181036020830152611b7e8185611b1e565b9050611b8d60408301846117d1565b949350505050565b7f4e487b7100000000000000000000000000000000000000000000000000000000600052601160045260246000fd5b6000611bcf826117c7565b9150611bda836117c7565b9250828201905080821115611bf257611bf1611b95565b5b92915050565b6000604082019050611c0d6000830185611aae565b611c1a6020830184611aae565b9392505050565b600080fd5b600080fd5b600080fd5b60008083356001602003843603038112611c4d57611c4c611c21565b5b80840192508235915067ffffffffffffffff821115611c6f57611c6e611c26565b5b602083019250600182023603831315611c8b57611c8a611c2b565b5b509250929050565b600061ffff82169050919050565b6000611cac82611c93565b9150611cb783611c93565b9250828201905061ffff811115611cd157611cd0611b95565b5b92915050565b600080fd5b600080fd5b60008085851115611cf557611cf4611cd7565b5b83861115611d0657611d05611cdc565b5b6001850283019150848603905094509492505050565b600082905092915050565b600082821b905092915050565b6000611d408383611d1c565b82611d4b81356114e6565b92506020821015611d8b57611d867fffffffffffffffffffffffffffffffffffffffffffffffffffffffffffffffff83602003600802611d27565b831692505b505092915050565b600081905092915050565b6000611da982611ad8565b611db38185611d93565b9350611dc3818560208601611af4565b80840191505092915050565b6000819050919050565b611dea611de5826114e6565b611dcf565b82525050565b6000611dfc8385611d93565b9350611e098385846116cc565b82840190509392505050565b6000611e218288611d9e565b9150611e2d8287611dd9565b602082019150611e3d8286611dd9565b602082019150611e4e828486611df0565b91508190509695505050505050565b6000611e698284611d9e565b915081905092915050565b600081519050611e83816114f0565b92915050565b600060208284031215611e9f57611e9e6114dc565b5b6000611ead84828501611e74565b91505092915050565b600067ffffffffffffffff821115611ed157611ed0611620565b5b611eda8261160f565b9050602081019050919050565b6000611efa611ef584611eb6565b611680565b905082815260208101848484011115611f1657611f1561160a565b5b611f218482856116cc565b509392505050565b600082601f830112611f3e57611f3d6115a5565b5b8135611f4e848260208601611ee7565b91505092915050565b600060e08284031215611f6d57611f6c61183b565b5b611f7760e0611680565b90506000611f878482850161185c565b6000830152506020611f9b84828501611507565b6020830152506040611faf84828501611507565b6040830152506060611fc38482850161185c565b6060830152506080611fd784828501611507565b60808301525060a082013567ffffffffffffffff811115611ffb57611ffa611840565b5b61200784828501611f29565b60a08301525060c082013567ffffffffffffffff81111561202b5761202a611840565b5b6120378482850161171d565b60c08301525092915050565b600060208284031215612059576120586114dc565b5b600082013567ffffffffffffffff811115612077576120766114e1565b5b61208384828501611f57565b91505092915050565b6000612099828486611df0565b91508190509392505050565b7f4e487b7100000000000000000000000000000000000000000000000000000000600052602160045260246000fd5b60006120df82611549565b91506120ea83611549565b92508282026120f881611549565b9150828204841483151761210f5761210e611b95565b5b5092915050565b7f4e487b7100000000000000000000000000000000000000000000000000000000600052603260045260246000fd5b600061215082611549565b915061215b83611549565b9250828203905073ffffffffffffffffffffffffffffffffffffffff81111561218757612186611b95565b5b92915050565b600061219882611549565b91506121a383611549565b9250828201905073ffffffffffffffffffffffffffffffffffffffff8111156121cf576121ce611b95565b5b92915050565b600060ff82169050919050565b6121eb816121d5565b82525050565b60006080820190506122066000830187611aae565b61221360208301866121e2565b6122206040830185611aae565b61222d6060830184611aae565b9594505050505056fea264697066735822122016ba6a97bf0bc724686748b1e0809a29ffe1dfd07fbec4c28e60135c9a896fde64736f6c63430008190033",
  "linkReferences": {},
  "deployedLinkReferences": {}
}