{
  "_format": "hh-sol-artifact-1",
  "contractName": "Adapter",
  "sourceName": "src/Adapter.sol",
  "abi": [
    {
      "inputs": [
        {
          "internalType": "address",
          "name": "registry_",
          "type": "address"
        }
      ],
      "stateMutability": "nonpayable",
      "type": "constructor"
    },
    {
      "inputs": [
        {
          "internalType": "address",
          "name": "target",
          "type": "address"
        }
      ],
      "name": "AddressEmptyCode",
      "type": "error"
    },
    {
      "inputs": [
        {
          "internalType": "address",
          "name": "account",
          "type": "address"
        }
      ],
      "name": "AddressInsufficientBalance",
      "type": "error"
    },
    {
      "inputs": [
        {
          "internalType": "bytes32",
          "name": "operationId",
          "type": "bytes32"
        }
      ],
      "name": "AlreadyProcessed",
      "type": "error"
    },
    {
      "inputs": [],
      "name": "FailedInnerCall",
      "type": "error"
    },
    {
      "inputs": [
        {
          "internalType": "uint256",
          "name": "destinationChainId",
          "type": "uint256"
        }
      ],
      "name": "InvalidDestinationChainId",
      "type": "error"
    },
    {
      "inputs": [
        {
          "internalType": "uint256",
          "name": "length",
          "type": "uint256"
        }
      ],
      "name": "InvalidEventContentLength",
      "type": "error"
    },
    {
      "inputs": [],
      "name": "InvalidEventRLP",
      "type": "error"
    },
    {
      "inputs": [
        {
          "internalType": "uint256",
          "name": "actual",
          "type": "uint256"
        },
        {
          "internalType": "uint256",
          "name": "expected",
          "type": "uint256"
        }
      ],
      "name": "InvalidMessageId",
      "type": "error"
    },
    {
      "inputs": [],
      "name": "InvalidSender",
      "type": "error"
    },
    {
      "inputs": [
        {
          "internalType": "address",
          "name": "token",
          "type": "address"
        }
      ],
      "name": "InvalidTokenAddress",
      "type": "error"
    },
    {
      "inputs": [
        {
          "internalType": "address",
          "name": "owner",
          "type": "address"
        }
      ],
      "name": "OwnableInvalidOwner",
      "type": "error"
    },
    {
      "inputs": [
        {
          "internalType": "address",
          "name": "account",
          "type": "address"
        }
      ],
      "name": "OwnableUnauthorizedAccount",
      "type": "error"
    },
    {
      "inputs": [],
      "name": "RLPInputTooLong",
      "type": "error"
    },
    {
      "inputs": [
        {
          "internalType": "address",
          "name": "token",
          "type": "address"
        }
      ],
      "name": "SafeERC20FailedOperation",
      "type": "error"
    },
    {
      "inputs": [],
      "name": "Unauthorized",
      "type": "error"
    },
    {
      "inputs": [
        {
          "internalType": "bytes32",
          "name": "topic",
          "type": "bytes32"
        }
      ],
      "name": "UnexpectedEventTopic",
      "type": "error"
    },
    {
      "inputs": [
        {
          "internalType": "uint256",
          "name": "amount",
          "type": "uint256"
        },
        {
          "internalType": "uint256",
          "name": "fees",
          "type": "uint256"
        }
      ],
      "name": "UnsufficientAmount",
      "type": "error"
    },
    {
      "inputs": [
        {
          "internalType": "uint256",
          "name": "chainId",
          "type": "uint256"
        }
      ],
      "name": "UnsupportedChainId",
      "type": "error"
    },
    {
      "inputs": [
        {
          "internalType": "bytes1",
          "name": "protocolId",
          "type": "bytes1"
        }
      ],
      "name": "UnsupportedProtocolId",
      "type": "error"
    },
    {
      "anonymous": false,
      "inputs": [
        {
          "indexed": true,
          "internalType": "address",
          "name": "previousOwner",
          "type": "address"
        },
        {
          "indexed": true,
          "internalType": "address",
          "name": "newOwner",
          "type": "address"
        }
      ],
      "name": "OwnershipTransferred",
      "type": "event"
    },
    {
      "anonymous": false,
      "inputs": [],
      "name": "ReceiveUserDataFailed",
      "type": "event"
    },
    {
      "anonymous": false,
      "inputs": [],
      "name": "Settled",
      "type": "event"
    },
    {
      "anonymous": false,
      "inputs": [
        {
          "indexed": true,
          "internalType": "uint256",
          "name": "nonce",
          "type": "uint256"
        },
        {
          "components": [
            {
              "internalType": "uint256",
              "name": "nonce",
              "type": "uint256"
            },
            {
              "internalType": "bytes32",
              "name": "erc20",
              "type": "bytes32"
            },
            {
              "internalType": "bytes32",
              "name": "destinationChainId",
              "type": "bytes32"
            },
            {
              "internalType": "uint256",
              "name": "amount",
              "type": "uint256"
            },
            {
              "internalType": "bytes32",
              "name": "sender",
              "type": "bytes32"
            },
            {
              "internalType": "string",
              "name": "recipient",
              "type": "string"
            },
            {
              "internalType": "bytes",
              "name": "data",
              "type": "bytes"
            }
          ],
          "indexed": false,
          "internalType": "struct IAdapter.EventContent",
          "name": "eventContent",
          "type": "tuple"
        }
      ],
      "name": "Swap",
      "type": "event"
    },
    {
      "inputs": [],
      "name": "SWAP_EVENT_TOPIC",
      "outputs": [
        {
          "internalType": "bytes32",
          "name": "",
          "type": "bytes32"
        }
      ],
      "stateMutability": "view",
      "type": "function"
    },
    {
      "inputs": [],
      "name": "owner",
      "outputs": [
        {
          "internalType": "address",
          "name": "",
          "type": "address"
        }
      ],
      "stateMutability": "view",
      "type": "function"
    },
    {
      "inputs": [
        {
          "internalType": "bytes32",
          "name": "",
          "type": "bytes32"
        }
      ],
      "name": "pastEvents",
      "outputs": [
        {
          "internalType": "bool",
          "name": "",
          "type": "bool"
        }
      ],
      "stateMutability": "view",
      "type": "function"
    },
    {
      "inputs": [],
      "name": "registry",
      "outputs": [
        {
          "internalType": "address",
          "name": "",
          "type": "address"
        }
      ],
      "stateMutability": "view",
      "type": "function"
    },
    {
      "inputs": [],
      "name": "renounceOwnership",
      "outputs": [],
      "stateMutability": "nonpayable",
      "type": "function"
    },
    {
      "inputs": [
        {
          "components": [
            {
              "internalType": "bytes32",
              "name": "blockId",
              "type": "bytes32"
            },
            {
              "internalType": "bytes32",
              "name": "txId",
              "type": "bytes32"
            },
            {
              "internalType": "uint256",
              "name": "nonce",
              "type": "uint256"
            },
            {
              "internalType": "bytes32",
              "name": "erc20",
              "type": "bytes32"
            },
            {
              "internalType": "bytes32",
              "name": "originChainId",
              "type": "bytes32"
            },
            {
              "internalType": "bytes32",
              "name": "destinationChainId",
              "type": "bytes32"
            },
            {
              "internalType": "uint256",
              "name": "amount",
              "type": "uint256"
            },
            {
              "internalType": "bytes32",
              "name": "sender",
              "type": "bytes32"
            },
            {
              "internalType": "address",
              "name": "recipient",
              "type": "address"
            },
            {
              "internalType": "bytes",
              "name": "data",
              "type": "bytes"
            }
          ],
          "internalType": "struct IAdapter.Operation",
          "name": "operation",
          "type": "tuple"
        },
        {
          "components": [
            {
              "internalType": "bytes",
              "name": "preimage",
              "type": "bytes"
            },
            {
              "internalType": "bytes",
              "name": "signature",
              "type": "bytes"
            }
          ],
          "internalType": "struct IPAM.Metadata",
          "name": "metadata",
          "type": "tuple"
        }
      ],
      "name": "settle",
      "outputs": [],
      "stateMutability": "nonpayable",
      "type": "function"
    },
    {
      "inputs": [
        {
          "internalType": "address",
          "name": "token",
          "type": "address"
        },
        {
          "internalType": "uint256",
          "name": "amount",
          "type": "uint256"
        },
        {
          "internalType": "uint256",
          "name": "destinationChainId",
          "type": "uint256"
        },
        {
          "internalType": "string",
          "name": "recipient",
          "type": "string"
        }
      ],
      "name": "swap",
      "outputs": [],
      "stateMutability": "payable",
      "type": "function"
    },
    {
      "inputs": [
        {
          "internalType": "address",
          "name": "token",
          "type": "address"
        },
        {
          "internalType": "uint256",
          "name": "amount",
          "type": "uint256"
        },
        {
          "internalType": "uint256",
          "name": "destinationChainId",
          "type": "uint256"
        },
        {
          "internalType": "string",
          "name": "recipient",
          "type": "string"
        },
        {
          "internalType": "bytes",
          "name": "data",
          "type": "bytes"
        }
      ],
      "name": "swap",
      "outputs": [],
      "stateMutability": "payable",
      "type": "function"
    },
    {
      "inputs": [
        {
          "internalType": "address",
          "name": "newOwner",
          "type": "address"
        }
      ],
      "name": "transferOwnership",
      "outputs": [],
      "stateMutability": "nonpayable",
      "type": "function"
    }
  ],
  "bytecode": "0x608060405234801561001057600080fd5b5060405161273d38038061273d83398181016040528101906100329190610223565b33600073ffffffffffffffffffffffffffffffffffffffff168173ffffffffffffffffffffffffffffffffffffffff16036100a55760006040517f1e4fbdf700000000000000000000000000000000000000000000000000000000815260040161009c919061025f565b60405180910390fd5b6100b4816100fc60201b60201c565b5080600260006101000a81548173ffffffffffffffffffffffffffffffffffffffff021916908373ffffffffffffffffffffffffffffffffffffffff1602179055505061027a565b60008060009054906101000a900473ffffffffffffffffffffffffffffffffffffffff169050816000806101000a81548173ffffffffffffffffffffffffffffffffffffffff021916908373ffffffffffffffffffffffffffffffffffffffff1602179055508173ffffffffffffffffffffffffffffffffffffffff168173ffffffffffffffffffffffffffffffffffffffff167f8be0079c531659141344cd1fd0a4f28419497f9722a3daafe3b4186f6b6457e060405160405180910390a35050565b600080fd5b600073ffffffffffffffffffffffffffffffffffffffff82169050919050565b60006101f0826101c5565b9050919050565b610200816101e5565b811461020b57600080fd5b50565b60008151905061021d816101f7565b92915050565b600060208284031215610239576102386101c0565b5b60006102478482850161020e565b91505092915050565b610259816101e5565b82525050565b60006020820190506102746000830184610250565b92915050565b6124b4806102896000396000f3fe6080604052600436106100865760003560e01c806389702d4b1161005957806389702d4b146101125780638da5cb5b1461013d578063b70a0d5414610168578063e4b81541146101a5578063f2fde38b146101c157610086565b80632e7f0b501461008b578063424b6625146100b4578063715018a6146100d05780637b103999146100e7575b600080fd5b34801561009757600080fd5b506100b260048036038101906100ad91906118c1565b6101ea565b005b6100ce60048036038101906100c99190611999565b6107e0565b005b3480156100dc57600080fd5b506100e5610847565b005b3480156100f357600080fd5b506100fc61085b565b6040516101099190611a30565b60405180910390f35b34801561011e57600080fd5b50610127610881565b6040516101349190611a5a565b60405180910390f35b34801561014957600080fd5b506101526108a8565b60405161015f9190611a30565b60405180910390f35b34801561017457600080fd5b5061018f600480360381019061018a9190611a75565b6108d1565b60405161019c9190611abd565b60405180910390f35b6101bf60048036038101906101ba9190611b79565b6108f1565b005b3480156101cd57600080fd5b506101e860048036038101906101e39190611c2c565b61101c565b005b6000600260009054906101000a900473ffffffffffffffffffffffffffffffffffffffff1673ffffffffffffffffffffffffffffffffffffffff16639de567f084606001516040518263ffffffff1660e01b815260040161024b9190611a5a565b6040805180830381865afa158015610267573d6000803e3d6000fd5b505050506040513d601f19601f8201168201806040525081019061028b9190611c83565b91505060008173ffffffffffffffffffffffffffffffffffffffff166333cb8d59306040518263ffffffff1660e01b81526004016102c99190611a30565b6020604051808303816000875af11580156102e8573d6000803e3d6000fd5b505050506040513d601f19601f8201168201806040525081019061030c9190611cc3565b90508073ffffffffffffffffffffffffffffffffffffffff1663db88c0ea85856040518363ffffffff1660e01b8152600401610349929190611f6d565b6020604051808303816000875af1158015610368573d6000803e3d6000fd5b505050506040513d601f19601f8201168201806040525081019061038c9190611fd0565b6103c2576040517f82b4290000000000000000000000000000000000000000000000000000000000815260040160405180910390fd5b60008273ffffffffffffffffffffffffffffffffffffffff16631e35c99a6040518163ffffffff1660e01b8152600401602060405180830381865afa15801561040f573d6000803e3d6000fd5b505050506040513d601f19601f820116820180604052508101906104339190611cc3565b905060008560c00151111561069d578273ffffffffffffffffffffffffffffffffffffffff16630ee046296040518163ffffffff1660e01b8152600401602060405180830381865afa15801561048d573d6000803e3d6000fd5b505050506040513d601f19601f820116820180604052508101906104b19190611fd0565b15610625578273ffffffffffffffffffffffffffffffffffffffff166340c10f19308760c001516040518363ffffffff1660e01b81526004016104f592919061200c565b600060405180830381600087803b15801561050f57600080fd5b505af1158015610523573d6000803e3d6000fd5b505050508273ffffffffffffffffffffffffffffffffffffffff1663095ea7b3828760c001516040518363ffffffff1660e01b815260040161056692919061200c565b6020604051808303816000875af1158015610585573d6000803e3d6000fd5b505050506040513d601f19601f820116820180604052508101906105a99190611fd0565b508073ffffffffffffffffffffffffffffffffffffffff1663205c28788661010001518760c001516040518363ffffffff1660e01b81526004016105ee92919061200c565b600060405180830381600087803b15801561060857600080fd5b505af115801561061c573d6000803e3d6000fd5b5050505061069c565b8273ffffffffffffffffffffffffffffffffffffffff166340c10f198661010001518760c001516040518363ffffffff1660e01b815260040161066992919061200c565b600060405180830381600087803b15801561068357600080fd5b505af1158015610697573d6000803e3d6000fd5b505050505b5b60008561012001515111156107ad57600063a31b451d60e01b8661012001516040516024016106cc919061207f565b604051602081830303815290604052907bffffffffffffffffffffffffffffffffffffffffffffffffffffffff19166020820180517bffffffffffffffffffffffffffffffffffffffffffffffffffffffff8381831617835250505050905060006103e890506000610774825a61074391906120d0565b600080868c610100015173ffffffffffffffffffffffffffffffffffffffff166110a290949392919063ffffffff16565b509050806107a9577f2d4705ea4566ac4e054a7a62a1bd990db337265226fd452861216f9f8d58212160405160405180910390a15b5050505b7f97088ec3606cfe8cc112180570d03fcde05f9b8e1bfef8e27784eaf5dd5691b660405160405180910390a15050505050565b61084085858585858080601f016020809104026020016040519081016040528093929190818152602001838380828437600081840152601f19601f82011690508083019250505050505050604051806020016040528060008152506108f1565b5050505050565b61084f61113a565b61085960006111c1565b565b600260009054906101000a900473ffffffffffffffffffffffffffffffffffffffff1681565b7f26d9f1fabb4e0554841202b52d725e2426dda2be4cafcb362eb73f9fb813d60960001b81565b60008060009054906101000a900473ffffffffffffffffffffffffffffffffffffffff16905090565b60036020528060005260406000206000915054906101000a900460ff1681565b600073ffffffffffffffffffffffffffffffffffffffff168573ffffffffffffffffffffffffffffffffffffffff160361096257846040517f733068030000000000000000000000000000000000000000000000000000000081526004016109599190611a30565b60405180910390fd5b600084118061099d5750600073ffffffffffffffffffffffffffffffffffffffff168573ffffffffffffffffffffffffffffffffffffffff16145b6109dc576040517f08c379a00000000000000000000000000000000000000000000000000000000081526004016109d390612161565b60405180910390fd5b600080600260009054906101000a900473ffffffffffffffffffffffffffffffffffffffff1673ffffffffffffffffffffffffffffffffffffffff1663742978da886040518263ffffffff1660e01b8152600401610a3a9190611a30565b6040805180830381865afa158015610a56573d6000803e3d6000fd5b505050506040513d601f19601f82011682018060405250810190610a7a9190611c83565b9150915060008173ffffffffffffffffffffffffffffffffffffffff16631e35c99a6040518163ffffffff1660e01b8152600401602060405180830381865afa158015610acb573d6000803e3d6000fd5b505050506040513d601f19601f82011682018060405250810190610aef9190611cc3565b905060008360001c9050600073ffffffffffffffffffffffffffffffffffffffff168273ffffffffffffffffffffffffffffffffffffffff1614158015610ba157508173ffffffffffffffffffffffffffffffffffffffff1663479d39766040518163ffffffff1660e01b8152600401602060405180830381865afa158015610b7c573d6000803e3d6000fd5b505050506040513d601f19601f82011682018060405250810190610ba09190611fd0565b5b15610c17578173ffffffffffffffffffffffffffffffffffffffff16638ca4180889306040518363ffffffff1660e01b8152600401610be09190611a30565b6000604051808303818588803b158015610bf957600080fd5b505af1158015610c0d573d6000803e3d6000fd5b5050505050610d7c565b610c238933308b611285565b600073ffffffffffffffffffffffffffffffffffffffff168273ffffffffffffffffffffffffffffffffffffffff1614158015610c8b57508073ffffffffffffffffffffffffffffffffffffffff168973ffffffffffffffffffffffffffffffffffffffff16145b15610d7b578873ffffffffffffffffffffffffffffffffffffffff1663095ea7b3838a6040518363ffffffff1660e01b8152600401610ccb92919061200c565b6020604051808303816000875af1158015610cea573d6000803e3d6000fd5b505050506040513d601f19601f82011682018060405250810190610d0e9190611fd0565b508173ffffffffffffffffffffffffffffffffffffffff1663b6b55f25896040518263ffffffff1660e01b8152600401610d489190612181565b600060405180830381600087803b158015610d6257600080fd5b505af1158015610d76573d6000803e3d6000fd5b505050505b5b60008373ffffffffffffffffffffffffffffffffffffffff1663c762819b6040518163ffffffff1660e01b8152600401602060405180830381865afa158015610dc9573d6000803e3d6000fd5b505050506040513d601f19601f82011682018060405250810190610ded9190611cc3565b905060008173ffffffffffffffffffffffffffffffffffffffff16638b28ab1e868c6040518363ffffffff1660e01b8152600401610e2c92919061200c565b602060405180830381865afa158015610e49573d6000803e3d6000fd5b505050506040513d601f19601f82011682018060405250810190610e6d91906121b1565b90508473ffffffffffffffffffffffffffffffffffffffff1663095ea7b383836040518363ffffffff1660e01b8152600401610eaa92919061200c565b6020604051808303816000875af1158015610ec9573d6000803e3d6000fd5b505050506040513d601f19601f82011682018060405250810190610eed9190611fd0565b508473ffffffffffffffffffffffffffffffffffffffff16639dc29fac308c6040518363ffffffff1660e01b8152600401610f2992919061200c565b600060405180830381600087803b158015610f4357600080fd5b505af1158015610f57573d6000803e3d6000fd5b505050506001547f289ca1b08b8acb2ac02d0c5e8610fd8c0222f15b3089f0b7e7f7f284a23325aa6040518060e0016040528060015481526020018981526020018c60001b8152602001848e610fad91906120d0565b815260200133604051602001610fc39190612226565b604051602081830303815290604052610fdb90612273565b81526020018b81526020018a815250604051610ff791906123d2565b60405180910390a2600160008154600101919050819055505050505050505050505050565b61102461113a565b600073ffffffffffffffffffffffffffffffffffffffff168173ffffffffffffffffffffffffffffffffffffffff16036110965760006040517f1e4fbdf700000000000000000000000000000000000000000000000000000000815260040161108d9190611a30565b60405180910390fd5b61109f816111c1565b50565b6000606060008060008661ffff1667ffffffffffffffff8111156110c9576110c8611587565b5b6040519080825280601f01601f1916602001820160405280156110fb5781602001600182028036833780820191505090505b5090506000808751602089018b8e8ef191503d92508683111561111c578692505b828152826000602083013e8181945094505050509550959350505050565b611142611307565b73ffffffffffffffffffffffffffffffffffffffff166111606108a8565b73ffffffffffffffffffffffffffffffffffffffff16146111bf57611183611307565b6040517f118cdaa70000000000000000000000000000000000000000000000000000000081526004016111b69190611a30565b60405180910390fd5b565b60008060009054906101000a900473ffffffffffffffffffffffffffffffffffffffff169050816000806101000a81548173ffffffffffffffffffffffffffffffffffffffff021916908373ffffffffffffffffffffffffffffffffffffffff1602179055508173ffffffffffffffffffffffffffffffffffffffff168173ffffffffffffffffffffffffffffffffffffffff167f8be0079c531659141344cd1fd0a4f28419497f9722a3daafe3b4186f6b6457e060405160405180910390a35050565b611301848573ffffffffffffffffffffffffffffffffffffffff166323b872dd8686866040516024016112ba939291906123f4565b604051602081830303815290604052915060e01b6020820180517bffffffffffffffffffffffffffffffffffffffffffffffffffffffff838183161783525050505061130f565b50505050565b600033905090565b600061133a828473ffffffffffffffffffffffffffffffffffffffff166113a690919063ffffffff16565b9050600081511415801561135f57508080602001905181019061135d9190611fd0565b155b156113a157826040517f5274afe70000000000000000000000000000000000000000000000000000000081526004016113989190611a30565b60405180910390fd5b505050565b60606113b4838360006113bc565b905092915050565b60608147101561140357306040517fcd7860590000000000000000000000000000000000000000000000000000000081526004016113fa9190611a30565b60405180910390fd5b6000808573ffffffffffffffffffffffffffffffffffffffff16848660405161142c9190612467565b60006040518083038185875af1925050503d8060008114611469576040519150601f19603f3d011682016040523d82523d6000602084013e61146e565b606091505b509150915061147e868383611489565b925050509392505050565b60608261149e5761149982611518565b611510565b600082511480156114c6575060008473ffffffffffffffffffffffffffffffffffffffff163b145b1561150857836040517f9996b3150000000000000000000000000000000000000000000000000000000081526004016114ff9190611a30565b60405180910390fd5b819050611511565b5b9392505050565b60008151111561152b5780518082602001fd5b6040517f1425ea4200000000000000000000000000000000000000000000000000000000815260040160405180910390fd5b6000604051905090565b600080fd5b600080fd5b600080fd5b6000601f19601f8301169050919050565b7f4e487b7100000000000000000000000000000000000000000000000000000000600052604160045260246000fd5b6115bf82611576565b810181811067ffffffffffffffff821117156115de576115dd611587565b5b80604052505050565b60006115f161155d565b90506115fd82826115b6565b919050565b600080fd5b6000819050919050565b61161a81611607565b811461162557600080fd5b50565b60008135905061163781611611565b92915050565b6000819050919050565b6116508161163d565b811461165b57600080fd5b50565b60008135905061166d81611647565b92915050565b600073ffffffffffffffffffffffffffffffffffffffff82169050919050565b600061169e82611673565b9050919050565b6116ae81611693565b81146116b957600080fd5b50565b6000813590506116cb816116a5565b92915050565b600080fd5b600080fd5b600067ffffffffffffffff8211156116f6576116f5611587565b5b6116ff82611576565b9050602081019050919050565b82818337600083830152505050565b600061172e611729846116db565b6115e7565b90508281526020810184848401111561174a576117496116d6565b5b61175584828561170c565b509392505050565b600082601f830112611772576117716116d1565b5b813561178284826020860161171b565b91505092915050565b600061014082840312156117a2576117a1611571565b5b6117ad6101406115e7565b905060006117bd84828501611628565b60008301525060206117d184828501611628565b60208301525060406117e58482850161165e565b60408301525060606117f984828501611628565b606083015250608061180d84828501611628565b60808301525060a061182184828501611628565b60a08301525060c06118358482850161165e565b60c08301525060e061184984828501611628565b60e08301525061010061185e848285016116bc565b6101008301525061012082013567ffffffffffffffff81111561188457611883611602565b5b6118908482850161175d565b6101208301525092915050565b600080fd5b6000604082840312156118b8576118b761189d565b5b81905092915050565b600080604083850312156118d8576118d7611567565b5b600083013567ffffffffffffffff8111156118f6576118f561156c565b5b6119028582860161178b565b925050602083013567ffffffffffffffff8111156119235761192261156c565b5b61192f858286016118a2565b9150509250929050565b600080fd5b600080fd5b60008083601f840112611959576119586116d1565b5b8235905067ffffffffffffffff81111561197657611975611939565b5b6020830191508360018202830111156119925761199161193e565b5b9250929050565b6000806000806000608086880312156119b5576119b4611567565b5b60006119c3888289016116bc565b95505060206119d48882890161165e565b94505060406119e58882890161165e565b935050606086013567ffffffffffffffff811115611a0657611a0561156c565b5b611a1288828901611943565b92509250509295509295909350565b611a2a81611693565b82525050565b6000602082019050611a456000830184611a21565b92915050565b611a5481611607565b82525050565b6000602082019050611a6f6000830184611a4b565b92915050565b600060208284031215611a8b57611a8a611567565b5b6000611a9984828501611628565b91505092915050565b60008115159050919050565b611ab781611aa2565b82525050565b6000602082019050611ad26000830184611aae565b92915050565b600067ffffffffffffffff821115611af357611af2611587565b5b611afc82611576565b9050602081019050919050565b6000611b1c611b1784611ad8565b6115e7565b905082815260208101848484011115611b3857611b376116d6565b5b611b4384828561170c565b509392505050565b600082601f830112611b6057611b5f6116d1565b5b8135611b70848260208601611b09565b91505092915050565b600080600080600060a08688031215611b9557611b94611567565b5b6000611ba3888289016116bc565b9550506020611bb48882890161165e565b9450506040611bc58882890161165e565b935050606086013567ffffffffffffffff811115611be657611be561156c565b5b611bf288828901611b4b565b925050608086013567ffffffffffffffff811115611c1357611c1261156c565b5b611c1f8882890161175d565b9150509295509295909350565b600060208284031215611c4257611c41611567565b5b6000611c50848285016116bc565b91505092915050565b600081519050611c6881611611565b92915050565b600081519050611c7d816116a5565b92915050565b60008060408385031215611c9a57611c99611567565b5b6000611ca885828601611c59565b9250506020611cb985828601611c6e565b9150509250929050565b600060208284031215611cd957611cd8611567565b5b6000611ce784828501611c6e565b91505092915050565b611cf981611607565b82525050565b611d088161163d565b82525050565b611d1781611693565b82525050565b600081519050919050565b600082825260208201905092915050565b60005b83811015611d57578082015181840152602081019050611d3c565b60008484015250505050565b6000611d6e82611d1d565b611d788185611d28565b9350611d88818560208601611d39565b611d9181611576565b840191505092915050565b600061014083016000830151611db56000860182611cf0565b506020830151611dc86020860182611cf0565b506040830151611ddb6040860182611cff565b506060830151611dee6060860182611cf0565b506080830151611e016080860182611cf0565b5060a0830151611e1460a0860182611cf0565b5060c0830151611e2760c0860182611cff565b5060e0830151611e3a60e0860182611cf0565b50610100830151611e4f610100860182611d0e565b50610120830151848203610120860152611e698282611d63565b9150508091505092915050565b600080fd5b600080fd5b600080fd5b60008083356001602003843603038112611ea257611ea1611e80565b5b83810192508235915060208301925067ffffffffffffffff821115611eca57611ec9611e76565b5b600182023603831315611ee057611edf611e7b565b5b509250929050565b6000611ef48385611d28565b9350611f0183858461170c565b611f0a83611576565b840190509392505050565b600060408301611f286000840184611e85565b8583036000870152611f3b838284611ee8565b92505050611f4c6020840184611e85565b8583036020870152611f5f838284611ee8565b925050508091505092915050565b60006040820190508181036000830152611f878185611d9c565b90508181036020830152611f9b8184611f15565b90509392505050565b611fad81611aa2565b8114611fb857600080fd5b50565b600081519050611fca81611fa4565b92915050565b600060208284031215611fe657611fe5611567565b5b6000611ff484828501611fbb565b91505092915050565b6120068161163d565b82525050565b60006040820190506120216000830185611a21565b61202e6020830184611ffd565b9392505050565b600082825260208201905092915050565b600061205182611d1d565b61205b8185612035565b935061206b818560208601611d39565b61207481611576565b840191505092915050565b600060208201905081810360008301526120998184612046565b905092915050565b7f4e487b7100000000000000000000000000000000000000000000000000000000600052601160045260246000fd5b60006120db8261163d565b91506120e68361163d565b92508282039050818111156120fe576120fd6120a1565b5b92915050565b600082825260208201905092915050565b7f416d6f756e744c6573735468616e5a65726f0000000000000000000000000000600082015250565b600061214b601283612104565b915061215682612115565b602082019050919050565b6000602082019050818103600083015261217a8161213e565b9050919050565b60006020820190506121966000830184611ffd565b92915050565b6000815190506121ab81611647565b92915050565b6000602082840312156121c7576121c6611567565b5b60006121d58482850161219c565b91505092915050565b60008160601b9050919050565b60006121f6826121de565b9050919050565b6000612208826121eb565b9050919050565b61222061221b82611693565b6121fd565b82525050565b6000612232828461220f565b60148201915081905092915050565b6000819050602082019050919050565b600061225d8251611607565b80915050919050565b600082821b905092915050565b600061227e82611d1d565b8261228884612241565b905061229381612251565b925060208210156122d3576122ce7fffffffffffffffffffffffffffffffffffffffffffffffffffffffffffffffff83602003600802612266565b831692505b5050919050565b600081519050919050565b600082825260208201905092915050565b6000612301826122da565b61230b81856122e5565b935061231b818560208601611d39565b61232481611576565b840191505092915050565b600060e0830160008301516123476000860182611cff565b50602083015161235a6020860182611cf0565b50604083015161236d6040860182611cf0565b5060608301516123806060860182611cff565b5060808301516123936080860182611cf0565b5060a083015184820360a08601526123ab82826122f6565b91505060c083015184820360c08601526123c58282611d63565b9150508091505092915050565b600060208201905081810360008301526123ec818461232f565b905092915050565b60006060820190506124096000830186611a21565b6124166020830185611a21565b6124236040830184611ffd565b949350505050565b600081905092915050565b600061244182611d1d565b61244b818561242b565b935061245b818560208601611d39565b80840191505092915050565b60006124738284612436565b91508190509291505056fea264697066735822122015973c7356df98407294f9cda532d6527cd6233677097b1d4e1dc00be549840d64736f6c63430008190033",
  "linkReferences": {},
  "deployedLinkReferences": {}
}