{
  "_format": "hh-sol-artifact-1",
  "contractName": "XERC20Lockbox",
  "sourceName": "src/xerc20/XERC20Lockbox.sol",
  "abi": [
    {
      "inputs": [
        {
          "internalType": "address",
          "name": "_xerc20",
          "type": "address"
        },
        {
          "internalType": "address",
          "name": "_erc20",
          "type": "address"
        },
        {
          "internalType": "bool",
          "name": "_isNative",
          "type": "bool"
        }
      ],
      "stateMutability": "nonpayable",
      "type": "constructor"
    },
    {
      "inputs": [
        {
          "internalType": "address",
          "name": "target",
          "type": "address"
        }
      ],
      "name": "AddressEmptyCode",
      "type": "error"
    },
    {
      "inputs": [
        {
          "internalType": "address",
          "name": "account",
          "type": "address"
        }
      ],
      "name": "AddressInsufficientBalance",
      "type": "error"
    },
    {
      "inputs": [],
      "name": "FailedInnerCall",
      "type": "error"
    },
    {
      "inputs": [],
      "name": "IXERC20Lockbox_Native",
      "type": "error"
    },
    {
      "inputs": [],
      "name": "IXERC20Lockbox_NotNative",
      "type": "error"
    },
    {
      "inputs": [],
      "name": "IXERC20Lockbox_WithdrawFailed",
      "type": "error"
    },
    {
      "inputs": [
        {
          "internalType": "address",
          "name": "token",
          "type": "address"
        }
      ],
      "name": "SafeERC20FailedOperation",
      "type": "error"
    },
    {
      "anonymous": false,
      "inputs": [
        {
          "indexed": false,
          "internalType": "address",
          "name": "_sender",
          "type": "address"
        },
        {
          "indexed": false,
          "internalType": "uint256",
          "name": "_amount",
          "type": "uint256"
        }
      ],
      "name": "Deposit",
      "type": "event"
    },
    {
      "anonymous": false,
      "inputs": [
        {
          "indexed": false,
          "internalType": "address",
          "name": "_sender",
          "type": "address"
        },
        {
          "indexed": false,
          "internalType": "uint256",
          "name": "_amount",
          "type": "uint256"
        }
      ],
      "name": "Withdraw",
      "type": "event"
    },
    {
      "inputs": [],
      "name": "ERC20",
      "outputs": [
        {
          "internalType": "contract IERC20",
          "name": "",
          "type": "address"
        }
      ],
      "stateMutability": "view",
      "type": "function"
    },
    {
      "inputs": [],
      "name": "IS_NATIVE",
      "outputs": [
        {
          "internalType": "bool",
          "name": "",
          "type": "bool"
        }
      ],
      "stateMutability": "view",
      "type": "function"
    },
    {
      "inputs": [],
      "name": "XERC20",
      "outputs": [
        {
          "internalType": "contract IXERC20",
          "name": "",
          "type": "address"
        }
      ],
      "stateMutability": "view",
      "type": "function"
    },
    {
      "inputs": [
        {
          "internalType": "uint256",
          "name": "_amount",
          "type": "uint256"
        }
      ],
      "name": "deposit",
      "outputs": [],
      "stateMutability": "nonpayable",
      "type": "function"
    },
    {
      "inputs": [],
      "name": "depositNative",
      "outputs": [],
      "stateMutability": "payable",
      "type": "function"
    },
    {
      "inputs": [
        {
          "internalType": "address",
          "name": "_to",
          "type": "address"
        }
      ],
      "name": "depositNativeTo",
      "outputs": [],
      "stateMutability": "payable",
      "type": "function"
    },
    {
      "inputs": [
        {
          "internalType": "address",
          "name": "_to",
          "type": "address"
        },
        {
          "internalType": "uint256",
          "name": "_amount",
          "type": "uint256"
        }
      ],
      "name": "depositTo",
      "outputs": [],
      "stateMutability": "nonpayable",
      "type": "function"
    },
    {
      "inputs": [
        {
          "internalType": "uint256",
          "name": "_amount",
          "type": "uint256"
        }
      ],
      "name": "withdraw",
      "outputs": [],
      "stateMutability": "nonpayable",
      "type": "function"
    },
    {
      "inputs": [
        {
          "internalType": "address",
          "name": "_to",
          "type": "address"
        },
        {
          "internalType": "uint256",
          "name": "_amount",
          "type": "uint256"
        }
      ],
      "name": "withdrawTo",
      "outputs": [],
      "stateMutability": "nonpayable",
      "type": "function"
    },
    {
      "stateMutability": "payable",
      "type": "receive"
    }
  ],
  "bytecode": "0x60e060405234801561001057600080fd5b506040516113c33803806113c383398181016040528101906100329190610149565b8273ffffffffffffffffffffffffffffffffffffffff1660808173ffffffffffffffffffffffffffffffffffffffff16815250508173ffffffffffffffffffffffffffffffffffffffff1660a08173ffffffffffffffffffffffffffffffffffffffff168152505080151560c08115158152505050505061019c565b600080fd5b600073ffffffffffffffffffffffffffffffffffffffff82169050919050565b60006100de826100b3565b9050919050565b6100ee816100d3565b81146100f957600080fd5b50565b60008151905061010b816100e5565b92915050565b60008115159050919050565b61012681610111565b811461013157600080fd5b50565b6000815190506101438161011d565b92915050565b600080600060608486031215610162576101616100ae565b5b6000610170868287016100fc565b9350506020610181868287016100fc565b925050604061019286828701610134565b9150509250925092565b60805160a05160c05161119661022d600039600081816101eb015281816102690152818161028d015281816103150152818161039e01528181610404015261083601526000818161037a0152818161042f015261090a0152600081816102f10152818161047701528181610580015281816105c901528181610678015281816106fa015261079901526111966000f3fe60806040526004361061008a5760003560e01c8063b20a0fb911610059578063b20a0fb914610137578063b6b55f2514610162578063cc4aa2041461018b578063db6b5246146101b6578063ffaad6a5146101c057610099565b8063205c28781461009e5780632e1a7d4d146100c7578063479d3976146100f05780638ca418081461011b57610099565b36610099576100976101e9565b005b600080fd5b3480156100aa57600080fd5b506100c560048036038101906100c09190610d3e565b61024c565b005b3480156100d357600080fd5b506100ee60048036038101906100e99190610d7e565b61025a565b005b3480156100fc57600080fd5b50610105610267565b6040516101129190610dc6565b60405180910390f35b61013560048036038101906101309190610de1565b61028b565b005b34801561014357600080fd5b5061014c6102ef565b6040516101599190610e6d565b60405180910390f35b34801561016e57600080fd5b5061018960048036038101906101849190610d7e565b610313565b005b34801561019757600080fd5b506101a0610378565b6040516101ad9190610ea9565b60405180910390f35b6101be6101e9565b005b3480156101cc57600080fd5b506101e760048036038101906101e29190610d3e565b61039c565b005b7f0000000000000000000000000000000000000000000000000000000000000000610240576040517f8467cb4b00000000000000000000000000000000000000000000000000000000815260040160405180910390fd5b61024a3334610402565b565b610256828261053f565b5050565b610264338261053f565b50565b7f000000000000000000000000000000000000000000000000000000000000000081565b7f00000000000000000000000000000000000000000000000000000000000000006102e2576040517f8467cb4b00000000000000000000000000000000000000000000000000000000815260040160405180910390fd5b6102ec8134610402565b50565b7f000000000000000000000000000000000000000000000000000000000000000081565b7f00000000000000000000000000000000000000000000000000000000000000001561036b576040517f46e927a000000000000000000000000000000000000000000000000000000000815260040160405180910390fd5b6103753382610402565b50565b7f000000000000000000000000000000000000000000000000000000000000000081565b7f0000000000000000000000000000000000000000000000000000000000000000156103f4576040517f46e927a000000000000000000000000000000000000000000000000000000000815260040160405180910390fd5b6103fe8282610402565b5050565b7f0000000000000000000000000000000000000000000000000000000000000000610475576104743330837f000000000000000000000000000000000000000000000000000000000000000073ffffffffffffffffffffffffffffffffffffffff16610956909392919063ffffffff16565b5b7f000000000000000000000000000000000000000000000000000000000000000073ffffffffffffffffffffffffffffffffffffffff166340c10f1983836040518363ffffffff1660e01b81526004016104d0929190610ee2565b600060405180830381600087803b1580156104ea57600080fd5b505af11580156104fe573d6000803e3d6000fd5b505050507fe1fffcc4923d04b559f4d29a8bfc6cda04eb5b0d3c460751c2402c5c5cc9109c8282604051610533929190610ee2565b60405180910390a15050565b7f884edad9ce6fa2440d8a54cc123490eb96d2768479d49ff9c7366125a94243648282604051610570929190610ee2565b60405180910390a16105c53330837f000000000000000000000000000000000000000000000000000000000000000073ffffffffffffffffffffffffffffffffffffffff16610956909392919063ffffffff16565b60007f000000000000000000000000000000000000000000000000000000000000000073ffffffffffffffffffffffffffffffffffffffff1663c762819b6040518163ffffffff1660e01b8152600401602060405180830381865afa158015610632573d6000803e3d6000fd5b505050506040513d601f19601f820116820180604052508101906106569190610f20565b905060008173ffffffffffffffffffffffffffffffffffffffff16638b28ab1e7f0000000000000000000000000000000000000000000000000000000000000000856040518363ffffffff1660e01b81526004016106b5929190610ee2565b602060405180830381865afa1580156106d2573d6000803e3d6000fd5b505050506040513d601f19601f820116820180604052508101906106f69190610f62565b90507f000000000000000000000000000000000000000000000000000000000000000073ffffffffffffffffffffffffffffffffffffffff1663095ea7b383836040518363ffffffff1660e01b8152600401610753929190610ee2565b6020604051808303816000875af1158015610772573d6000803e3d6000fd5b505050506040513d601f19601f820116820180604052508101906107969190610fbb565b507f000000000000000000000000000000000000000000000000000000000000000073ffffffffffffffffffffffffffffffffffffffff16639dc29fac30856040518363ffffffff1660e01b81526004016107f2929190610ee2565b600060405180830381600087803b15801561080c57600080fd5b505af1158015610820573d6000803e3d6000fd5b50505050600081846108329190611017565b90507f0000000000000000000000000000000000000000000000000000000000000000156109035760008573ffffffffffffffffffffffffffffffffffffffff16826040516108809061107c565b60006040518083038185875af1925050503d80600081146108bd576040519150601f19603f3d011682016040523d82523d6000602084013e6108c2565b606091505b50509050806108fd576040517fab8a5c3400000000000000000000000000000000000000000000000000000000815260040160405180910390fd5b5061094f565b61094e85827f000000000000000000000000000000000000000000000000000000000000000073ffffffffffffffffffffffffffffffffffffffff166109d89092919063ffffffff16565b5b5050505050565b6109d2848573ffffffffffffffffffffffffffffffffffffffff166323b872dd86868660405160240161098b93929190611091565b604051602081830303815290604052915060e01b6020820180517bffffffffffffffffffffffffffffffffffffffffffffffffffffffff8381831617835250505050610a57565b50505050565b610a52838473ffffffffffffffffffffffffffffffffffffffff1663a9059cbb8585604051602401610a0b929190610ee2565b604051602081830303815290604052915060e01b6020820180517bffffffffffffffffffffffffffffffffffffffffffffffffffffffff8381831617835250505050610a57565b505050565b6000610a82828473ffffffffffffffffffffffffffffffffffffffff16610aee90919063ffffffff16565b90506000815114158015610aa7575080806020019051810190610aa59190610fbb565b155b15610ae957826040517f5274afe7000000000000000000000000000000000000000000000000000000008152600401610ae091906110c8565b60405180910390fd5b505050565b6060610afc83836000610b04565b905092915050565b606081471015610b4b57306040517fcd786059000000000000000000000000000000000000000000000000000000008152600401610b4291906110c8565b60405180910390fd5b6000808573ffffffffffffffffffffffffffffffffffffffff168486604051610b749190611149565b60006040518083038185875af1925050503d8060008114610bb1576040519150601f19603f3d011682016040523d82523d6000602084013e610bb6565b606091505b5091509150610bc6868383610bd1565b925050509392505050565b606082610be657610be182610c60565b610c58565b60008251148015610c0e575060008473ffffffffffffffffffffffffffffffffffffffff163b145b15610c5057836040517f9996b315000000000000000000000000000000000000000000000000000000008152600401610c4791906110c8565b60405180910390fd5b819050610c59565b5b9392505050565b600081511115610c735780518082602001fd5b6040517f1425ea4200000000000000000000000000000000000000000000000000000000815260040160405180910390fd5b600080fd5b600073ffffffffffffffffffffffffffffffffffffffff82169050919050565b6000610cd582610caa565b9050919050565b610ce581610cca565b8114610cf057600080fd5b50565b600081359050610d0281610cdc565b92915050565b6000819050919050565b610d1b81610d08565b8114610d2657600080fd5b50565b600081359050610d3881610d12565b92915050565b60008060408385031215610d5557610d54610ca5565b5b6000610d6385828601610cf3565b9250506020610d7485828601610d29565b9150509250929050565b600060208284031215610d9457610d93610ca5565b5b6000610da284828501610d29565b91505092915050565b60008115159050919050565b610dc081610dab565b82525050565b6000602082019050610ddb6000830184610db7565b92915050565b600060208284031215610df757610df6610ca5565b5b6000610e0584828501610cf3565b91505092915050565b6000819050919050565b6000610e33610e2e610e2984610caa565b610e0e565b610caa565b9050919050565b6000610e4582610e18565b9050919050565b6000610e5782610e3a565b9050919050565b610e6781610e4c565b82525050565b6000602082019050610e826000830184610e5e565b92915050565b6000610e9382610e3a565b9050919050565b610ea381610e88565b82525050565b6000602082019050610ebe6000830184610e9a565b92915050565b610ecd81610cca565b82525050565b610edc81610d08565b82525050565b6000604082019050610ef76000830185610ec4565b610f046020830184610ed3565b9392505050565b600081519050610f1a81610cdc565b92915050565b600060208284031215610f3657610f35610ca5565b5b6000610f4484828501610f0b565b91505092915050565b600081519050610f5c81610d12565b92915050565b600060208284031215610f7857610f77610ca5565b5b6000610f8684828501610f4d565b91505092915050565b610f9881610dab565b8114610fa357600080fd5b50565b600081519050610fb581610f8f565b92915050565b600060208284031215610fd157610fd0610ca5565b5b6000610fdf84828501610fa6565b91505092915050565b7f4e487b7100000000000000000000000000000000000000000000000000000000600052601160045260246000fd5b600061102282610d08565b915061102d83610d08565b925082820390508181111561104557611044610fe8565b5b92915050565b600081905092915050565b50565b600061106660008361104b565b915061107182611056565b600082019050919050565b600061108782611059565b9150819050919050565b60006060820190506110a66000830186610ec4565b6110b36020830185610ec4565b6110c06040830184610ed3565b949350505050565b60006020820190506110dd6000830184610ec4565b92915050565b600081519050919050565b60005b8381101561110c5780820151818401526020810190506110f1565b60008484015250505050565b6000611123826110e3565b61112d818561104b565b935061113d8185602086016110ee565b80840191505092915050565b60006111558284611118565b91508190509291505056fea2646970667358221220ea2497a9bdc223707a43fc9c61ba139a8b5d01902f55a33e2a9c2e938ff2df5f64736f6c63430008190033",
  "linkReferences": {},
  "deployedLinkReferences": {}
}