{
  "_format": "hh-sol-artifact-1",
  "contractName": "XERC20Registry",
  "sourceName": "src/XERC20Registry.sol",
  "abi": [
    {
      "inputs": [],
      "stateMutability": "nonpayable",
      "type": "constructor"
    },
    {
      "inputs": [],
      "name": "AccessControlBadConfirmation",
      "type": "error"
    },
    {
      "inputs": [
        {
          "internalType": "address",
          "name": "account",
          "type": "address"
        },
        {
          "internalType": "bytes32",
          "name": "neededRole",
          "type": "bytes32"
        }
      ],
      "name": "AccessControlUnauthorizedAccount",
      "type": "error"
    },
    {
      "inputs": [
        {
          "internalType": "address",
          "name": "token",
          "type": "address"
        }
      ],
      "name": "NotRegistered",
      "type": "error"
    },
    {
      "inputs": [
        {
          "internalType": "address",
          "name": "sender",
          "type": "address"
        }
      ],
      "name": "NotRegistrarRole",
      "type": "error"
    },
    {
      "anonymous": false,
      "inputs": [
        {
          "indexed": true,
          "internalType": "bytes32",
          "name": "role",
          "type": "bytes32"
        },
        {
          "indexed": true,
          "internalType": "bytes32",
          "name": "previousAdminRole",
          "type": "bytes32"
        },
        {
          "indexed": true,
          "internalType": "bytes32",
          "name": "newAdminRole",
          "type": "bytes32"
        }
      ],
      "name": "RoleAdminChanged",
      "type": "event"
    },
    {
      "anonymous": false,
      "inputs": [
        {
          "indexed": true,
          "internalType": "bytes32",
          "name": "role",
          "type": "bytes32"
        },
        {
          "indexed": true,
          "internalType": "address",
          "name": "account",
          "type": "address"
        },
        {
          "indexed": true,
          "internalType": "address",
          "name": "sender",
          "type": "address"
        }
      ],
      "name": "RoleGranted",
      "type": "event"
    },
    {
      "anonymous": false,
      "inputs": [
        {
          "indexed": true,
          "internalType": "bytes32",
          "name": "role",
          "type": "bytes32"
        },
        {
          "indexed": true,
          "internalType": "address",
          "name": "account",
          "type": "address"
        },
        {
          "indexed": true,
          "internalType": "address",
          "name": "sender",
          "type": "address"
        }
      ],
      "name": "RoleRevoked",
      "type": "event"
    },
    {
      "anonymous": false,
      "inputs": [
        {
          "indexed": false,
          "internalType": "bytes32",
          "name": "erc20",
          "type": "bytes32"
        },
        {
          "indexed": false,
          "internalType": "address",
          "name": "xerc20",
          "type": "address"
        }
      ],
      "name": "XERC20Deregistered",
      "type": "event"
    },
    {
      "anonymous": false,
      "inputs": [
        {
          "indexed": false,
          "internalType": "bytes32",
          "name": "erc20",
          "type": "bytes32"
        },
        {
          "indexed": false,
          "internalType": "address",
          "name": "xerc20",
          "type": "address"
        }
      ],
      "name": "XERC20Registered",
      "type": "event"
    },
    {
      "inputs": [],
      "name": "DEFAULT_ADMIN_ROLE",
      "outputs": [
        {
          "internalType": "bytes32",
          "name": "",
          "type": "bytes32"
        }
      ],
      "stateMutability": "view",
      "type": "function"
    },
    {
      "inputs": [],
      "name": "REGISTRAR_ROLE",
      "outputs": [
        {
          "internalType": "bytes32",
          "name": "",
          "type": "bytes32"
        }
      ],
      "stateMutability": "view",
      "type": "function"
    },
    {
      "inputs": [
        {
          "internalType": "address",
          "name": "xerc20",
          "type": "address"
        }
      ],
      "name": "deregisterXERC20",
      "outputs": [],
      "stateMutability": "nonpayable",
      "type": "function"
    },
    {
      "inputs": [
        {
          "internalType": "bytes32",
          "name": "",
          "type": "bytes32"
        }
      ],
      "name": "erc20ToXERC20",
      "outputs": [
        {
          "internalType": "address",
          "name": "",
          "type": "address"
        }
      ],
      "stateMutability": "view",
      "type": "function"
    },
    {
      "inputs": [
        {
          "internalType": "address",
          "name": "token",
          "type": "address"
        }
      ],
      "name": "getAssets",
      "outputs": [
        {
          "internalType": "bytes32",
          "name": "",
          "type": "bytes32"
        },
        {
          "internalType": "address",
          "name": "",
          "type": "address"
        }
      ],
      "stateMutability": "view",
      "type": "function"
    },
    {
      "inputs": [
        {
          "internalType": "bytes32",
          "name": "erc20",
          "type": "bytes32"
        }
      ],
      "name": "getAssets",
      "outputs": [
        {
          "internalType": "bytes32",
          "name": "",
          "type": "bytes32"
        },
        {
          "internalType": "address",
          "name": "",
          "type": "address"
        }
      ],
      "stateMutability": "view",
      "type": "function"
    },
    {
      "inputs": [
        {
          "internalType": "bytes32",
          "name": "role",
          "type": "bytes32"
        }
      ],
      "name": "getRoleAdmin",
      "outputs": [
        {
          "internalType": "bytes32",
          "name": "",
          "type": "bytes32"
        }
      ],
      "stateMutability": "view",
      "type": "function"
    },
    {
      "inputs": [
        {
          "internalType": "bytes32",
          "name": "role",
          "type": "bytes32"
        },
        {
          "internalType": "address",
          "name": "account",
          "type": "address"
        }
      ],
      "name": "grantRole",
      "outputs": [],
      "stateMutability": "nonpayable",
      "type": "function"
    },
    {
      "inputs": [
        {
          "internalType": "bytes32",
          "name": "role",
          "type": "bytes32"
        },
        {
          "internalType": "address",
          "name": "account",
          "type": "address"
        }
      ],
      "name": "hasRole",
      "outputs": [
        {
          "internalType": "bool",
          "name": "",
          "type": "bool"
        }
      ],
      "stateMutability": "view",
      "type": "function"
    },
    {
      "inputs": [
        {
          "internalType": "bytes32",
          "name": "erc20",
          "type": "bytes32"
        },
        {
          "internalType": "address",
          "name": "xerc20",
          "type": "address"
        }
      ],
      "name": "registerXERC20",
      "outputs": [],
      "stateMutability": "nonpayable",
      "type": "function"
    },
    {
      "inputs": [
        {
          "internalType": "bytes32",
          "name": "role",
          "type": "bytes32"
        },
        {
          "internalType": "address",
          "name": "callerConfirmation",
          "type": "address"
        }
      ],
      "name": "renounceRole",
      "outputs": [],
      "stateMutability": "nonpayable",
      "type": "function"
    },
    {
      "inputs": [
        {
          "internalType": "bytes32",
          "name": "role",
          "type": "bytes32"
        },
        {
          "internalType": "address",
          "name": "account",
          "type": "address"
        }
      ],
      "name": "revokeRole",
      "outputs": [],
      "stateMutability": "nonpayable",
      "type": "function"
    },
    {
      "inputs": [
        {
          "internalType": "bytes4",
          "name": "interfaceId",
          "type": "bytes4"
        }
      ],
      "name": "supportsInterface",
      "outputs": [
        {
          "internalType": "bool",
          "name": "",
          "type": "bool"
        }
      ],
      "stateMutability": "view",
      "type": "function"
    },
    {
      "inputs": [
        {
          "internalType": "address",
          "name": "",
          "type": "address"
        }
      ],
      "name": "xerc20ToEntry",
      "outputs": [
        {
          "internalType": "bytes32",
          "name": "erc20",
          "type": "bytes32"
        },
        {
          "internalType": "address",
          "name": "xerc20",
          "type": "address"
        }
      ],
      "stateMutability": "view",
      "type": "function"
    }
  ],
  "bytecode": "0x608060405234801561001057600080fd5b506100246000801b3361002a60201b60201c565b50610199565b600061003c838361012760201b60201c565b61011c57600160008085815260200190815260200160002060000160008473ffffffffffffffffffffffffffffffffffffffff1673ffffffffffffffffffffffffffffffffffffffff16815260200190815260200160002060006101000a81548160ff0219169083151502179055506100b961019160201b60201c565b73ffffffffffffffffffffffffffffffffffffffff168273ffffffffffffffffffffffffffffffffffffffff16847f2f8788117e7eff1d82e926ec794901d17c78024a50270940304540a733656f0d60405160405180910390a460019050610121565b600090505b92915050565b600080600084815260200190815260200160002060000160008373ffffffffffffffffffffffffffffffffffffffff1673ffffffffffffffffffffffffffffffffffffffff16815260200190815260200160002060009054906101000a900460ff16905092915050565b600033905090565b6115bf806101a86000396000f3fe608060405234801561001057600080fd5b50600436106100ea5760003560e01c806373255e661161008c5780639de567f0116100665780639de567f014610281578063a217fddf146102b2578063d547741f146102d0578063f68e9553146102ec576100ea565b806373255e6614610204578063742978da1461022057806391d1485414610251576100ea565b80632b1de544116100c85780632b1de5441461016b5780632f2ff15d1461019b57806336568abe146101b75780635a374b69146101d3576100ea565b806301ffc9a7146100ef5780630fbc01a11461011f578063248a9ca31461013b575b600080fd5b610109600480360381019061010491906111c5565b61030a565b604051610116919061120d565b60405180910390f35b610139600480360381019061013491906112bc565b610384565b005b610155600480360381019061015091906112fc565b6105ec565b6040516101629190611338565b60405180910390f35b610185600480360381019061018091906112fc565b61060b565b6040516101929190611362565b60405180910390f35b6101b560048036038101906101b091906112bc565b61063e565b005b6101d160048036038101906101cc91906112bc565b610660565b005b6101ed60048036038101906101e8919061137d565b6106db565b6040516101fb9291906113aa565b60405180910390f35b61021e6004803603810190610219919061137d565b61071f565b005b61023a6004803603810190610235919061137d565b6109ad565b6040516102489291906113aa565b60405180910390f35b61026b600480360381019061026691906112bc565b610c6f565b604051610278919061120d565b60405180910390f35b61029b600480360381019061029691906112fc565b610cd9565b6040516102a99291906113aa565b60405180910390f35b6102ba610e61565b6040516102c79190611338565b60405180910390f35b6102ea60048036038101906102e591906112bc565b610e68565b005b6102f4610e8a565b6040516103019190611338565b60405180910390f35b60007f7965db0b000000000000000000000000000000000000000000000000000000007bffffffffffffffffffffffffffffffffffffffffffffffffffffffff1916827bffffffffffffffffffffffffffffffffffffffffffffffffffffffff1916148061037d575061037c82610eae565b5b9050919050565b6103b57fd6b769dbdbf190871759edfb79bd17eda0005e1b8c3b6b3f5b480b5604ad50146103b0610f18565b610c6f565b6103fd576103c1610f18565b6040517fe9008cae0000000000000000000000000000000000000000000000000000000081526004016103f49190611362565b60405180910390fd5b600073ffffffffffffffffffffffffffffffffffffffff166001600084815260200190815260200160002060009054906101000a900473ffffffffffffffffffffffffffffffffffffffff1673ffffffffffffffffffffffffffffffffffffffff161461049f576040517f08c379a000000000000000000000000000000000000000000000000000000000815260040161049690611430565b60405180910390fd5b806001600084815260200190815260200160002060006101000a81548173ffffffffffffffffffffffffffffffffffffffff021916908373ffffffffffffffffffffffffffffffffffffffff16021790555060405180604001604052808381526020018273ffffffffffffffffffffffffffffffffffffffff16815250600260008373ffffffffffffffffffffffffffffffffffffffff1673ffffffffffffffffffffffffffffffffffffffff1681526020019081526020016000206000820151816000015560208201518160010160006101000a81548173ffffffffffffffffffffffffffffffffffffffff021916908373ffffffffffffffffffffffffffffffffffffffff1602179055509050507f9fae3f3d1266a9a49efc7532fecf31796638f514e9204d3e00ca5f45740441a182826040516105e09291906113aa565b60405180910390a15050565b6000806000838152602001908152602001600020600101549050919050565b60016020528060005260406000206000915054906101000a900473ffffffffffffffffffffffffffffffffffffffff1681565b610647826105ec565b61065081610f20565b61065a8383610f34565b50505050565b610668610f18565b73ffffffffffffffffffffffffffffffffffffffff168173ffffffffffffffffffffffffffffffffffffffff16146106cc576040517f6697b23200000000000000000000000000000000000000000000000000000000815260040160405180910390fd5b6106d68282611025565b505050565b60026020528060005260406000206000915090508060000154908060010160009054906101000a900473ffffffffffffffffffffffffffffffffffffffff16905082565b6107507fd6b769dbdbf190871759edfb79bd17eda0005e1b8c3b6b3f5b480b5604ad501461074b610f18565b610c6f565b6107985761075c610f18565b6040517fe9008cae00000000000000000000000000000000000000000000000000000000815260040161078f9190611362565b60405180910390fd5b6000600260008373ffffffffffffffffffffffffffffffffffffffff1673ffffffffffffffffffffffffffffffffffffffff168152602001908152602001600020604051806040016040529081600082015481526020016001820160009054906101000a900473ffffffffffffffffffffffffffffffffffffffff1673ffffffffffffffffffffffffffffffffffffffff1673ffffffffffffffffffffffffffffffffffffffff16815250509050600073ffffffffffffffffffffffffffffffffffffffff16816020015173ffffffffffffffffffffffffffffffffffffffff16036108b9576040517f08c379a00000000000000000000000000000000000000000000000000000000081526004016108b09061149c565b60405180910390fd5b600160008260000151815260200190815260200160002060006101000a81549073ffffffffffffffffffffffffffffffffffffffff021916905560026000826020015173ffffffffffffffffffffffffffffffffffffffff1673ffffffffffffffffffffffffffffffffffffffff1681526020019081526020016000206000808201600090556001820160006101000a81549073ffffffffffffffffffffffffffffffffffffffff021916905550507fe7860272079696782f961197cc3a463b0fbb45425467388f231515c8ba600f98816000015182602001516040516109a19291906113aa565b60405180910390a15050565b6000806000600260008573ffffffffffffffffffffffffffffffffffffffff1673ffffffffffffffffffffffffffffffffffffffff168152602001908152602001600020604051806040016040529081600082015481526020016001820160009054906101000a900473ffffffffffffffffffffffffffffffffffffffff1673ffffffffffffffffffffffffffffffffffffffff1673ffffffffffffffffffffffffffffffffffffffff16815250509050600073ffffffffffffffffffffffffffffffffffffffff16816020015173ffffffffffffffffffffffffffffffffffffffff1614158015610aa657506000801b816000015114155b15610abf57806000015181602001519250925050610c6a565b60006001600086604051602001610ad69190611362565b604051602081830303815290604052610aee906114f9565b815260200190815260200160002060009054906101000a900473ffffffffffffffffffffffffffffffffffffffff169050600260008273ffffffffffffffffffffffffffffffffffffffff1673ffffffffffffffffffffffffffffffffffffffff168152602001908152602001600020604051806040016040529081600082015481526020016001820160009054906101000a900473ffffffffffffffffffffffffffffffffffffffff1673ffffffffffffffffffffffffffffffffffffffff1673ffffffffffffffffffffffffffffffffffffffff16815250509150600073ffffffffffffffffffffffffffffffffffffffff16826020015173ffffffffffffffffffffffffffffffffffffffff1614158015610c1357506000801b826000015114155b15610c2d5781600001518260200151935093505050610c6a565b846040517fbfc6c337000000000000000000000000000000000000000000000000000000008152600401610c619190611362565b60405180910390fd5b915091565b600080600084815260200190815260200160002060000160008373ffffffffffffffffffffffffffffffffffffffff1673ffffffffffffffffffffffffffffffffffffffff16815260200190815260200160002060009054906101000a900460ff16905092915050565b60008060006001600085815260200190815260200160002060009054906101000a900473ffffffffffffffffffffffffffffffffffffffff1690506000600260008373ffffffffffffffffffffffffffffffffffffffff1673ffffffffffffffffffffffffffffffffffffffff168152602001908152602001600020604051806040016040529081600082015481526020016001820160009054906101000a900473ffffffffffffffffffffffffffffffffffffffff1673ffffffffffffffffffffffffffffffffffffffff1673ffffffffffffffffffffffffffffffffffffffff16815250509050600073ffffffffffffffffffffffffffffffffffffffff16816020015173ffffffffffffffffffffffffffffffffffffffff161480610e0757506000801b8160000151145b15610e4c578460001c6040517fbfc6c337000000000000000000000000000000000000000000000000000000008152600401610e439190611362565b60405180910390fd5b80600001518160200151935093505050915091565b6000801b81565b610e71826105ec565b610e7a81610f20565b610e848383611025565b50505050565b7fd6b769dbdbf190871759edfb79bd17eda0005e1b8c3b6b3f5b480b5604ad501481565b60007f01ffc9a7000000000000000000000000000000000000000000000000000000007bffffffffffffffffffffffffffffffffffffffffffffffffffffffff1916827bffffffffffffffffffffffffffffffffffffffffffffffffffffffff1916149050919050565b600033905090565b610f3181610f2c610f18565b611117565b50565b6000610f408383610c6f565b61101a57600160008085815260200190815260200160002060000160008473ffffffffffffffffffffffffffffffffffffffff1673ffffffffffffffffffffffffffffffffffffffff16815260200190815260200160002060006101000a81548160ff021916908315150217905550610fb7610f18565b73ffffffffffffffffffffffffffffffffffffffff168273ffffffffffffffffffffffffffffffffffffffff16847f2f8788117e7eff1d82e926ec794901d17c78024a50270940304540a733656f0d60405160405180910390a46001905061101f565b600090505b92915050565b60006110318383610c6f565b1561110c57600080600085815260200190815260200160002060000160008473ffffffffffffffffffffffffffffffffffffffff1673ffffffffffffffffffffffffffffffffffffffff16815260200190815260200160002060006101000a81548160ff0219169083151502179055506110a9610f18565b73ffffffffffffffffffffffffffffffffffffffff168273ffffffffffffffffffffffffffffffffffffffff16847ff6391f5c32d9c69d2a47ea670b442974b53935d1edc7fd64eb21e047a839171b60405160405180910390a460019050611111565b600090505b92915050565b6111218282610c6f565b6111645780826040517fe2517d3f00000000000000000000000000000000000000000000000000000000815260040161115b929190611560565b60405180910390fd5b5050565b600080fd5b60007fffffffff0000000000000000000000000000000000000000000000000000000082169050919050565b6111a28161116d565b81146111ad57600080fd5b50565b6000813590506111bf81611199565b92915050565b6000602082840312156111db576111da611168565b5b60006111e9848285016111b0565b91505092915050565b60008115159050919050565b611207816111f2565b82525050565b600060208201905061122260008301846111fe565b92915050565b6000819050919050565b61123b81611228565b811461124657600080fd5b50565b60008135905061125881611232565b92915050565b600073ffffffffffffffffffffffffffffffffffffffff82169050919050565b60006112898261125e565b9050919050565b6112998161127e565b81146112a457600080fd5b50565b6000813590506112b681611290565b92915050565b600080604083850312156112d3576112d2611168565b5b60006112e185828601611249565b92505060206112f2858286016112a7565b9150509250929050565b60006020828403121561131257611311611168565b5b600061132084828501611249565b91505092915050565b61133281611228565b82525050565b600060208201905061134d6000830184611329565b92915050565b61135c8161127e565b82525050565b60006020820190506113776000830184611353565b92915050565b60006020828403121561139357611392611168565b5b60006113a1848285016112a7565b91505092915050565b60006040820190506113bf6000830185611329565b6113cc6020830184611353565b9392505050565b600082825260208201905092915050565b7f416c726561647952656769737465726564000000000000000000000000000000600082015250565b600061141a6011836113d3565b9150611425826113e4565b602082019050919050565b600060208201905081810360008301526114498161140d565b9050919050565b7f4e6f745265676973746572656400000000000000000000000000000000000000600082015250565b6000611486600d836113d3565b915061149182611450565b602082019050919050565b600060208201905081810360008301526114b581611479565b9050919050565b600081519050919050565b6000819050602082019050919050565b60006114e38251611228565b80915050919050565b600082821b905092915050565b6000611504826114bc565b8261150e846114c7565b9050611519816114d7565b92506020821015611559576115547fffffffffffffffffffffffffffffffffffffffffffffffffffffffffffffffff836020036008026114ec565b831692505b5050919050565b60006040820190506115756000830185611353565b6115826020830184611329565b939250505056fea264697066735822122025ca1622b9a24f10a49fa03c9b7f0b511e1f14ec05422fbf889bf9f290624f5264736f6c63430008190033",
  "linkReferences": {},
  "deployedLinkReferences": {}
}